{"abi":[{"type":"constructor","inputs":[{"name":"_token0","type":"address","internalType":"address"},{"name":"_token1","type":"address","internalType":"address"},{"name":"_lpToken","type":"address","internalType":"address"}],"stateMutability":"nonpayable"},{"type":"function","name":"A","inputs":[],"outputs":[{"name":"","type":"uint256","internalType":"uint256"}],"stateMutability":"view"},{"type":"function","name":"FEE_DENOMINATOR","inputs":[],"outputs":[{"name":"","type":"uint256","internalType":"uint256"}],"stateMutability":"view"},{"type":"function","name":"N_COINS","inputs":[],"outputs":[{"name":"","type":"uint256","internalType":"uint256"}],"stateMutability":"view"},{"type":"function","name":"PRECISION","inputs":[],"outputs":[{"name":"","type":"uint256","internalType":"uint256"}],"stateMutability":"view"},{"type":"function","name":"add_liquidity","inputs":[{"name":"amounts","type":"uint256[2]","internalType":"uint256[2]"},{"name":"minMintAmount","type":"uint256","internalType":"uint256"}],"outputs":[{"name":"minted","type":"uint256","internalType":"uint256"}],"stateMutability":"nonpayable"},{"type":"function","name":"balances","inputs":[{"name":"index","type":"uint256","internalType":"uint256"}],"outputs":[{"name":"","type":"uint256","internalType":"uint256"}],"stateMutability":"view"},{"type":"function","name":"calc_withdraw_one_coin","inputs":[{"name":"burnAmount","type":"uint256","internalType":"uint256"},{"name":"i","type":"uint256","internalType":"uint256"}],"outputs":[{"name":"","type":"uint256","internalType":"uint256"}],"stateMutability":"view"},{"type":"function","name":"exchange","inputs":[{"name":"i","type":"uint256","internalType":"uint256"},{"name":"j","type":"uint256","internalType":"uint256"},{"name":"dx","type":"uint256","internalType":"uint256"},{"name":"minDy","type":"uint256","internalType":"uint256"}],"outputs":[{"name":"dy","type":"uint256","internalType":"uint256"}],"stateMutability":"nonpayable"},{"type":"function","name":"fee","inputs":[],"outputs":[{"name":"","type":"uint256","internalType":"uint256"}],"stateMutability":"view"},{"type":"function","name":"getD","inputs":[{"name":"xp","type":"uint256[2]","internalType":"uint256[2]"},{"name":"amp","type":"uint256","internalType":"uint256"}],"outputs":[{"name":"","type":"uint256","internalType":"uint256"}],"stateMutability":"pure"},{"type":"function","name":"get_dy","inputs":[{"name":"i","type":"uint256","internalType":"uint256"},{"name":"j","type":"uint256","internalType":"uint256"},{"name":"dx","type":"uint256","internalType":"uint256"}],"outputs":[{"name":"","type":"uint256","internalType":"uint256"}],"stateMutability":"view"},{"type":"function","name":"get_y","inputs":[{"name":"i","type":"uint256","internalType":"uint256"},{"name":"j","type":"uint256","internalType":"uint256"},{"name":"x","type":"uint256","internalType":"uint256"},{"name":"xp","type":"uint256[2]","internalType":"uint256[2]"}],"outputs":[{"name":"","type":"uint256","internalType":"uint256"}],"stateMutability":"view"},{"type":"function","name":"lpToken","inputs":[],"outputs":[{"name":"","type":"address","internalType":"contract RadiusLPToken"}],"stateMutability":"view"},{"type":"function","name":"remove_liquidity","inputs":[{"name":"amount","type":"uint256","internalType":"uint256"},{"name":"minAmounts","type":"uint256[2]","internalType":"uint256[2]"}],"outputs":[{"name":"amounts","type":"uint256[2]","internalType":"uint256[2]"}],"stateMutability":"nonpayable"},{"type":"function","name":"remove_liquidity_one_coin","inputs":[{"name":"burnAmount","type":"uint256","internalType":"uint256"},{"name":"i","type":"uint256","internalType":"uint256"},{"name":"minReceived","type":"uint256","internalType":"uint256"}],"outputs":[{"name":"received","type":"uint256","internalType":"uint256"}],"stateMutability":"nonpayable"},{"type":"function","name":"setFee","inputs":[{"name":"_fee","type":"uint256","internalType":"uint256"}],"outputs":[],"stateMutability":"nonpayable"},{"type":"function","name":"token0","inputs":[],"outputs":[{"name":"","type":"address","internalType":"contract IERC20"}],"stateMutability":"view"},{"type":"function","name":"token1","inputs":[],"outputs":[{"name":"","type":"address","internalType":"contract IERC20"}],"stateMutability":"view"},{"type":"function","name":"totalSupply","inputs":[],"outputs":[{"name":"","type":"uint256","internalType":"uint256"}],"stateMutability":"view"},{"type":"event","name":"LiquidityAdded","inputs":[{"name":"provider","type":"address","indexed":true,"internalType":"address"},{"name":"amounts","type":"uint256[2]","indexed":false,"internalType":"uint256[2]"},{"name":"lpMinted","type":"uint256","indexed":false,"internalType":"uint256"}],"anonymous":false},{"type":"event","name":"LiquidityRemoved","inputs":[{"name":"provider","type":"address","indexed":true,"internalType":"address"},{"name":"amounts","type":"uint256[2]","indexed":false,"internalType":"uint256[2]"},{"name":"lpBurned","type":"uint256","indexed":false,"internalType":"uint256"}],"anonymous":false},{"type":"event","name":"TokenSwapped","inputs":[{"name":"sender","type":"address","indexed":true,"internalType":"address"},{"name":"inputIndex","type":"uint256","indexed":false,"internalType":"uint256"},{"name":"outputIndex","type":"uint256","indexed":false,"internalType":"uint256"},{"name":"inputAmount","type":"uint256","indexed":false,"internalType":"uint256"},{"name":"outputAmount","type":"uint256","indexed":false,"internalType":"uint256"}],"anonymous":false},{"type":"error","name":"ReentrancyGuardReentrantCall","inputs":[]},{"type":"error","name":"SafeERC20FailedOperation","inputs":[{"name":"token","type":"address","internalType":"address"}]}],"bytecode":{"object":"0x60e0604052601e60015534801562000015575f80fd5b50604051620034d7380380620034d783398181016040528101906200003b919062000268565b60015f819055505f73ffffffffffffffffffffffffffffffffffffffff168373ffffffffffffffffffffffffffffffffffffffff1614158015620000ab57505f73ffffffffffffffffffffffffffffffffffffffff168273ffffffffffffffffffffffffffffffffffffffff1614155b620000ed576040517f08c379a0000000000000000000000000000000000000000000000000000000008152600401620000e4906200031f565b60405180910390fd5b5f73ffffffffffffffffffffffffffffffffffffffff168173ffffffffffffffffffffffffffffffffffffffff16036200015e576040517f08c379a000000000000000000000000000000000000000000000000000000000815260040162000155906200038d565b60405180910390fd5b8273ffffffffffffffffffffffffffffffffffffffff1660808173ffffffffffffffffffffffffffffffffffffffff16815250508173ffffffffffffffffffffffffffffffffffffffff1660a08173ffffffffffffffffffffffffffffffffffffffff16815250508073ffffffffffffffffffffffffffffffffffffffff1660c08173ffffffffffffffffffffffffffffffffffffffff1681525050505050620003ad565b5f80fd5b5f73ffffffffffffffffffffffffffffffffffffffff82169050919050565b5f620002328262000207565b9050919050565b620002448162000226565b81146200024f575f80fd5b50565b5f81519050620002628162000239565b92915050565b5f805f6060848603121562000282576200028162000203565b5b5f620002918682870162000252565b9350506020620002a48682870162000252565b9250506040620002b78682870162000252565b9150509250925092565b5f82825260208201905092915050565b7f7a65726f20746f6b656e000000000000000000000000000000000000000000005f82015250565b5f62000307600a83620002c1565b91506200031482620002d1565b602082019050919050565b5f6020820190508181035f8301526200033881620002f9565b9050919050565b7f7a65726f204c50000000000000000000000000000000000000000000000000005f82015250565b5f62000375600783620002c1565b915062000382826200033f565b602082019050919050565b5f6020820190508181035f830152620003a68162000367565b9050919050565b60805160a05160c051613073620004645f395f81816106f9015281816108220152818161093101528181610bfd0152818161111c0152818161131a0152818161183e01528181611c180152611f6a01525f818161054501528181610a7701528181611461015281816115b70152818161160901528181611af70152611ffa01525f81816104bf0152818161090c015281816109d0015281816113dd015281816115dd0152818161162f015261202001526130735ff3fe608060405234801561000f575f80fd5b506004361061011f575f3560e01c80635b41b908116100ab578063d21220a71161006f578063d21220a714610355578063d73792a914610373578063ddca3f4314610391578063f1dc3cc9146103af578063f446c1d0146103df5761011f565b80635b41b9081461029d5780635fcbd285146102cd57806369fe0e2d146102eb5780637550cfff14610307578063aaf5eb68146103375761011f565b80634903b0d1116100f25780634903b0d1146101ad5780634fb08c5e146101dd5780635087a9001461020d578063556d6e9f1461023d5780635b36389c1461026d5761011f565b80630b4c7e4d146101235780630dfe16811461015357806318160ddd14610171578063293577501461018f575b5f80fd5b61013d60048036038101906101389190612412565b6103fd565b60405161014a919061245f565b60405180910390f35b61015b61090a565b60405161016891906124f2565b60405180910390f35b61017961092e565b604051610186919061245f565b60405180910390f35b6101976109c1565b6040516101a4919061245f565b60405180910390f35b6101c760048036038101906101c2919061250b565b6109c6565b6040516101d4919061245f565b60405180910390f35b6101f760048036038101906101f29190612536565b610b54565b604051610204919061245f565b60405180910390f35b61022760048036038101906102229190612574565b610d59565b604051610234919061245f565b60405180910390f35b610257600480360381019061025291906125d8565b610fd3565b604051610264919061245f565b60405180910390f35b61028760048036038101906102829190612628565b6110c7565b604051610294919061270b565b60405180910390f35b6102b760048036038101906102b29190612724565b611507565b6040516102c4919061245f565b60405180910390f35b6102d561183c565b6040516102e291906127a8565b60405180910390f35b6103056004803603810190610300919061250b565b611860565b005b610321600480360381019061031c9190612412565b6118af565b60405161032e919061245f565b60405180910390f35b61033f611ae9565b60405161034c919061245f565b60405180910390f35b61035d611af5565b60405161036a91906124f2565b60405180910390f35b61037b611b19565b604051610388919061245f565b60405180910390f35b610399611b1f565b6040516103a6919061245f565b60405180910390f35b6103c960048036038101906103c491906125d8565b611b25565b6040516103d6919061245f565b60405180910390f35b6103e7612084565b6040516103f4919061245f565b60405180910390f35b5f610406612089565b5f835f6002811061041a576104196127c1565b5b6020020151118061044257505f8360016002811061043b5761043a6127c1565b5b6020020151115b610481576040517f08c379a000000000000000000000000000000000000000000000000000000000815260040161047890612848565b60405180910390fd5b5f835f60028110610495576104946127c1565b5b60200201511115610505576105043330855f600281106104b8576104b76127c1565b5b60200201517f000000000000000000000000000000000000000000000000000000000000000073ffffffffffffffffffffffffffffffffffffffff166120cd909392919063ffffffff16565b5b5f8360016002811061051a576105196127c1565b5b6020020151111561058b5761058a33308560016002811061053e5761053d6127c1565b5b60200201517f000000000000000000000000000000000000000000000000000000000000000073ffffffffffffffffffffffffffffffffffffffff166120cd909392919063ffffffff16565b5b610593612272565b835f600281106105a6576105a56127c1565b5b60200201516105b45f6109c6565b6105be9190612893565b815f600281106105d1576105d06127c1565b5b602002018181525050836001600281106105ee576105ed6127c1565b5b60200201516105fd60016109c6565b6106079190612893565b8160016002811061061b5761061a6127c1565b5b60200201818152505061062c612272565b6106355f6109c6565b815f60028110610648576106476127c1565b5b60200201818152505061065b60016109c6565b8160016002811061066f5761066e6127c1565b5b6020020181815250505f80835f6002811061068d5761068c6127c1565b5b602002015111806106b557505f836001600281106106ae576106ad6127c1565b5b6020020151115b6106bf575f6106cb565b6106ca8360646118af565b5b90505f6106d98360646118af565b90505f82036106ea5780945061079b565b8182826106f79190612893565b7f000000000000000000000000000000000000000000000000000000000000000073ffffffffffffffffffffffffffffffffffffffff166318160ddd6040518163ffffffff1660e01b8152600401602060405180830381865afa158015610760573d5f803e3d5ffd5b505050506040513d601f19601f8201168201806040525081019061078491906128da565b61078e9190612905565b6107989190612973565b94505b858510156107de576040517f08c379a00000000000000000000000000000000000000000000000000000000081526004016107d5906129ed565b60405180910390fd5b5f8511610820576040517f08c379a000000000000000000000000000000000000000000000000000000000815260040161081790612a55565b60405180910390fd5b7f000000000000000000000000000000000000000000000000000000000000000073ffffffffffffffffffffffffffffffffffffffff166340c10f1933876040518363ffffffff1660e01b815260040161087b929190612a93565b5f604051808303815f87803b158015610892575f80fd5b505af11580156108a4573d5f803e3d5ffd5b505050503373ffffffffffffffffffffffffffffffffffffffff167fd21b84298ed008a28b61a4dbbf84d096d672a0afc1ad254dae0982a1f464206e88876040516108f0929190612aba565b60405180910390a25050505061090461214f565b92915050565b7f000000000000000000000000000000000000000000000000000000000000000081565b5f7f000000000000000000000000000000000000000000000000000000000000000073ffffffffffffffffffffffffffffffffffffffff166318160ddd6040518163ffffffff1660e01b8152600401602060405180830381865afa158015610998573d5f803e3d5ffd5b505050506040513d601f19601f820116820180604052508101906109bc91906128da565b905090565b600281565b5f808203610a6d577f000000000000000000000000000000000000000000000000000000000000000073ffffffffffffffffffffffffffffffffffffffff166370a08231306040518263ffffffff1660e01b8152600401610a279190612ae1565b602060405180830381865afa158015610a42573d5f803e3d5ffd5b505050506040513d601f19601f82011682018060405250810190610a6691906128da565b9050610b4f565b60018203610b14577f000000000000000000000000000000000000000000000000000000000000000073ffffffffffffffffffffffffffffffffffffffff166370a08231306040518263ffffffff1660e01b8152600401610ace9190612ae1565b602060405180830381865afa158015610ae9573d5f803e3d5ffd5b505050506040513d601f19601f82011682018060405250810190610b0d91906128da565b9050610b4f565b6040517f08c379a0000000000000000000000000000000000000000000000000000000008152600401610b4690612b44565b60405180910390fd5b919050565b5f60028210610b98576040517f08c379a0000000000000000000000000000000000000000000000000000000008152600401610b8f90612b44565b60405180910390fd5b610ba0612272565b610ba95f6109c6565b815f60028110610bbc57610bbb6127c1565b5b602002018181525050610bcf60016109c6565b81600160028110610be357610be26127c1565b5b6020020181815250505f610bf88260646118af565b90505f7f000000000000000000000000000000000000000000000000000000000000000073ffffffffffffffffffffffffffffffffffffffff166318160ddd6040518163ffffffff1660e01b8152600401602060405180830381865afa158015610c64573d5f803e3d5ffd5b505050506040513d601f19601f82011682018060405250810190610c8891906128da565b90505f8103610c9c575f9350505050610d53565b5f818783610caa9190612893565b84610cb59190612905565b610cbf9190612973565b90505f60018483878a60028110610cd957610cd86127c1565b5b6020020151610ce89190612905565b610cf29190612973565b868960028110610d0557610d046127c1565b5b6020020151610d149190612893565b610d1e9190612893565b90505f61271060015483610d329190612905565b610d3c9190612973565b90508082610d4a9190612893565b96505050505050505b92915050565b5f838514158015610d6a5750600285105b8015610d765750600284105b610db5576040517f08c379a0000000000000000000000000000000000000000000000000000000008152600401610dac90612bac565b60405180910390fd5b5f610dc18360646118af565b90505f60026064610dd29190612905565b90505f8290505f805b6002811015610e69575f8a8203610df457889050610e21565b898214610e1a57878260028110610e0e57610e0d6127c1565b5b60200201519050610e20565b50610e56565b5b8083610e2d9190612bca565b9250600281610e3c9190612905565b8685610e489190612905565b610e529190612973565b9350505b8080610e6190612bfd565b915050610ddb565b50600283610e779190612905565b670de0b6b3a76400008584610e8c9190612905565b610e969190612905565b610ea09190612973565b91505f83670de0b6b3a764000086610eb89190612905565b610ec29190612973565b82610ecd9190612bca565b90505f808690505f5b60ff811015610f8f578192508784836002610ef19190612905565b610efb9190612bca565b610f059190612893565b868384610f129190612905565b610f1c9190612bca565b610f269190612973565b915082821115610f585760018383610f3e9190612893565b11610f53578198505050505050505050610fcb565b610f7c565b60018284610f669190612893565b11610f7b578198505050505050505050610fcb565b5b8080610f8790612bfd565b915050610ed6565b506040517f08c379a0000000000000000000000000000000000000000000000000000000008152600401610fc290612c8e565b60405180910390fd5b949350505050565b5f610fdc612272565b610fe55f6109c6565b815f60028110610ff857610ff76127c1565b5b60200201818152505061100b60016109c6565b8160016002811061101f5761101e6127c1565b5b6020020181815250505f8382876002811061103d5761103c6127c1565b5b602002015161104c9190612bca565b90505f61105b87878486610d59565b90505f600182858960028110611074576110736127c1565b5b60200201516110839190612893565b61108d9190612893565b90505f612710600154836110a19190612905565b6110ab9190612973565b905080826110b99190612893565b955050505050509392505050565b6110cf612272565b6110d7612089565b5f8311611119576040517f08c379a000000000000000000000000000000000000000000000000000000000815260040161111090612cf6565b60405180910390fd5b5f7f000000000000000000000000000000000000000000000000000000000000000073ffffffffffffffffffffffffffffffffffffffff166318160ddd6040518163ffffffff1660e01b8152600401602060405180830381865afa158015611183573d5f803e3d5ffd5b505050506040513d601f19601f820116820180604052508101906111a791906128da565b90505f81116111eb576040517f08c379a00000000000000000000000000000000000000000000000000000000081526004016111e290612d5e565b60405180910390fd5b5f6111f55f6109c6565b90505f61120260016109c6565b90508286836112119190612905565b61121b9190612973565b845f6002811061122e5761122d6127c1565b5b6020020181815250508286826112449190612905565b61124e9190612973565b84600160028110611262576112616127c1565b5b602002018181525050845f6002811061127e5761127d6127c1565b5b6020020151845f60028110611296576112956127c1565b5b6020020151101580156112d95750846001600281106112b8576112b76127c1565b5b6020020151846001600281106112d1576112d06127c1565b5b602002015110155b611318576040517f08c379a000000000000000000000000000000000000000000000000000000000815260040161130f906129ed565b60405180910390fd5b7f000000000000000000000000000000000000000000000000000000000000000073ffffffffffffffffffffffffffffffffffffffff16639dc29fac33886040518363ffffffff1660e01b8152600401611373929190612a93565b5f604051808303815f87803b15801561138a575f80fd5b505af115801561139c573d5f803e3d5ffd5b505050505f845f600281106113b4576113b36127c1565b5b602002015111156114225761142133855f600281106113d6576113d56127c1565b5b60200201517f000000000000000000000000000000000000000000000000000000000000000073ffffffffffffffffffffffffffffffffffffffff166121589092919063ffffffff16565b5b5f84600160028110611437576114366127c1565b5b602002015111156114a6576114a5338560016002811061145a576114596127c1565b5b60200201517f000000000000000000000000000000000000000000000000000000000000000073ffffffffffffffffffffffffffffffffffffffff166121589092919063ffffffff16565b5b3373ffffffffffffffffffffffffffffffffffffffff167fde47ef46462a3d6a01275c8782d4934bbd81484551ef7de844b0028795421d8285886040516114ee929190612aba565b60405180910390a250505061150161214f565b92915050565b5f611510612089565b6002851080156115205750600284105b801561152c5750838514155b61156b576040517f08c379a000000000000000000000000000000000000000000000000000000000815260040161156290612bac565b60405180910390fd5b5f83116115ad576040517f08c379a00000000000000000000000000000000000000000000000000000000081526004016115a490612cf6565b60405180910390fd5b5f8086146115db577f00000000000000000000000000000000000000000000000000000000000000006115fd565b7f00000000000000000000000000000000000000000000000000000000000000005b90505f80861461162d577f000000000000000000000000000000000000000000000000000000000000000061164f565b7f00000000000000000000000000000000000000000000000000000000000000005b905061167e3330878573ffffffffffffffffffffffffffffffffffffffff166120cd909392919063ffffffff16565b611686612272565b61168f5f6109c6565b815f600281106116a2576116a16127c1565b5b6020020181815250506116b560016109c6565b816001600281106116c9576116c86127c1565b5b6020020181815250505f86828a600281106116e7576116e66127c1565b5b60200201516116f69190612bca565b90505f6117058a8a8486610d59565b9050600181848b6002811061171d5761171c6127c1565b5b602002015161172c9190612893565b6117369190612893565b95505f6127106001548861174a9190612905565b6117549190612973565b905080876117629190612893565b9650878710156117a7576040517f08c379a000000000000000000000000000000000000000000000000000000000815260040161179e906129ed565b60405180910390fd5b6117d233888773ffffffffffffffffffffffffffffffffffffffff166121589092919063ffffffff16565b3373ffffffffffffffffffffffffffffffffffffffff167f1474845d885fe24fdac00865837b3e94a48a591bf4704fa0f08c7b8ab9bea5458c8c8c8b60405161181e9493929190612d7c565b60405180910390a250505050505061183461214f565b949350505050565b7f000000000000000000000000000000000000000000000000000000000000000081565b6103e88111156118a5576040517f08c379a000000000000000000000000000000000000000000000000000000000815260040161189c90612e09565b60405180910390fd5b8060018190555050565b5f80836001600281106118c5576118c46127c1565b5b6020020151845f600281106118dd576118dc6127c1565b5b60200201516118ec9190612bca565b90505f81036118fe575f915050611ae3565b5f8190505f6002856119109190612905565b90505f5b60ff811015611aa7575f839050875f60028110611934576119336127c1565b5b602002015184826119459190612905565b61194f9190612973565b905087600160028110611965576119646127c1565b5b602002015184826119769190612905565b6119809190612973565b905060028061198f9190612f56565b8161199a9190612973565b90505f84905081600160026119af9190612bca565b6119b99190612905565b670de0b6b3a764000086670de0b6b3a7640000876119d79190612893565b6119e19190612905565b6119eb9190612973565b6119f59190612bca565b85600284611a039190612905565b670de0b6b3a76400008988611a189190612905565b611a229190612973565b611a2c9190612bca565b611a369190612905565b611a409190612973565b945080851115611a705760018186611a589190612893565b11611a6b57849650505050505050611ae3565b611a92565b60018582611a7e9190612893565b11611a9157849650505050505050611ae3565b5b50508080611a9f90612bfd565b915050611914565b506040517f08c379a0000000000000000000000000000000000000000000000000000000008152600401611ada90612fea565b60405180910390fd5b92915050565b670de0b6b3a764000081565b7f000000000000000000000000000000000000000000000000000000000000000081565b61271081565b60015481565b5f611b2e612089565b60028310611b71576040517f08c379a0000000000000000000000000000000000000000000000000000000008152600401611b6890612b44565b60405180910390fd5b5f8411611bb3576040517f08c379a0000000000000000000000000000000000000000000000000000000008152600401611baa90612cf6565b60405180910390fd5b611bbb612272565b611bc45f6109c6565b815f60028110611bd757611bd66127c1565b5b602002018181525050611bea60016109c6565b81600160028110611bfe57611bfd6127c1565b5b6020020181815250505f611c138260646118af565b90505f7f000000000000000000000000000000000000000000000000000000000000000073ffffffffffffffffffffffffffffffffffffffff166318160ddd6040518163ffffffff1660e01b8152600401602060405180830381865afa158015611c7f573d5f803e3d5ffd5b505050506040513d601f19601f82011682018060405250810190611ca391906128da565b90505f818883611cb39190612893565b84611cbe9190612905565b611cc89190612973565b90505f611df0886001611cdb9190612893565b895f8b14611d0057875f60028110611cf657611cf56127c1565b5b6020020151611d2f565b8685895f60028110611d1557611d146127c1565b5b6020020151611d249190612905565b611d2e9190612973565b5b60405180604001604052805f8e14611d745789888c5f60028110611d5657611d556127c1565b5b6020020151611d659190612905565b611d6f9190612973565b611d8d565b8a5f60028110611d8757611d866127c1565b5b60200201515b815260200160018e14611dce5789888c600160028110611db057611daf6127c1565b5b6020020151611dbf9190612905565b611dc99190612973565b611de8565b8a600160028110611de257611de16127c1565b5b60200201515b815250610d59565b90505f808914611e2e578486600160028110611e0f57611e0e6127c1565b5b602002015184611e1f9190612905565b611e299190612973565b611e5d565b84865f60028110611e4257611e416127c1565b5b602002015184611e529190612905565b611e5c9190612973565b5b905060015f8a14611e9c57858488600160028110611e7e57611e7d6127c1565b5b6020020151611e8d9190612905565b611e979190612973565b611ecb565b8584885f60028110611eb157611eb06127c1565b5b6020020151611ec09190612905565b611eca9190612973565b5b878b60028110611ede57611edd6127c1565b5b6020020151611eed9190612893565b611ef79190612893565b96505f61271060015489611f0b9190612905565b611f159190612973565b90508088611f239190612893565b975088881015611f68576040517f08c379a0000000000000000000000000000000000000000000000000000000008152600401611f5f906129ed565b60405180910390fd5b7f000000000000000000000000000000000000000000000000000000000000000073ffffffffffffffffffffffffffffffffffffffff16639dc29fac338d6040518363ffffffff1660e01b8152600401611fc3929190612a93565b5f604051808303815f87803b158015611fda575f80fd5b505af1158015611fec573d5f803e3d5ffd5b505050505f808b1461201e577f0000000000000000000000000000000000000000000000000000000000000000612040565b7f00000000000000000000000000000000000000000000000000000000000000005b905061206d338a8373ffffffffffffffffffffffffffffffffffffffff166121589092919063ffffffff16565b505050505050505061207d61214f565b9392505050565b606481565b60025f54036120c4576040517f3ee5aeb500000000000000000000000000000000000000000000000000000000815260040160405180910390fd5b60025f81905550565b612149848573ffffffffffffffffffffffffffffffffffffffff166323b872dd86868660405160240161210293929190613008565b604051602081830303815290604052915060e01b6020820180517bffffffffffffffffffffffffffffffffffffffffffffffffffffffff83818316178352505050506121d7565b50505050565b60015f81905550565b6121d2838473ffffffffffffffffffffffffffffffffffffffff1663a9059cbb858560405160240161218b929190612a93565b604051602081830303815290604052915060e01b6020820180517bffffffffffffffffffffffffffffffffffffffffffffffffffffffff83818316178352505050506121d7565b505050565b5f8060205f8451602086015f885af1806121f6576040513d5f823e3d81fd5b3d92505f519150505f821461220f57600181141561222a565b5f8473ffffffffffffffffffffffffffffffffffffffff163b145b1561226c57836040517f5274afe70000000000000000000000000000000000000000000000000000000081526004016122639190612ae1565b60405180910390fd5b50505050565b6040518060400160405280600290602082028036833780820191505090505090565b5f604051905090565b5f80fd5b5f80fd5b5f601f19601f8301169050919050565b7f4e487b71000000000000000000000000000000000000000000000000000000005f52604160045260245ffd5b6122eb826122a5565b810181811067ffffffffffffffff8211171561230a576123096122b5565b5b80604052505050565b5f61231c612294565b905061232882826122e2565b919050565b5f67ffffffffffffffff821115612347576123466122b5565b5b602082029050919050565b5f80fd5b5f819050919050565b61236881612356565b8114612372575f80fd5b50565b5f813590506123838161235f565b92915050565b5f61239b6123968461232d565b612313565b905080602084028301858111156123b5576123b4612352565b5b835b818110156123de57806123ca8882612375565b8452602084019350506020810190506123b7565b5050509392505050565b5f82601f8301126123fc576123fb6122a1565b5b6002612409848285612389565b91505092915050565b5f80606083850312156124285761242761229d565b5b5f612435858286016123e8565b925050604061244685828601612375565b9150509250929050565b61245981612356565b82525050565b5f6020820190506124725f830184612450565b92915050565b5f73ffffffffffffffffffffffffffffffffffffffff82169050919050565b5f819050919050565b5f6124ba6124b56124b084612478565b612497565b612478565b9050919050565b5f6124cb826124a0565b9050919050565b5f6124dc826124c1565b9050919050565b6124ec816124d2565b82525050565b5f6020820190506125055f8301846124e3565b92915050565b5f602082840312156125205761251f61229d565b5b5f61252d84828501612375565b91505092915050565b5f806040838503121561254c5761254b61229d565b5b5f61255985828601612375565b925050602061256a85828601612375565b9150509250929050565b5f805f8060a0858703121561258c5761258b61229d565b5b5f61259987828801612375565b94505060206125aa87828801612375565b93505060406125bb87828801612375565b92505060606125cc878288016123e8565b91505092959194509250565b5f805f606084860312156125ef576125ee61229d565b5b5f6125fc86828701612375565b935050602061260d86828701612375565b925050604061261e86828701612375565b9150509250925092565b5f806060838503121561263e5761263d61229d565b5b5f61264b85828601612375565b925050602061265c858286016123e8565b9150509250929050565b5f60029050919050565b5f81905092915050565b5f819050919050565b61268c81612356565b82525050565b5f61269d8383612683565b60208301905092915050565b5f602082019050919050565b6126be81612666565b6126c88184612670565b92506126d38261267a565b805f5b838110156127035781516126ea8782612692565b96506126f5836126a9565b9250506001810190506126d6565b505050505050565b5f60408201905061271e5f8301846126b5565b92915050565b5f805f806080858703121561273c5761273b61229d565b5b5f61274987828801612375565b945050602061275a87828801612375565b935050604061276b87828801612375565b925050606061277c87828801612375565b91505092959194509250565b5f612792826124c1565b9050919050565b6127a281612788565b82525050565b5f6020820190506127bb5f830184612799565b92915050565b7f4e487b71000000000000000000000000000000000000000000000000000000005f52603260045260245ffd5b5f82825260208201905092915050565b7f7a65726f20616d6f756e747300000000000000000000000000000000000000005f82015250565b5f612832600c836127ee565b915061283d826127fe565b602082019050919050565b5f6020820190508181035f83015261285f81612826565b9050919050565b7f4e487b71000000000000000000000000000000000000000000000000000000005f52601160045260245ffd5b5f61289d82612356565b91506128a883612356565b92508282039050818111156128c0576128bf612866565b5b92915050565b5f815190506128d48161235f565b92915050565b5f602082840312156128ef576128ee61229d565b5b5f6128fc848285016128c6565b91505092915050565b5f61290f82612356565b915061291a83612356565b925082820261292881612356565b9150828204841483151761293f5761293e612866565b5b5092915050565b7f4e487b71000000000000000000000000000000000000000000000000000000005f52601260045260245ffd5b5f61297d82612356565b915061298883612356565b92508261299857612997612946565b5b828204905092915050565b7f736c6970706167652065786365656465640000000000000000000000000000005f82015250565b5f6129d76011836127ee565b91506129e2826129a3565b602082019050919050565b5f6020820190508181035f830152612a04816129cb565b9050919050565b7f7a65726f206d696e7400000000000000000000000000000000000000000000005f82015250565b5f612a3f6009836127ee565b9150612a4a82612a0b565b602082019050919050565b5f6020820190508181035f830152612a6c81612a33565b9050919050565b5f612a7d82612478565b9050919050565b612a8d81612a73565b82525050565b5f604082019050612aa65f830185612a84565b612ab36020830184612450565b9392505050565b5f606082019050612acd5f8301856126b5565b612ada6040830184612450565b9392505050565b5f602082019050612af45f830184612a84565b92915050565b7f696e76616c696420696e646578000000000000000000000000000000000000005f82015250565b5f612b2e600d836127ee565b9150612b3982612afa565b602082019050919050565b5f6020820190508181035f830152612b5b81612b22565b9050919050565b7f696e76616c696420696e646963657300000000000000000000000000000000005f82015250565b5f612b96600f836127ee565b9150612ba182612b62565b602082019050919050565b5f6020820190508181035f830152612bc381612b8a565b9050919050565b5f612bd482612356565b9150612bdf83612356565b9250828201905080821115612bf757612bf6612866565b5b92915050565b5f612c0782612356565b91507fffffffffffffffffffffffffffffffffffffffffffffffffffffffffffffffff8203612c3957612c38612866565b5b600182019050919050565b7f7920646964206e6f7420636f6e766572676500000000000000000000000000005f82015250565b5f612c786012836127ee565b9150612c8382612c44565b602082019050919050565b5f6020820190508181035f830152612ca581612c6c565b9050919050565b7f7a65726f20616d6f756e740000000000000000000000000000000000000000005f82015250565b5f612ce0600b836127ee565b9150612ceb82612cac565b602082019050919050565b5f6020820190508181035f830152612d0d81612cd4565b9050919050565b7f6e6f206c697175696469747900000000000000000000000000000000000000005f82015250565b5f612d48600c836127ee565b9150612d5382612d14565b602082019050919050565b5f6020820190508181035f830152612d7581612d3c565b9050919050565b5f608082019050612d8f5f830187612450565b612d9c6020830186612450565b612da96040830185612450565b612db66060830184612450565b95945050505050565b7f66656520746f6f206869676800000000000000000000000000000000000000005f82015250565b5f612df3600c836127ee565b9150612dfe82612dbf565b602082019050919050565b5f6020820190508181035f830152612e2081612de7565b9050919050565b5f8160011c9050919050565b5f808291508390505b6001851115612e7c57808604811115612e5857612e57612866565b5b6001851615612e675780820291505b8081029050612e7585612e27565b9450612e3c565b94509492505050565b5f82612e945760019050612f4f565b81612ea1575f9050612f4f565b8160018114612eb75760028114612ec157612ef0565b6001915050612f4f565b60ff841115612ed357612ed2612866565b5b8360020a915084821115612eea57612ee9612866565b5b50612f4f565b5060208310610133831016604e8410600b8410161715612f255782820a905083811115612f2057612f1f612866565b5b612f4f565b612f328484846001612e33565b92509050818404811115612f4957612f48612866565b5b81810290505b9392505050565b5f612f6082612356565b9150612f6b83612356565b9250612f987fffffffffffffffffffffffffffffffffffffffffffffffffffffffffffffffff8484612e85565b905092915050565b7f4420646964206e6f7420636f6e766572676500000000000000000000000000005f82015250565b5f612fd46012836127ee565b9150612fdf82612fa0565b602082019050919050565b5f6020820190508181035f83015261300181612fc8565b9050919050565b5f60608201905061301b5f830186612a84565b6130286020830185612a84565b6130356040830184612450565b94935050505056fea26469706673582212202f0f22d32c53cabaaee1c4e782911c3aaeda298152004b75d7a2ab5fe48729b264736f6c63430008140033","linkReferences":{}},"methodIdentifiers":{"A()":"f446c1d0","FEE_DENOMINATOR()":"d73792a9","N_COINS()":"29357750","PRECISION()":"aaf5eb68","add_liquidity(uint256[2],uint256)":"0b4c7e4d","balances(uint256)":"4903b0d1","calc_withdraw_one_coin(uint256,uint256)":"4fb08c5e","exchange(uint256,uint256,uint256,uint256)":"5b41b908","fee()":"ddca3f43","getD(uint256[2],uint256)":"7550cfff","get_dy(uint256,uint256,uint256)":"556d6e9f","get_y(uint256,uint256,uint256,uint256[2])":"5087a900","lpToken()":"5fcbd285","remove_liquidity(uint256,uint256[2])":"5b36389c","remove_liquidity_one_coin(uint256,uint256,uint256)":"f1dc3cc9","setFee(uint256)":"69fe0e2d","token0()":"0dfe1681","token1()":"d21220a7","totalSupply()":"18160ddd"},"id":52}