{"abi":[{"type":"constructor","inputs":[{"name":"_token0","type":"address","internalType":"address"},{"name":"_token1","type":"address","internalType":"address"},{"name":"_lpToken","type":"address","internalType":"address"}],"stateMutability":"nonpayable"},{"type":"function","name":"A","inputs":[],"outputs":[{"name":"","type":"uint256","internalType":"uint256"}],"stateMutability":"view"},{"type":"function","name":"FEE_DENOMINATOR","inputs":[],"outputs":[{"name":"","type":"uint256","internalType":"uint256"}],"stateMutability":"view"},{"type":"function","name":"N_COINS","inputs":[],"outputs":[{"name":"","type":"uint256","internalType":"uint256"}],"stateMutability":"view"},{"type":"function","name":"add_liquidity","inputs":[{"name":"amounts","type":"uint256[2]","internalType":"uint256[2]"},{"name":"minMintAmount","type":"uint256","internalType":"uint256"}],"outputs":[{"name":"minted","type":"uint256","internalType":"uint256"}],"stateMutability":"nonpayable"},{"type":"function","name":"balances","inputs":[{"name":"index","type":"uint256","internalType":"uint256"}],"outputs":[{"name":"","type":"uint256","internalType":"uint256"}],"stateMutability":"view"},{"type":"function","name":"calc_withdraw_one_coin","inputs":[{"name":"burnAmount","type":"uint256","internalType":"uint256"},{"name":"i","type":"uint256","internalType":"uint256"}],"outputs":[{"name":"","type":"uint256","internalType":"uint256"}],"stateMutability":"view"},{"type":"function","name":"exchange","inputs":[{"name":"i","type":"uint256","internalType":"uint256"},{"name":"j","type":"uint256","internalType":"uint256"},{"name":"dx","type":"uint256","internalType":"uint256"},{"name":"minDy","type":"uint256","internalType":"uint256"}],"outputs":[{"name":"dy","type":"uint256","internalType":"uint256"}],"stateMutability":"nonpayable"},{"type":"function","name":"fee","inputs":[],"outputs":[{"name":"","type":"uint256","internalType":"uint256"}],"stateMutability":"view"},{"type":"function","name":"getD","inputs":[{"name":"xp","type":"uint256[2]","internalType":"uint256[2]"},{"name":"amp","type":"uint256","internalType":"uint256"}],"outputs":[{"name":"","type":"uint256","internalType":"uint256"}],"stateMutability":"pure"},{"type":"function","name":"get_dy","inputs":[{"name":"i","type":"uint256","internalType":"uint256"},{"name":"j","type":"uint256","internalType":"uint256"},{"name":"dx","type":"uint256","internalType":"uint256"}],"outputs":[{"name":"","type":"uint256","internalType":"uint256"}],"stateMutability":"view"},{"type":"function","name":"get_y","inputs":[{"name":"i","type":"uint256","internalType":"uint256"},{"name":"j","type":"uint256","internalType":"uint256"},{"name":"x","type":"uint256","internalType":"uint256"},{"name":"xp","type":"uint256[2]","internalType":"uint256[2]"}],"outputs":[{"name":"","type":"uint256","internalType":"uint256"}],"stateMutability":"view"},{"type":"function","name":"lpToken","inputs":[],"outputs":[{"name":"","type":"address","internalType":"contract RadiusLPToken"}],"stateMutability":"view"},{"type":"function","name":"remove_liquidity","inputs":[{"name":"amount","type":"uint256","internalType":"uint256"},{"name":"minAmounts","type":"uint256[2]","internalType":"uint256[2]"}],"outputs":[{"name":"amounts","type":"uint256[2]","internalType":"uint256[2]"}],"stateMutability":"nonpayable"},{"type":"function","name":"remove_liquidity_one_coin","inputs":[{"name":"burnAmount","type":"uint256","internalType":"uint256"},{"name":"i","type":"uint256","internalType":"uint256"},{"name":"minReceived","type":"uint256","internalType":"uint256"}],"outputs":[{"name":"received","type":"uint256","internalType":"uint256"}],"stateMutability":"nonpayable"},{"type":"function","name":"setFee","inputs":[{"name":"_fee","type":"uint256","internalType":"uint256"}],"outputs":[],"stateMutability":"nonpayable"},{"type":"function","name":"token0","inputs":[],"outputs":[{"name":"","type":"address","internalType":"contract IERC20"}],"stateMutability":"view"},{"type":"function","name":"token1","inputs":[],"outputs":[{"name":"","type":"address","internalType":"contract IERC20"}],"stateMutability":"view"},{"type":"function","name":"totalSupply","inputs":[],"outputs":[{"name":"","type":"uint256","internalType":"uint256"}],"stateMutability":"view"},{"type":"event","name":"LiquidityAdded","inputs":[{"name":"provider","type":"address","indexed":true,"internalType":"address"},{"name":"amounts","type":"uint256[2]","indexed":false,"internalType":"uint256[2]"},{"name":"lpMinted","type":"uint256","indexed":false,"internalType":"uint256"}],"anonymous":false},{"type":"event","name":"LiquidityRemoved","inputs":[{"name":"provider","type":"address","indexed":true,"internalType":"address"},{"name":"amounts","type":"uint256[2]","indexed":false,"internalType":"uint256[2]"},{"name":"lpBurned","type":"uint256","indexed":false,"internalType":"uint256"}],"anonymous":false},{"type":"event","name":"TokenSwapped","inputs":[{"name":"sender","type":"address","indexed":true,"internalType":"address"},{"name":"inputIndex","type":"uint256","indexed":false,"internalType":"uint256"},{"name":"outputIndex","type":"uint256","indexed":false,"internalType":"uint256"},{"name":"inputAmount","type":"uint256","indexed":false,"internalType":"uint256"},{"name":"outputAmount","type":"uint256","indexed":false,"internalType":"uint256"}],"anonymous":false},{"type":"error","name":"ReentrancyGuardReentrantCall","inputs":[]},{"type":"error","name":"SafeERC20FailedOperation","inputs":[{"name":"token","type":"address","internalType":"address"}]}],"bytecode":{"object":"0x60e0604052601e60015534801562000015575f80fd5b50604051620032373803806200323783398181016040528101906200003b919062000268565b60015f819055505f73ffffffffffffffffffffffffffffffffffffffff168373ffffffffffffffffffffffffffffffffffffffff1614158015620000ab57505f73ffffffffffffffffffffffffffffffffffffffff168273ffffffffffffffffffffffffffffffffffffffff1614155b620000ed576040517f08c379a0000000000000000000000000000000000000000000000000000000008152600401620000e4906200031f565b60405180910390fd5b5f73ffffffffffffffffffffffffffffffffffffffff168173ffffffffffffffffffffffffffffffffffffffff16036200015e576040517f08c379a000000000000000000000000000000000000000000000000000000000815260040162000155906200038d565b60405180910390fd5b8273ffffffffffffffffffffffffffffffffffffffff1660808173ffffffffffffffffffffffffffffffffffffffff16815250508173ffffffffffffffffffffffffffffffffffffffff1660a08173ffffffffffffffffffffffffffffffffffffffff16815250508073ffffffffffffffffffffffffffffffffffffffff1660c08173ffffffffffffffffffffffffffffffffffffffff1681525050505050620003ad565b5f80fd5b5f73ffffffffffffffffffffffffffffffffffffffff82169050919050565b5f620002328262000207565b9050919050565b620002448162000226565b81146200024f575f80fd5b50565b5f81519050620002628162000239565b92915050565b5f805f6060848603121562000282576200028162000203565b5b5f620002918682870162000252565b9350506020620002a48682870162000252565b9250506040620002b78682870162000252565b9150509250925092565b5f82825260208201905092915050565b7f7a65726f20746f6b656e000000000000000000000000000000000000000000005f82015250565b5f62000307600a83620002c1565b91506200031482620002d1565b602082019050919050565b5f6020820190508181035f8301526200033881620002f9565b9050919050565b7f7a65726f204c50000000000000000000000000000000000000000000000000005f82015250565b5f62000375600783620002c1565b915062000382826200033f565b602082019050919050565b5f6020820190508181035f830152620003a68162000367565b9050919050565b60805160a05160c051612dd3620004645f395f818161068b015281816107b4015281816108c301528181610b8f0152818161108801528181611286015281816117aa01528181611b4b0152611ccc01525f818161057001528181610a09015281816113cd015281816115230152818161157501528181611a2a0152611d5c01525f81816104ea0152818161089e0152818161096201528181611349015281816115490152818161159b0152611d820152612dd35ff3fe608060405234801561000f575f80fd5b5060043610610114575f3560e01c80635b41b908116100a0578063d21220a71161006f578063d21220a71461032c578063d73792a91461034a578063ddca3f4314610368578063f1dc3cc914610386578063f446c1d0146103b657610114565b80635b41b908146102925780635fcbd285146102c257806369fe0e2d146102e05780637550cfff146102fc57610114565b80634903b0d1116100e75780634903b0d1146101a25780634fb08c5e146101d25780635087a90014610202578063556d6e9f146102325780635b36389c1461026257610114565b80630b4c7e4d146101185780630dfe16811461014857806318160ddd146101665780632935775014610184575b5f80fd5b610132600480360381019061012d9190612172565b6103d4565b60405161013f91906121bf565b60405180910390f35b61015061089c565b60405161015d9190612252565b60405180910390f35b61016e6108c0565b60405161017b91906121bf565b60405180910390f35b61018c610953565b60405161019991906121bf565b60405180910390f35b6101bc60048036038101906101b7919061226b565b610958565b6040516101c991906121bf565b60405180910390f35b6101ec60048036038101906101e79190612296565b610ae6565b6040516101f991906121bf565b60405180910390f35b61021c600480360381019061021791906122d4565b610ceb565b60405161022991906121bf565b60405180910390f35b61024c60048036038101906102479190612338565b610f3f565b60405161025991906121bf565b60405180910390f35b61027c60048036038101906102779190612388565b611033565b604051610289919061246b565b60405180910390f35b6102ac60048036038101906102a79190612484565b611473565b6040516102b991906121bf565b60405180910390f35b6102ca6117a8565b6040516102d79190612508565b60405180910390f35b6102fa60048036038101906102f5919061226b565b6117cc565b005b61031660048036038101906103119190612172565b61181b565b60405161032391906121bf565b60405180910390f35b610334611a28565b6040516103419190612252565b60405180910390f35b610352611a4c565b60405161035f91906121bf565b60405180910390f35b610370611a52565b60405161037d91906121bf565b60405180910390f35b6103a0600480360381019061039b9190612338565b611a58565b6040516103ad91906121bf565b60405180910390f35b6103be611de4565b6040516103cb91906121bf565b60405180910390f35b5f6103dd611de9565b5f835f600281106103f1576103f0612521565b5b6020020151118061041957505f8360016002811061041257610411612521565b5b6020020151115b610458576040517f08c379a000000000000000000000000000000000000000000000000000000000815260040161044f906125a8565b60405180910390fd5b610460611fd2565b6104695f610958565b815f6002811061047c5761047b612521565b5b60200201818152505061048f6001610958565b816001600281106104a3576104a2612521565b5b6020020181815250505f845f600281106104c0576104bf612521565b5b602002015111156105305761052f3330865f600281106104e3576104e2612521565b5b60200201517f000000000000000000000000000000000000000000000000000000000000000073ffffffffffffffffffffffffffffffffffffffff16611e2d909392919063ffffffff16565b5b5f8460016002811061054557610544612521565b5b602002015111156105b6576105b533308660016002811061056957610568612521565b5b60200201517f000000000000000000000000000000000000000000000000000000000000000073ffffffffffffffffffffffffffffffffffffffff16611e2d909392919063ffffffff16565b5b6105be611fd2565b6105c75f610958565b815f600281106105da576105d9612521565b5b6020020181815250506105ed6001610958565b8160016002811061060157610600612521565b5b6020020181815250505f80835f6002811061061f5761061e612521565b5b6020020151118061064757505f836001600281106106405761063f612521565b5b6020020151115b610651575f61065d565b61065c83606461181b565b5b90505f61066b83606461181b565b90505f820361067c5780945061072d565b81828261068991906125f3565b7f000000000000000000000000000000000000000000000000000000000000000073ffffffffffffffffffffffffffffffffffffffff166318160ddd6040518163ffffffff1660e01b8152600401602060405180830381865afa1580156106f2573d5f803e3d5ffd5b505050506040513d601f19601f82011682018060405250810190610716919061263a565b6107209190612665565b61072a91906126d3565b94505b85851015610770576040517f08c379a00000000000000000000000000000000000000000000000000000000081526004016107679061274d565b60405180910390fd5b5f85116107b2576040517f08c379a00000000000000000000000000000000000000000000000000000000081526004016107a9906127b5565b60405180910390fd5b7f000000000000000000000000000000000000000000000000000000000000000073ffffffffffffffffffffffffffffffffffffffff166340c10f1933876040518363ffffffff1660e01b815260040161080d9291906127f3565b5f604051808303815f87803b158015610824575f80fd5b505af1158015610836573d5f803e3d5ffd5b505050503373ffffffffffffffffffffffffffffffffffffffff167fd21b84298ed008a28b61a4dbbf84d096d672a0afc1ad254dae0982a1f464206e888760405161088292919061281a565b60405180910390a250505050610896611eaf565b92915050565b7f000000000000000000000000000000000000000000000000000000000000000081565b5f7f000000000000000000000000000000000000000000000000000000000000000073ffffffffffffffffffffffffffffffffffffffff166318160ddd6040518163ffffffff1660e01b8152600401602060405180830381865afa15801561092a573d5f803e3d5ffd5b505050506040513d601f19601f8201168201806040525081019061094e919061263a565b905090565b600281565b5f8082036109ff577f000000000000000000000000000000000000000000000000000000000000000073ffffffffffffffffffffffffffffffffffffffff166370a08231306040518263ffffffff1660e01b81526004016109b99190612841565b602060405180830381865afa1580156109d4573d5f803e3d5ffd5b505050506040513d601f19601f820116820180604052508101906109f8919061263a565b9050610ae1565b60018203610aa6577f000000000000000000000000000000000000000000000000000000000000000073ffffffffffffffffffffffffffffffffffffffff166370a08231306040518263ffffffff1660e01b8152600401610a609190612841565b602060405180830381865afa158015610a7b573d5f803e3d5ffd5b505050506040513d601f19601f82011682018060405250810190610a9f919061263a565b9050610ae1565b6040517f08c379a0000000000000000000000000000000000000000000000000000000008152600401610ad8906128a4565b60405180910390fd5b919050565b5f60028210610b2a576040517f08c379a0000000000000000000000000000000000000000000000000000000008152600401610b21906128a4565b60405180910390fd5b610b32611fd2565b610b3b5f610958565b815f60028110610b4e57610b4d612521565b5b602002018181525050610b616001610958565b81600160028110610b7557610b74612521565b5b6020020181815250505f610b8a82606461181b565b90505f7f000000000000000000000000000000000000000000000000000000000000000073ffffffffffffffffffffffffffffffffffffffff166318160ddd6040518163ffffffff1660e01b8152600401602060405180830381865afa158015610bf6573d5f803e3d5ffd5b505050506040513d601f19601f82011682018060405250810190610c1a919061263a565b90505f8103610c2e575f9350505050610ce5565b5f818783610c3c91906125f3565b84610c479190612665565b610c5191906126d3565b90505f60018483878a60028110610c6b57610c6a612521565b5b6020020151610c7a9190612665565b610c8491906126d3565b868960028110610c9757610c96612521565b5b6020020151610ca691906125f3565b610cb091906125f3565b90505f61271060015483610cc49190612665565b610cce91906126d3565b90508082610cdc91906125f3565b96505050505050505b92915050565b5f838514158015610cfc5750600285105b8015610d085750600284105b610d47576040517f08c379a0000000000000000000000000000000000000000000000000000000008152600401610d3e9061290c565b60405180910390fd5b5f610d5383606461181b565b90505f60026064610d649190612665565b90505f8290505f805b6002811015610dfb575f8a8203610d8657889050610db3565b898214610dac57878260028110610da057610d9f612521565b5b60200201519050610db2565b50610de8565b5b8083610dbf919061292a565b9250600281610dce9190612665565b8685610dda9190612665565b610de491906126d3565b9350505b8080610df39061295d565b915050610d6d565b50600283610e099190612665565b8483610e159190612665565b610e1f91906126d3565b91505f8385610e2e91906126d3565b82610e39919061292a565b90505f808690505f5b60ff811015610efb578192508784836002610e5d9190612665565b610e67919061292a565b610e7191906125f3565b868384610e7e9190612665565b610e88919061292a565b610e9291906126d3565b915082821115610ec45760018383610eaa91906125f3565b11610ebf578198505050505050505050610f37565b610ee8565b60018284610ed291906125f3565b11610ee7578198505050505050505050610f37565b5b8080610ef39061295d565b915050610e42565b506040517f08c379a0000000000000000000000000000000000000000000000000000000008152600401610f2e906129ee565b60405180910390fd5b949350505050565b5f610f48611fd2565b610f515f610958565b815f60028110610f6457610f63612521565b5b602002018181525050610f776001610958565b81600160028110610f8b57610f8a612521565b5b6020020181815250505f83828760028110610fa957610fa8612521565b5b6020020151610fb8919061292a565b90505f610fc787878486610ceb565b90505f600182858960028110610fe057610fdf612521565b5b6020020151610fef91906125f3565b610ff991906125f3565b90505f6127106001548361100d9190612665565b61101791906126d3565b9050808261102591906125f3565b955050505050509392505050565b61103b611fd2565b611043611de9565b5f8311611085576040517f08c379a000000000000000000000000000000000000000000000000000000000815260040161107c90612a56565b60405180910390fd5b5f7f000000000000000000000000000000000000000000000000000000000000000073ffffffffffffffffffffffffffffffffffffffff166318160ddd6040518163ffffffff1660e01b8152600401602060405180830381865afa1580156110ef573d5f803e3d5ffd5b505050506040513d601f19601f82011682018060405250810190611113919061263a565b90505f8111611157576040517f08c379a000000000000000000000000000000000000000000000000000000000815260040161114e90612abe565b60405180910390fd5b5f6111615f610958565b90505f61116e6001610958565b905082868361117d9190612665565b61118791906126d3565b845f6002811061119a57611199612521565b5b6020020181815250508286826111b09190612665565b6111ba91906126d3565b846001600281106111ce576111cd612521565b5b602002018181525050845f600281106111ea576111e9612521565b5b6020020151845f6002811061120257611201612521565b5b60200201511015801561124557508460016002811061122457611223612521565b5b60200201518460016002811061123d5761123c612521565b5b602002015110155b611284576040517f08c379a000000000000000000000000000000000000000000000000000000000815260040161127b9061274d565b60405180910390fd5b7f000000000000000000000000000000000000000000000000000000000000000073ffffffffffffffffffffffffffffffffffffffff16639dc29fac33886040518363ffffffff1660e01b81526004016112df9291906127f3565b5f604051808303815f87803b1580156112f6575f80fd5b505af1158015611308573d5f803e3d5ffd5b505050505f845f600281106113205761131f612521565b5b6020020151111561138e5761138d33855f6002811061134257611341612521565b5b60200201517f000000000000000000000000000000000000000000000000000000000000000073ffffffffffffffffffffffffffffffffffffffff16611eb89092919063ffffffff16565b5b5f846001600281106113a3576113a2612521565b5b602002015111156114125761141133856001600281106113c6576113c5612521565b5b60200201517f000000000000000000000000000000000000000000000000000000000000000073ffffffffffffffffffffffffffffffffffffffff16611eb89092919063ffffffff16565b5b3373ffffffffffffffffffffffffffffffffffffffff167fde47ef46462a3d6a01275c8782d4934bbd81484551ef7de844b0028795421d82858860405161145a92919061281a565b60405180910390a250505061146d611eaf565b92915050565b5f61147c611de9565b60028510801561148c5750600284105b80156114985750838514155b6114d7576040517f08c379a00000000000000000000000000000000000000000000000000000000081526004016114ce9061290c565b60405180910390fd5b5f8311611519576040517f08c379a000000000000000000000000000000000000000000000000000000000815260040161151090612a56565b60405180910390fd5b5f808614611547577f0000000000000000000000000000000000000000000000000000000000000000611569565b7f00000000000000000000000000000000000000000000000000000000000000005b90505f808614611599577f00000000000000000000000000000000000000000000000000000000000000006115bb565b7f00000000000000000000000000000000000000000000000000000000000000005b90506115ea3330878573ffffffffffffffffffffffffffffffffffffffff16611e2d909392919063ffffffff16565b6115f2611fd2565b6115fb5f610958565b815f6002811061160e5761160d612521565b5b6020020181815250506116216001610958565b8160016002811061163557611634612521565b5b6020020181815250505f86828a6002811061165357611652612521565b5b6020020151611662919061292a565b90505f6116718a8a8486610ceb565b9050600181848b6002811061168957611688612521565b5b602002015161169891906125f3565b6116a291906125f3565b95505f612710600154886116b69190612665565b6116c091906126d3565b905080876116ce91906125f3565b965087871015611713576040517f08c379a000000000000000000000000000000000000000000000000000000000815260040161170a9061274d565b60405180910390fd5b61173e33888773ffffffffffffffffffffffffffffffffffffffff16611eb89092919063ffffffff16565b3373ffffffffffffffffffffffffffffffffffffffff167f1474845d885fe24fdac00865837b3e94a48a591bf4704fa0f08c7b8ab9bea5458c8c8c8b60405161178a9493929190612adc565b60405180910390a25050505050506117a0611eaf565b949350505050565b7f000000000000000000000000000000000000000000000000000000000000000081565b6103e8811115611811576040517f08c379a000000000000000000000000000000000000000000000000000000000815260040161180890612b69565b60405180910390fd5b8060018190555050565b5f808360016002811061183157611830612521565b5b6020020151845f6002811061184957611848612521565b5b6020020151611858919061292a565b90505f810361186a575f915050611a22565b5f8190505f60028561187c9190612665565b90505f5b60ff8110156119e6575f839050875f600281106118a05761189f612521565b5b602002015184826118b19190612665565b6118bb91906126d3565b9050876001600281106118d1576118d0612521565b5b602002015184826118e29190612665565b6118ec91906126d3565b90506002806118fb9190612cb6565b8161190691906126d3565b90505f849050816001600261191b919061292a565b6119259190612665565b8560018661193391906125f3565b61193d9190612665565b611947919061292a565b856002846119559190612665565b88876119619190612665565b61196b919061292a565b6119759190612665565b61197f91906126d3565b9450808511156119af576001818661199791906125f3565b116119aa57849650505050505050611a22565b6119d1565b600185826119bd91906125f3565b116119d057849650505050505050611a22565b5b505080806119de9061295d565b915050611880565b506040517f08c379a0000000000000000000000000000000000000000000000000000000008152600401611a1990612d4a565b60405180910390fd5b92915050565b7f000000000000000000000000000000000000000000000000000000000000000081565b61271081565b60015481565b5f611a61611de9565b60028310611aa4576040517f08c379a0000000000000000000000000000000000000000000000000000000008152600401611a9b906128a4565b60405180910390fd5b5f8411611ae6576040517f08c379a0000000000000000000000000000000000000000000000000000000008152600401611add90612a56565b60405180910390fd5b611aee611fd2565b611af75f610958565b815f60028110611b0a57611b09612521565b5b602002018181525050611b1d6001610958565b81600160028110611b3157611b30612521565b5b6020020181815250505f611b4682606461181b565b90505f7f000000000000000000000000000000000000000000000000000000000000000073ffffffffffffffffffffffffffffffffffffffff166318160ddd6040518163ffffffff1660e01b8152600401602060405180830381865afa158015611bb2573d5f803e3d5ffd5b505050506040513d601f19601f82011682018060405250810190611bd6919061263a565b90505f818883611be691906125f3565b84611bf19190612665565b611bfb91906126d3565b905060018382868a60028110611c1457611c13612521565b5b6020020151611c239190612665565b611c2d91906126d3565b858960028110611c4057611c3f612521565b5b6020020151611c4f91906125f3565b611c5991906125f3565b94505f61271060015487611c6d9190612665565b611c7791906126d3565b90508086611c8591906125f3565b955086861015611cca576040517f08c379a0000000000000000000000000000000000000000000000000000000008152600401611cc19061274d565b60405180910390fd5b7f000000000000000000000000000000000000000000000000000000000000000073ffffffffffffffffffffffffffffffffffffffff16639dc29fac338b6040518363ffffffff1660e01b8152600401611d259291906127f3565b5f604051808303815f87803b158015611d3c575f80fd5b505af1158015611d4e573d5f803e3d5ffd5b505050505f808914611d80577f0000000000000000000000000000000000000000000000000000000000000000611da2565b7f00000000000000000000000000000000000000000000000000000000000000005b9050611dcf33888373ffffffffffffffffffffffffffffffffffffffff16611eb89092919063ffffffff16565b505050505050611ddd611eaf565b9392505050565b606481565b60025f5403611e24576040517f3ee5aeb500000000000000000000000000000000000000000000000000000000815260040160405180910390fd5b60025f81905550565b611ea9848573ffffffffffffffffffffffffffffffffffffffff166323b872dd868686604051602401611e6293929190612d68565b604051602081830303815290604052915060e01b6020820180517bffffffffffffffffffffffffffffffffffffffffffffffffffffffff8381831617835250505050611f37565b50505050565b60015f81905550565b611f32838473ffffffffffffffffffffffffffffffffffffffff1663a9059cbb8585604051602401611eeb9291906127f3565b604051602081830303815290604052915060e01b6020820180517bffffffffffffffffffffffffffffffffffffffffffffffffffffffff8381831617835250505050611f37565b505050565b5f8060205f8451602086015f885af180611f56576040513d5f823e3d81fd5b3d92505f519150505f8214611f6f576001811415611f8a565b5f8473ffffffffffffffffffffffffffffffffffffffff163b145b15611fcc57836040517f5274afe7000000000000000000000000000000000000000000000000000000008152600401611fc39190612841565b60405180910390fd5b50505050565b6040518060400160405280600290602082028036833780820191505090505090565b5f604051905090565b5f80fd5b5f80fd5b5f601f19601f8301169050919050565b7f4e487b71000000000000000000000000000000000000000000000000000000005f52604160045260245ffd5b61204b82612005565b810181811067ffffffffffffffff8211171561206a57612069612015565b5b80604052505050565b5f61207c611ff4565b90506120888282612042565b919050565b5f67ffffffffffffffff8211156120a7576120a6612015565b5b602082029050919050565b5f80fd5b5f819050919050565b6120c8816120b6565b81146120d2575f80fd5b50565b5f813590506120e3816120bf565b92915050565b5f6120fb6120f68461208d565b612073565b90508060208402830185811115612115576121146120b2565b5b835b8181101561213e578061212a88826120d5565b845260208401935050602081019050612117565b5050509392505050565b5f82601f83011261215c5761215b612001565b5b60026121698482856120e9565b91505092915050565b5f806060838503121561218857612187611ffd565b5b5f61219585828601612148565b92505060406121a6858286016120d5565b9150509250929050565b6121b9816120b6565b82525050565b5f6020820190506121d25f8301846121b0565b92915050565b5f73ffffffffffffffffffffffffffffffffffffffff82169050919050565b5f819050919050565b5f61221a612215612210846121d8565b6121f7565b6121d8565b9050919050565b5f61222b82612200565b9050919050565b5f61223c82612221565b9050919050565b61224c81612232565b82525050565b5f6020820190506122655f830184612243565b92915050565b5f602082840312156122805761227f611ffd565b5b5f61228d848285016120d5565b91505092915050565b5f80604083850312156122ac576122ab611ffd565b5b5f6122b9858286016120d5565b92505060206122ca858286016120d5565b9150509250929050565b5f805f8060a085870312156122ec576122eb611ffd565b5b5f6122f9878288016120d5565b945050602061230a878288016120d5565b935050604061231b878288016120d5565b925050606061232c87828801612148565b91505092959194509250565b5f805f6060848603121561234f5761234e611ffd565b5b5f61235c868287016120d5565b935050602061236d868287016120d5565b925050604061237e868287016120d5565b9150509250925092565b5f806060838503121561239e5761239d611ffd565b5b5f6123ab858286016120d5565b92505060206123bc85828601612148565b9150509250929050565b5f60029050919050565b5f81905092915050565b5f819050919050565b6123ec816120b6565b82525050565b5f6123fd83836123e3565b60208301905092915050565b5f602082019050919050565b61241e816123c6565b61242881846123d0565b9250612433826123da565b805f5b8381101561246357815161244a87826123f2565b965061245583612409565b925050600181019050612436565b505050505050565b5f60408201905061247e5f830184612415565b92915050565b5f805f806080858703121561249c5761249b611ffd565b5b5f6124a9878288016120d5565b94505060206124ba878288016120d5565b93505060406124cb878288016120d5565b92505060606124dc878288016120d5565b91505092959194509250565b5f6124f282612221565b9050919050565b612502816124e8565b82525050565b5f60208201905061251b5f8301846124f9565b92915050565b7f4e487b71000000000000000000000000000000000000000000000000000000005f52603260045260245ffd5b5f82825260208201905092915050565b7f7a65726f20616d6f756e747300000000000000000000000000000000000000005f82015250565b5f612592600c8361254e565b915061259d8261255e565b602082019050919050565b5f6020820190508181035f8301526125bf81612586565b9050919050565b7f4e487b71000000000000000000000000000000000000000000000000000000005f52601160045260245ffd5b5f6125fd826120b6565b9150612608836120b6565b92508282039050818111156126205761261f6125c6565b5b92915050565b5f81519050612634816120bf565b92915050565b5f6020828403121561264f5761264e611ffd565b5b5f61265c84828501612626565b91505092915050565b5f61266f826120b6565b915061267a836120b6565b9250828202612688816120b6565b9150828204841483151761269f5761269e6125c6565b5b5092915050565b7f4e487b71000000000000000000000000000000000000000000000000000000005f52601260045260245ffd5b5f6126dd826120b6565b91506126e8836120b6565b9250826126f8576126f76126a6565b5b828204905092915050565b7f736c6970706167652065786365656465640000000000000000000000000000005f82015250565b5f61273760118361254e565b915061274282612703565b602082019050919050565b5f6020820190508181035f8301526127648161272b565b9050919050565b7f7a65726f206d696e7400000000000000000000000000000000000000000000005f82015250565b5f61279f60098361254e565b91506127aa8261276b565b602082019050919050565b5f6020820190508181035f8301526127cc81612793565b9050919050565b5f6127dd826121d8565b9050919050565b6127ed816127d3565b82525050565b5f6040820190506128065f8301856127e4565b61281360208301846121b0565b9392505050565b5f60608201905061282d5f830185612415565b61283a60408301846121b0565b9392505050565b5f6020820190506128545f8301846127e4565b92915050565b7f696e76616c696420696e646578000000000000000000000000000000000000005f82015250565b5f61288e600d8361254e565b91506128998261285a565b602082019050919050565b5f6020820190508181035f8301526128bb81612882565b9050919050565b7f696e76616c696420696e646963657300000000000000000000000000000000005f82015250565b5f6128f6600f8361254e565b9150612901826128c2565b602082019050919050565b5f6020820190508181035f830152612923816128ea565b9050919050565b5f612934826120b6565b915061293f836120b6565b9250828201905080821115612957576129566125c6565b5b92915050565b5f612967826120b6565b91507fffffffffffffffffffffffffffffffffffffffffffffffffffffffffffffffff8203612999576129986125c6565b5b600182019050919050565b7f7920646964206e6f7420636f6e766572676500000000000000000000000000005f82015250565b5f6129d860128361254e565b91506129e3826129a4565b602082019050919050565b5f6020820190508181035f830152612a05816129cc565b9050919050565b7f7a65726f20616d6f756e740000000000000000000000000000000000000000005f82015250565b5f612a40600b8361254e565b9150612a4b82612a0c565b602082019050919050565b5f6020820190508181035f830152612a6d81612a34565b9050919050565b7f6e6f206c697175696469747900000000000000000000000000000000000000005f82015250565b5f612aa8600c8361254e565b9150612ab382612a74565b602082019050919050565b5f6020820190508181035f830152612ad581612a9c565b9050919050565b5f608082019050612aef5f8301876121b0565b612afc60208301866121b0565b612b0960408301856121b0565b612b1660608301846121b0565b95945050505050565b7f66656520746f6f206869676800000000000000000000000000000000000000005f82015250565b5f612b53600c8361254e565b9150612b5e82612b1f565b602082019050919050565b5f6020820190508181035f830152612b8081612b47565b9050919050565b5f8160011c9050919050565b5f808291508390505b6001851115612bdc57808604811115612bb857612bb76125c6565b5b6001851615612bc75780820291505b8081029050612bd585612b87565b9450612b9c565b94509492505050565b5f82612bf45760019050612caf565b81612c01575f9050612caf565b8160018114612c175760028114612c2157612c50565b6001915050612caf565b60ff841115612c3357612c326125c6565b5b8360020a915084821115612c4a57612c496125c6565b5b50612caf565b5060208310610133831016604e8410600b8410161715612c855782820a905083811115612c8057612c7f6125c6565b5b612caf565b612c928484846001612b93565b92509050818404811115612ca957612ca86125c6565b5b81810290505b9392505050565b5f612cc0826120b6565b9150612ccb836120b6565b9250612cf87fffffffffffffffffffffffffffffffffffffffffffffffffffffffffffffffff8484612be5565b905092915050565b7f4420646964206e6f7420636f6e766572676500000000000000000000000000005f82015250565b5f612d3460128361254e565b9150612d3f82612d00565b602082019050919050565b5f6020820190508181035f830152612d6181612d28565b9050919050565b5f606082019050612d7b5f8301866127e4565b612d8860208301856127e4565b612d9560408301846121b0565b94935050505056fea264697066735822122044f584f210346331af49476988f6d1166b0ab5226be1b89ea5ecf4b370a3b93d64736f6c63430008140033","linkReferences":{}},"methodIdentifiers":{"A()":"f446c1d0","FEE_DENOMINATOR()":"d73792a9","N_COINS()":"29357750","add_liquidity(uint256[2],uint256)":"0b4c7e4d","balances(uint256)":"4903b0d1","calc_withdraw_one_coin(uint256,uint256)":"4fb08c5e","exchange(uint256,uint256,uint256,uint256)":"5b41b908","fee()":"ddca3f43","getD(uint256[2],uint256)":"7550cfff","get_dy(uint256,uint256,uint256)":"556d6e9f","get_y(uint256,uint256,uint256,uint256[2])":"5087a900","lpToken()":"5fcbd285","remove_liquidity(uint256,uint256[2])":"5b36389c","remove_liquidity_one_coin(uint256,uint256,uint256)":"f1dc3cc9","setFee(uint256)":"69fe0e2d","token0()":"0dfe1681","token1()":"d21220a7","totalSupply()":"18160ddd"},"id":46}