{"abi":[{"type":"constructor","inputs":[{"name":"_token0","type":"address","internalType":"address"},{"name":"_token1","type":"address","internalType":"address"},{"name":"_lpToken","type":"address","internalType":"address"}],"stateMutability":"nonpayable"},{"type":"function","name":"A","inputs":[],"outputs":[{"name":"","type":"uint256","internalType":"uint256"}],"stateMutability":"view"},{"type":"function","name":"FEE_DENOMINATOR","inputs":[],"outputs":[{"name":"","type":"uint256","internalType":"uint256"}],"stateMutability":"view"},{"type":"function","name":"N_COINS","inputs":[],"outputs":[{"name":"","type":"uint256","internalType":"uint256"}],"stateMutability":"view"},{"type":"function","name":"add_liquidity","inputs":[{"name":"amounts","type":"uint256[2]","internalType":"uint256[2]"},{"name":"minMintAmount","type":"uint256","internalType":"uint256"}],"outputs":[{"name":"minted","type":"uint256","internalType":"uint256"}],"stateMutability":"nonpayable"},{"type":"function","name":"balances","inputs":[{"name":"index","type":"uint256","internalType":"uint256"}],"outputs":[{"name":"","type":"uint256","internalType":"uint256"}],"stateMutability":"view"},{"type":"function","name":"calc_withdraw_one_coin","inputs":[{"name":"burnAmount","type":"uint256","internalType":"uint256"},{"name":"i","type":"uint256","internalType":"uint256"}],"outputs":[{"name":"","type":"uint256","internalType":"uint256"}],"stateMutability":"view"},{"type":"function","name":"exchange","inputs":[{"name":"i","type":"uint256","internalType":"uint256"},{"name":"j","type":"uint256","internalType":"uint256"},{"name":"dx","type":"uint256","internalType":"uint256"},{"name":"minDy","type":"uint256","internalType":"uint256"}],"outputs":[{"name":"dy","type":"uint256","internalType":"uint256"}],"stateMutability":"nonpayable"},{"type":"function","name":"fee","inputs":[],"outputs":[{"name":"","type":"uint256","internalType":"uint256"}],"stateMutability":"view"},{"type":"function","name":"getD","inputs":[{"name":"xp","type":"uint256[2]","internalType":"uint256[2]"},{"name":"amp","type":"uint256","internalType":"uint256"}],"outputs":[{"name":"","type":"uint256","internalType":"uint256"}],"stateMutability":"pure"},{"type":"function","name":"get_dy","inputs":[{"name":"i","type":"uint256","internalType":"uint256"},{"name":"j","type":"uint256","internalType":"uint256"},{"name":"dx","type":"uint256","internalType":"uint256"}],"outputs":[{"name":"","type":"uint256","internalType":"uint256"}],"stateMutability":"view"},{"type":"function","name":"get_y","inputs":[{"name":"i","type":"uint256","internalType":"uint256"},{"name":"j","type":"uint256","internalType":"uint256"},{"name":"x","type":"uint256","internalType":"uint256"},{"name":"xp","type":"uint256[2]","internalType":"uint256[2]"}],"outputs":[{"name":"","type":"uint256","internalType":"uint256"}],"stateMutability":"pure"},{"type":"function","name":"lpToken","inputs":[],"outputs":[{"name":"","type":"address","internalType":"contract RadiusLPToken"}],"stateMutability":"view"},{"type":"function","name":"remove_liquidity","inputs":[{"name":"amount","type":"uint256","internalType":"uint256"},{"name":"minAmounts","type":"uint256[2]","internalType":"uint256[2]"}],"outputs":[{"name":"amounts","type":"uint256[2]","internalType":"uint256[2]"}],"stateMutability":"nonpayable"},{"type":"function","name":"remove_liquidity_one_coin","inputs":[{"name":"burnAmount","type":"uint256","internalType":"uint256"},{"name":"i","type":"uint256","internalType":"uint256"},{"name":"minReceived","type":"uint256","internalType":"uint256"}],"outputs":[{"name":"received","type":"uint256","internalType":"uint256"}],"stateMutability":"nonpayable"},{"type":"function","name":"setFee","inputs":[{"name":"_fee","type":"uint256","internalType":"uint256"}],"outputs":[],"stateMutability":"nonpayable"},{"type":"function","name":"token0","inputs":[],"outputs":[{"name":"","type":"address","internalType":"contract IERC20"}],"stateMutability":"view"},{"type":"function","name":"token1","inputs":[],"outputs":[{"name":"","type":"address","internalType":"contract IERC20"}],"stateMutability":"view"},{"type":"function","name":"totalSupply","inputs":[],"outputs":[{"name":"","type":"uint256","internalType":"uint256"}],"stateMutability":"view"},{"type":"event","name":"LiquidityAdded","inputs":[{"name":"provider","type":"address","indexed":true,"internalType":"address"},{"name":"amounts","type":"uint256[2]","indexed":false,"internalType":"uint256[2]"},{"name":"lpMinted","type":"uint256","indexed":false,"internalType":"uint256"}],"anonymous":false},{"type":"event","name":"LiquidityRemoved","inputs":[{"name":"provider","type":"address","indexed":true,"internalType":"address"},{"name":"amounts","type":"uint256[2]","indexed":false,"internalType":"uint256[2]"},{"name":"lpBurned","type":"uint256","indexed":false,"internalType":"uint256"}],"anonymous":false},{"type":"event","name":"TokenSwapped","inputs":[{"name":"sender","type":"address","indexed":true,"internalType":"address"},{"name":"inputIndex","type":"uint256","indexed":false,"internalType":"uint256"},{"name":"outputIndex","type":"uint256","indexed":false,"internalType":"uint256"},{"name":"inputAmount","type":"uint256","indexed":false,"internalType":"uint256"},{"name":"outputAmount","type":"uint256","indexed":false,"internalType":"uint256"}],"anonymous":false},{"type":"error","name":"ReentrancyGuardReentrantCall","inputs":[]},{"type":"error","name":"SafeERC20FailedOperation","inputs":[{"name":"token","type":"address","internalType":"address"}]}],"bytecode":{"object":"0x60e0604052601e60015534801562000015575f80fd5b50604051620033cc380380620033cc83398181016040528101906200003b919062000268565b60015f819055505f73ffffffffffffffffffffffffffffffffffffffff168373ffffffffffffffffffffffffffffffffffffffff1614158015620000ab57505f73ffffffffffffffffffffffffffffffffffffffff168273ffffffffffffffffffffffffffffffffffffffff1614155b620000ed576040517f08c379a0000000000000000000000000000000000000000000000000000000008152600401620000e4906200031f565b60405180910390fd5b5f73ffffffffffffffffffffffffffffffffffffffff168173ffffffffffffffffffffffffffffffffffffffff16036200015e576040517f08c379a000000000000000000000000000000000000000000000000000000000815260040162000155906200038d565b60405180910390fd5b8273ffffffffffffffffffffffffffffffffffffffff1660808173ffffffffffffffffffffffffffffffffffffffff16815250508173ffffffffffffffffffffffffffffffffffffffff1660a08173ffffffffffffffffffffffffffffffffffffffff16815250508073ffffffffffffffffffffffffffffffffffffffff1660c08173ffffffffffffffffffffffffffffffffffffffff1681525050505050620003ad565b5f80fd5b5f73ffffffffffffffffffffffffffffffffffffffff82169050919050565b5f620002328262000207565b9050919050565b620002448162000226565b81146200024f575f80fd5b50565b5f81519050620002628162000239565b92915050565b5f805f6060848603121562000282576200028162000203565b5b5f620002918682870162000252565b9350506020620002a48682870162000252565b9250506040620002b78682870162000252565b9150509250925092565b5f82825260208201905092915050565b7f7a65726f20746f6b656e000000000000000000000000000000000000000000005f82015250565b5f62000307600a83620002c1565b91506200031482620002d1565b602082019050919050565b5f6020820190508181035f8301526200033881620002f9565b9050919050565b7f7a65726f204c50000000000000000000000000000000000000000000000000005f82015250565b5f62000375600783620002c1565b915062000382826200033f565b602082019050919050565b5f6020820190508181035f830152620003a68162000367565b9050919050565b60805160a05160c051612f5a620004725f395f818161073d015281816108660152818161097601528181610bf9015281816110d9015281816112d7015281816117d401528181611b2c0152611cbe01525f818161057001528181610abc0152818161141e01528181611574015281816115c601528181611a5401528181611d4e0152611f7f01525f81816104ea0152818161095101528181610a150152818161139a0152818161159a015281816115ec01528181611d740152611ebb0152612f5a5ff3fe608060405234801561000f575f80fd5b5060043610610114575f3560e01c80635b41b908116100a0578063d21220a71161006f578063d21220a71461032c578063d73792a91461034a578063ddca3f4314610368578063f1dc3cc914610386578063f446c1d0146103b657610114565b80635b41b908146102925780635fcbd285146102c257806369fe0e2d146102e05780637550cfff146102fc57610114565b80634903b0d1116100e75780634903b0d1146101a25780634fb08c5e146101d25780635087a90014610202578063556d6e9f146102325780635b36389c1461026257610114565b80630b4c7e4d146101185780630dfe16811461014857806318160ddd146101665780632935775014610184575b5f80fd5b610132600480360381019061012d91906122f9565b6103d4565b60405161013f9190612346565b60405180910390f35b61015061094f565b60405161015d91906123d9565b60405180910390f35b61016e610973565b60405161017b9190612346565b60405180910390f35b61018c610a06565b6040516101999190612346565b60405180910390f35b6101bc60048036038101906101b791906123f2565b610a0b565b6040516101c99190612346565b60405180910390f35b6101ec60048036038101906101e7919061241d565b610b99565b6040516101f99190612346565b60405180910390f35b61021c6004803603810190610217919061245b565b610d65565b6040516102299190612346565b60405180910390f35b61024c600480360381019061024791906124bf565b610fb9565b6040516102599190612346565b60405180910390f35b61027c6004803603810190610277919061250f565b611084565b60405161028991906125f2565b60405180910390f35b6102ac60048036038101906102a7919061260b565b6114c4565b6040516102b99190612346565b60405180910390f35b6102ca6117d2565b6040516102d7919061268f565b60405180910390f35b6102fa60048036038101906102f591906123f2565b6117f6565b005b610316600480360381019061031191906122f9565b611845565b6040516103239190612346565b60405180910390f35b610334611a52565b60405161034191906123d9565b60405180910390f35b610352611a76565b60405161035f9190612346565b60405180910390f35b610370611a7c565b60405161037d9190612346565b60405180910390f35b6103a0600480360381019061039b91906124bf565b611a82565b6040516103ad9190612346565b60405180910390f35b6103be611dd7565b6040516103cb9190612346565b60405180910390f35b5f6103dd611ddc565b5f835f600281106103f1576103f06126a8565b5b6020020151118061041957505f83600160028110610412576104116126a8565b5b6020020151115b610458576040517f08c379a000000000000000000000000000000000000000000000000000000000815260040161044f9061272f565b60405180910390fd5b610460612159565b6104695f610a0b565b815f6002811061047c5761047b6126a8565b5b60200201818152505061048f6001610a0b565b816001600281106104a3576104a26126a8565b5b6020020181815250505f845f600281106104c0576104bf6126a8565b5b602002015111156105305761052f3330865f600281106104e3576104e26126a8565b5b60200201517f000000000000000000000000000000000000000000000000000000000000000073ffffffffffffffffffffffffffffffffffffffff16611e20909392919063ffffffff16565b5b5f84600160028110610545576105446126a8565b5b602002015111156105b6576105b5333086600160028110610569576105686126a8565b5b60200201517f000000000000000000000000000000000000000000000000000000000000000073ffffffffffffffffffffffffffffffffffffffff16611e20909392919063ffffffff16565b5b6105be612159565b64e8d4a51000825f600281106105d7576105d66126a8565b5b60200201516105e6919061277a565b815f600281106105f9576105f86126a8565b5b60200201818152505064e8d4a510008260016002811061061c5761061b6126a8565b5b602002015161062b919061277a565b8160016002811061063f5761063e6126a8565b5b602002018181525050610650612159565b64e8d4a5100061065f5f610a0b565b610669919061277a565b815f6002811061067c5761067b6126a8565b5b60200201818152505064e8d4a510006106956001610a0b565b61069f919061277a565b816001600281106106b3576106b26126a8565b5b6020020181815250505f80835f600281106106d1576106d06126a8565b5b602002015111806106f957505f836001600281106106f2576106f16126a8565b5b6020020151115b610703575f61070f565b61070e836064611845565b5b90505f61071d836064611845565b90505f820361072e578095506107df565b81828261073b91906127bb565b7f000000000000000000000000000000000000000000000000000000000000000073ffffffffffffffffffffffffffffffffffffffff166318160ddd6040518163ffffffff1660e01b8152600401602060405180830381865afa1580156107a4573d5f803e3d5ffd5b505050506040513d601f19601f820116820180604052508101906107c89190612802565b6107d2919061277a565b6107dc919061285a565b95505b86861015610822576040517f08c379a0000000000000000000000000000000000000000000000000000000008152600401610819906128d4565b60405180910390fd5b5f8611610864576040517f08c379a000000000000000000000000000000000000000000000000000000000815260040161085b9061293c565b60405180910390fd5b7f000000000000000000000000000000000000000000000000000000000000000073ffffffffffffffffffffffffffffffffffffffff166340c10f1933886040518363ffffffff1660e01b81526004016108bf92919061297a565b5f604051808303815f87803b1580156108d6575f80fd5b505af11580156108e8573d5f803e3d5ffd5b505050503373ffffffffffffffffffffffffffffffffffffffff167fd21b84298ed008a28b61a4dbbf84d096d672a0afc1ad254dae0982a1f464206e89886040516109349291906129a1565b60405180910390a25050505050610949611ea2565b92915050565b7f000000000000000000000000000000000000000000000000000000000000000081565b5f7f000000000000000000000000000000000000000000000000000000000000000073ffffffffffffffffffffffffffffffffffffffff166318160ddd6040518163ffffffff1660e01b8152600401602060405180830381865afa1580156109dd573d5f803e3d5ffd5b505050506040513d601f19601f82011682018060405250810190610a019190612802565b905090565b600281565b5f808203610ab2577f000000000000000000000000000000000000000000000000000000000000000073ffffffffffffffffffffffffffffffffffffffff166370a08231306040518263ffffffff1660e01b8152600401610a6c91906129c8565b602060405180830381865afa158015610a87573d5f803e3d5ffd5b505050506040513d601f19601f82011682018060405250810190610aab9190612802565b9050610b94565b60018203610b59577f000000000000000000000000000000000000000000000000000000000000000073ffffffffffffffffffffffffffffffffffffffff166370a08231306040518263ffffffff1660e01b8152600401610b1391906129c8565b602060405180830381865afa158015610b2e573d5f803e3d5ffd5b505050506040513d601f19601f82011682018060405250810190610b529190612802565b9050610b94565b6040517f08c379a0000000000000000000000000000000000000000000000000000000008152600401610b8b90612a2b565b60405180910390fd5b919050565b5f60028210610bdd576040517f08c379a0000000000000000000000000000000000000000000000000000000008152600401610bd490612a2b565b60405180910390fd5b5f610be6611eab565b90505f610bf4826064611845565b90505f7f000000000000000000000000000000000000000000000000000000000000000073ffffffffffffffffffffffffffffffffffffffff166318160ddd6040518163ffffffff1660e01b8152600401602060405180830381865afa158015610c60573d5f803e3d5ffd5b505050506040513d601f19601f82011682018060405250810190610c849190612802565b90505f8103610c98575f9350505050610d5f565b5f818783610ca691906127bb565b84610cb1919061277a565b610cbb919061285a565b90505f60018483878a60028110610cd557610cd46126a8565b5b6020020151610ce4919061277a565b610cee919061285a565b868960028110610d0157610d006126a8565b5b6020020151610d1091906127bb565b610d1a91906127bb565b90505f61271060015483610d2e919061277a565b610d38919061285a565b905064e8d4a510008183610d4c91906127bb565b610d56919061285a565b96505050505050505b92915050565b5f838514158015610d765750600285105b8015610d825750600284105b610dc1576040517f08c379a0000000000000000000000000000000000000000000000000000000008152600401610db890612a93565b60405180910390fd5b5f610dcd836064611845565b90505f60026064610dde919061277a565b90505f8290505f805b6002811015610e75575f8a8203610e0057889050610e2d565b898214610e2657878260028110610e1a57610e196126a8565b5b60200201519050610e2c565b50610e62565b5b8083610e399190612ab1565b9250600281610e48919061277a565b8685610e54919061277a565b610e5e919061285a565b9350505b8080610e6d90612ae4565b915050610de7565b50600283610e83919061277a565b8483610e8f919061277a565b610e99919061285a565b91505f8385610ea8919061285a565b82610eb39190612ab1565b90505f808690505f5b60ff811015610f75578192508784836002610ed7919061277a565b610ee19190612ab1565b610eeb91906127bb565b868384610ef8919061277a565b610f029190612ab1565b610f0c919061285a565b915082821115610f3e5760018383610f2491906127bb565b11610f39578198505050505050505050610fb1565b610f62565b60018284610f4c91906127bb565b11610f61578198505050505050505050610fb1565b5b8080610f6d90612ae4565b915050610ebc565b506040517f08c379a0000000000000000000000000000000000000000000000000000000008152600401610fa890612b75565b60405180910390fd5b949350505050565b5f80610fc3611eab565b90505f64e8d4a5100084610fd7919061277a565b828760028110610fea57610fe96126a8565b5b6020020151610ff99190612ab1565b90505f61100887878486610d65565b90505f600182858960028110611021576110206126a8565b5b602002015161103091906127bb565b61103a91906127bb565b90505f6127106001548361104e919061277a565b611058919061285a565b905064e8d4a51000818361106c91906127bb565b611076919061285a565b955050505050509392505050565b61108c612159565b611094611ddc565b5f83116110d6576040517f08c379a00000000000000000000000000000000000000000000000000000000081526004016110cd90612bdd565b60405180910390fd5b5f7f000000000000000000000000000000000000000000000000000000000000000073ffffffffffffffffffffffffffffffffffffffff166318160ddd6040518163ffffffff1660e01b8152600401602060405180830381865afa158015611140573d5f803e3d5ffd5b505050506040513d601f19601f820116820180604052508101906111649190612802565b90505f81116111a8576040517f08c379a000000000000000000000000000000000000000000000000000000000815260040161119f90612c45565b60405180910390fd5b5f6111b25f610a0b565b90505f6111bf6001610a0b565b90508286836111ce919061277a565b6111d8919061285a565b845f600281106111eb576111ea6126a8565b5b602002018181525050828682611201919061277a565b61120b919061285a565b8460016002811061121f5761121e6126a8565b5b602002018181525050845f6002811061123b5761123a6126a8565b5b6020020151845f60028110611253576112526126a8565b5b602002015110158015611296575084600160028110611275576112746126a8565b5b60200201518460016002811061128e5761128d6126a8565b5b602002015110155b6112d5576040517f08c379a00000000000000000000000000000000000000000000000000000000081526004016112cc906128d4565b60405180910390fd5b7f000000000000000000000000000000000000000000000000000000000000000073ffffffffffffffffffffffffffffffffffffffff16639dc29fac33886040518363ffffffff1660e01b815260040161133092919061297a565b5f604051808303815f87803b158015611347575f80fd5b505af1158015611359573d5f803e3d5ffd5b505050505f845f60028110611371576113706126a8565b5b602002015111156113df576113de33855f60028110611393576113926126a8565b5b60200201517f000000000000000000000000000000000000000000000000000000000000000073ffffffffffffffffffffffffffffffffffffffff1661203f9092919063ffffffff16565b5b5f846001600281106113f4576113f36126a8565b5b60200201511115611463576114623385600160028110611417576114166126a8565b5b60200201517f000000000000000000000000000000000000000000000000000000000000000073ffffffffffffffffffffffffffffffffffffffff1661203f9092919063ffffffff16565b5b3373ffffffffffffffffffffffffffffffffffffffff167fde47ef46462a3d6a01275c8782d4934bbd81484551ef7de844b0028795421d8285886040516114ab9291906129a1565b60405180910390a25050506114be611ea2565b92915050565b5f6114cd611ddc565b6002851080156114dd5750600284105b80156114e95750838514155b611528576040517f08c379a000000000000000000000000000000000000000000000000000000000815260040161151f90612a93565b60405180910390fd5b5f831161156a576040517f08c379a000000000000000000000000000000000000000000000000000000000815260040161156190612bdd565b60405180910390fd5b5f808614611598577f00000000000000000000000000000000000000000000000000000000000000006115ba565b7f00000000000000000000000000000000000000000000000000000000000000005b90505f8086146115ea577f000000000000000000000000000000000000000000000000000000000000000061160c565b7f00000000000000000000000000000000000000000000000000000000000000005b905061163b3330878573ffffffffffffffffffffffffffffffffffffffff16611e20909392919063ffffffff16565b5f611644611eab565b90505f64e8d4a5100087611658919061277a565b828a6002811061166b5761166a6126a8565b5b602002015161167a9190612ab1565b90505f6116898a8a8486610d65565b90505f600182858c600281106116a2576116a16126a8565b5b60200201516116b191906127bb565b6116bb91906127bb565b90505f612710600154836116cf919061277a565b6116d9919061285a565b905064e8d4a5100081836116ed91906127bb565b6116f7919061285a565b97508888101561173c576040517f08c379a0000000000000000000000000000000000000000000000000000000008152600401611733906128d4565b60405180910390fd5b61176733898873ffffffffffffffffffffffffffffffffffffffff1661203f9092919063ffffffff16565b3373ffffffffffffffffffffffffffffffffffffffff167f1474845d885fe24fdac00865837b3e94a48a591bf4704fa0f08c7b8ab9bea5458d8d8d8c6040516117b39493929190612c63565b60405180910390a2505050505050506117ca611ea2565b949350505050565b7f000000000000000000000000000000000000000000000000000000000000000081565b6103e881111561183b576040517f08c379a000000000000000000000000000000000000000000000000000000000815260040161183290612cf0565b60405180910390fd5b8060018190555050565b5f808360016002811061185b5761185a6126a8565b5b6020020151845f60028110611873576118726126a8565b5b60200201516118829190612ab1565b90505f8103611894575f915050611a4c565b5f8190505f6002856118a6919061277a565b90505f5b60ff811015611a10575f839050875f600281106118ca576118c96126a8565b5b602002015184826118db919061277a565b6118e5919061285a565b9050876001600281106118fb576118fa6126a8565b5b6020020151848261190c919061277a565b611916919061285a565b90506002806119259190612e3d565b81611930919061285a565b90505f84905081600160026119459190612ab1565b61194f919061277a565b8560018661195d91906127bb565b611967919061277a565b6119719190612ab1565b8560028461197f919061277a565b888761198b919061277a565b6119959190612ab1565b61199f919061277a565b6119a9919061285a565b9450808511156119d957600181866119c191906127bb565b116119d457849650505050505050611a4c565b6119fb565b600185826119e791906127bb565b116119fa57849650505050505050611a4c565b5b50508080611a0890612ae4565b9150506118aa565b506040517f08c379a0000000000000000000000000000000000000000000000000000000008152600401611a4390612ed1565b60405180910390fd5b92915050565b7f000000000000000000000000000000000000000000000000000000000000000081565b61271081565b60015481565b5f611a8b611ddc565b60028310611ace576040517f08c379a0000000000000000000000000000000000000000000000000000000008152600401611ac590612a2b565b60405180910390fd5b5f8411611b10576040517f08c379a0000000000000000000000000000000000000000000000000000000008152600401611b0790612bdd565b60405180910390fd5b5f611b19611eab565b90505f611b27826064611845565b90505f7f000000000000000000000000000000000000000000000000000000000000000073ffffffffffffffffffffffffffffffffffffffff166318160ddd6040518163ffffffff1660e01b8152600401602060405180830381865afa158015611b93573d5f803e3d5ffd5b505050506040513d601f19601f82011682018060405250810190611bb79190612802565b90505f818883611bc791906127bb565b84611bd2919061277a565b611bdc919061285a565b90505f60018483878b60028110611bf657611bf56126a8565b5b6020020151611c05919061277a565b611c0f919061285a565b868a60028110611c2257611c216126a8565b5b6020020151611c3191906127bb565b611c3b91906127bb565b90505f61271060015483611c4f919061277a565b611c59919061285a565b905064e8d4a510008183611c6d91906127bb565b611c77919061285a565b965087871015611cbc576040517f08c379a0000000000000000000000000000000000000000000000000000000008152600401611cb3906128d4565b60405180910390fd5b7f000000000000000000000000000000000000000000000000000000000000000073ffffffffffffffffffffffffffffffffffffffff16639dc29fac338c6040518363ffffffff1660e01b8152600401611d1792919061297a565b5f604051808303815f87803b158015611d2e575f80fd5b505af1158015611d40573d5f803e3d5ffd5b505050505f808a14611d72577f0000000000000000000000000000000000000000000000000000000000000000611d94565b7f00000000000000000000000000000000000000000000000000000000000000005b9050611dc133898373ffffffffffffffffffffffffffffffffffffffff1661203f9092919063ffffffff16565b50505050505050611dd0611ea2565b9392505050565b606481565b60025f5403611e17576040517f3ee5aeb500000000000000000000000000000000000000000000000000000000815260040160405180910390fd5b60025f81905550565b611e9c848573ffffffffffffffffffffffffffffffffffffffff166323b872dd868686604051602401611e5593929190612eef565b604051602081830303815290604052915060e01b6020820180517bffffffffffffffffffffffffffffffffffffffffffffffffffffffff83818316178352505050506120be565b50505050565b60015f81905550565b611eb3612159565b64e8d4a510007f000000000000000000000000000000000000000000000000000000000000000073ffffffffffffffffffffffffffffffffffffffff166370a08231306040518263ffffffff1660e01b8152600401611f1291906129c8565b602060405180830381865afa158015611f2d573d5f803e3d5ffd5b505050506040513d601f19601f82011682018060405250810190611f519190612802565b611f5b919061277a565b815f60028110611f6e57611f6d6126a8565b5b60200201818152505064e8d4a510007f000000000000000000000000000000000000000000000000000000000000000073ffffffffffffffffffffffffffffffffffffffff166370a08231306040518263ffffffff1660e01b8152600401611fd691906129c8565b602060405180830381865afa158015611ff1573d5f803e3d5ffd5b505050506040513d601f19601f820116820180604052508101906120159190612802565b61201f919061277a565b81600160028110612033576120326126a8565b5b60200201818152505090565b6120b9838473ffffffffffffffffffffffffffffffffffffffff1663a9059cbb858560405160240161207292919061297a565b604051602081830303815290604052915060e01b6020820180517bffffffffffffffffffffffffffffffffffffffffffffffffffffffff83818316178352505050506120be565b505050565b5f8060205f8451602086015f885af1806120dd576040513d5f823e3d81fd5b3d92505f519150505f82146120f6576001811415612111565b5f8473ffffffffffffffffffffffffffffffffffffffff163b145b1561215357836040517f5274afe700000000000000000000000000000000000000000000000000000000815260040161214a91906129c8565b60405180910390fd5b50505050565b6040518060400160405280600290602082028036833780820191505090505090565b5f604051905090565b5f80fd5b5f80fd5b5f601f19601f8301169050919050565b7f4e487b71000000000000000000000000000000000000000000000000000000005f52604160045260245ffd5b6121d28261218c565b810181811067ffffffffffffffff821117156121f1576121f061219c565b5b80604052505050565b5f61220361217b565b905061220f82826121c9565b919050565b5f67ffffffffffffffff82111561222e5761222d61219c565b5b602082029050919050565b5f80fd5b5f819050919050565b61224f8161223d565b8114612259575f80fd5b50565b5f8135905061226a81612246565b92915050565b5f61228261227d84612214565b6121fa565b9050806020840283018581111561229c5761229b612239565b5b835b818110156122c557806122b1888261225c565b84526020840193505060208101905061229e565b5050509392505050565b5f82601f8301126122e3576122e2612188565b5b60026122f0848285612270565b91505092915050565b5f806060838503121561230f5761230e612184565b5b5f61231c858286016122cf565b925050604061232d8582860161225c565b9150509250929050565b6123408161223d565b82525050565b5f6020820190506123595f830184612337565b92915050565b5f73ffffffffffffffffffffffffffffffffffffffff82169050919050565b5f819050919050565b5f6123a161239c6123978461235f565b61237e565b61235f565b9050919050565b5f6123b282612387565b9050919050565b5f6123c3826123a8565b9050919050565b6123d3816123b9565b82525050565b5f6020820190506123ec5f8301846123ca565b92915050565b5f6020828403121561240757612406612184565b5b5f6124148482850161225c565b91505092915050565b5f806040838503121561243357612432612184565b5b5f6124408582860161225c565b92505060206124518582860161225c565b9150509250929050565b5f805f8060a0858703121561247357612472612184565b5b5f6124808782880161225c565b94505060206124918782880161225c565b93505060406124a28782880161225c565b92505060606124b3878288016122cf565b91505092959194509250565b5f805f606084860312156124d6576124d5612184565b5b5f6124e38682870161225c565b93505060206124f48682870161225c565b92505060406125058682870161225c565b9150509250925092565b5f806060838503121561252557612524612184565b5b5f6125328582860161225c565b9250506020612543858286016122cf565b9150509250929050565b5f60029050919050565b5f81905092915050565b5f819050919050565b6125738161223d565b82525050565b5f612584838361256a565b60208301905092915050565b5f602082019050919050565b6125a58161254d565b6125af8184612557565b92506125ba82612561565b805f5b838110156125ea5781516125d18782612579565b96506125dc83612590565b9250506001810190506125bd565b505050505050565b5f6040820190506126055f83018461259c565b92915050565b5f805f806080858703121561262357612622612184565b5b5f6126308782880161225c565b94505060206126418782880161225c565b93505060406126528782880161225c565b92505060606126638782880161225c565b91505092959194509250565b5f612679826123a8565b9050919050565b6126898161266f565b82525050565b5f6020820190506126a25f830184612680565b92915050565b7f4e487b71000000000000000000000000000000000000000000000000000000005f52603260045260245ffd5b5f82825260208201905092915050565b7f7a65726f20616d6f756e747300000000000000000000000000000000000000005f82015250565b5f612719600c836126d5565b9150612724826126e5565b602082019050919050565b5f6020820190508181035f8301526127468161270d565b9050919050565b7f4e487b71000000000000000000000000000000000000000000000000000000005f52601160045260245ffd5b5f6127848261223d565b915061278f8361223d565b925082820261279d8161223d565b915082820484148315176127b4576127b361274d565b5b5092915050565b5f6127c58261223d565b91506127d08361223d565b92508282039050818111156127e8576127e761274d565b5b92915050565b5f815190506127fc81612246565b92915050565b5f6020828403121561281757612816612184565b5b5f612824848285016127ee565b91505092915050565b7f4e487b71000000000000000000000000000000000000000000000000000000005f52601260045260245ffd5b5f6128648261223d565b915061286f8361223d565b92508261287f5761287e61282d565b5b828204905092915050565b7f736c6970706167652065786365656465640000000000000000000000000000005f82015250565b5f6128be6011836126d5565b91506128c98261288a565b602082019050919050565b5f6020820190508181035f8301526128eb816128b2565b9050919050565b7f7a65726f206d696e7400000000000000000000000000000000000000000000005f82015250565b5f6129266009836126d5565b9150612931826128f2565b602082019050919050565b5f6020820190508181035f8301526129538161291a565b9050919050565b5f6129648261235f565b9050919050565b6129748161295a565b82525050565b5f60408201905061298d5f83018561296b565b61299a6020830184612337565b9392505050565b5f6060820190506129b45f83018561259c565b6129c16040830184612337565b9392505050565b5f6020820190506129db5f83018461296b565b92915050565b7f696e76616c696420696e646578000000000000000000000000000000000000005f82015250565b5f612a15600d836126d5565b9150612a20826129e1565b602082019050919050565b5f6020820190508181035f830152612a4281612a09565b9050919050565b7f696e76616c696420696e646963657300000000000000000000000000000000005f82015250565b5f612a7d600f836126d5565b9150612a8882612a49565b602082019050919050565b5f6020820190508181035f830152612aaa81612a71565b9050919050565b5f612abb8261223d565b9150612ac68361223d565b9250828201905080821115612ade57612add61274d565b5b92915050565b5f612aee8261223d565b91507fffffffffffffffffffffffffffffffffffffffffffffffffffffffffffffffff8203612b2057612b1f61274d565b5b600182019050919050565b7f7920646964206e6f7420636f6e766572676500000000000000000000000000005f82015250565b5f612b5f6012836126d5565b9150612b6a82612b2b565b602082019050919050565b5f6020820190508181035f830152612b8c81612b53565b9050919050565b7f7a65726f20616d6f756e740000000000000000000000000000000000000000005f82015250565b5f612bc7600b836126d5565b9150612bd282612b93565b602082019050919050565b5f6020820190508181035f830152612bf481612bbb565b9050919050565b7f6e6f206c697175696469747900000000000000000000000000000000000000005f82015250565b5f612c2f600c836126d5565b9150612c3a82612bfb565b602082019050919050565b5f6020820190508181035f830152612c5c81612c23565b9050919050565b5f608082019050612c765f830187612337565b612c836020830186612337565b612c906040830185612337565b612c9d6060830184612337565b95945050505050565b7f66656520746f6f206869676800000000000000000000000000000000000000005f82015250565b5f612cda600c836126d5565b9150612ce582612ca6565b602082019050919050565b5f6020820190508181035f830152612d0781612cce565b9050919050565b5f8160011c9050919050565b5f808291508390505b6001851115612d6357808604811115612d3f57612d3e61274d565b5b6001851615612d4e5780820291505b8081029050612d5c85612d0e565b9450612d23565b94509492505050565b5f82612d7b5760019050612e36565b81612d88575f9050612e36565b8160018114612d9e5760028114612da857612dd7565b6001915050612e36565b60ff841115612dba57612db961274d565b5b8360020a915084821115612dd157612dd061274d565b5b50612e36565b5060208310610133831016604e8410600b8410161715612e0c5782820a905083811115612e0757612e0661274d565b5b612e36565b612e198484846001612d1a565b92509050818404811115612e3057612e2f61274d565b5b81810290505b9392505050565b5f612e478261223d565b9150612e528361223d565b9250612e7f7fffffffffffffffffffffffffffffffffffffffffffffffffffffffffffffffff8484612d6c565b905092915050565b7f4420646964206e6f7420636f6e766572676500000000000000000000000000005f82015250565b5f612ebb6012836126d5565b9150612ec682612e87565b602082019050919050565b5f6020820190508181035f830152612ee881612eaf565b9050919050565b5f606082019050612f025f83018661296b565b612f0f602083018561296b565b612f1c6040830184612337565b94935050505056fea2646970667358221220cbba390c70bb0ecbd3a79ee48fb43ecde83b79952f8be80fdd8e1f44466d36bc64736f6c63430008140033","linkReferences":{}},"methodIdentifiers":{"A()":"f446c1d0","FEE_DENOMINATOR()":"d73792a9","N_COINS()":"29357750","add_liquidity(uint256[2],uint256)":"0b4c7e4d","balances(uint256)":"4903b0d1","calc_withdraw_one_coin(uint256,uint256)":"4fb08c5e","exchange(uint256,uint256,uint256,uint256)":"5b41b908","fee()":"ddca3f43","getD(uint256[2],uint256)":"7550cfff","get_dy(uint256,uint256,uint256)":"556d6e9f","get_y(uint256,uint256,uint256,uint256[2])":"5087a900","lpToken()":"5fcbd285","remove_liquidity(uint256,uint256[2])":"5b36389c","remove_liquidity_one_coin(uint256,uint256,uint256)":"f1dc3cc9","setFee(uint256)":"69fe0e2d","token0()":"0dfe1681","token1()":"d21220a7","totalSupply()":"18160ddd"},"id":46}