{"abi":[{"type":"constructor","inputs":[{"name":"_token0","type":"address","internalType":"address"},{"name":"_token1","type":"address","internalType":"address"},{"name":"_lpToken","type":"address","internalType":"address"}],"stateMutability":"nonpayable"},{"type":"function","name":"A","inputs":[],"outputs":[{"name":"","type":"uint256","internalType":"uint256"}],"stateMutability":"view"},{"type":"function","name":"FEE_DENOMINATOR","inputs":[],"outputs":[{"name":"","type":"uint256","internalType":"uint256"}],"stateMutability":"view"},{"type":"function","name":"N_COINS","inputs":[],"outputs":[{"name":"","type":"uint256","internalType":"uint256"}],"stateMutability":"view"},{"type":"function","name":"add_liquidity","inputs":[{"name":"amounts","type":"uint256[2]","internalType":"uint256[2]"},{"name":"minMintAmount","type":"uint256","internalType":"uint256"}],"outputs":[{"name":"minted","type":"uint256","internalType":"uint256"}],"stateMutability":"nonpayable"},{"type":"function","name":"balances","inputs":[{"name":"index","type":"uint256","internalType":"uint256"}],"outputs":[{"name":"","type":"uint256","internalType":"uint256"}],"stateMutability":"view"},{"type":"function","name":"calc_withdraw_one_coin","inputs":[{"name":"burnAmount","type":"uint256","internalType":"uint256"},{"name":"i","type":"uint256","internalType":"uint256"}],"outputs":[{"name":"","type":"uint256","internalType":"uint256"}],"stateMutability":"view"},{"type":"function","name":"exchange","inputs":[{"name":"i","type":"uint256","internalType":"uint256"},{"name":"j","type":"uint256","internalType":"uint256"},{"name":"dx","type":"uint256","internalType":"uint256"},{"name":"minDy","type":"uint256","internalType":"uint256"}],"outputs":[{"name":"dy","type":"uint256","internalType":"uint256"}],"stateMutability":"nonpayable"},{"type":"function","name":"fee","inputs":[],"outputs":[{"name":"","type":"uint256","internalType":"uint256"}],"stateMutability":"view"},{"type":"function","name":"getD","inputs":[{"name":"xp","type":"uint256[2]","internalType":"uint256[2]"},{"name":"amp","type":"uint256","internalType":"uint256"}],"outputs":[{"name":"","type":"uint256","internalType":"uint256"}],"stateMutability":"pure"},{"type":"function","name":"get_dy","inputs":[{"name":"i","type":"uint256","internalType":"uint256"},{"name":"j","type":"uint256","internalType":"uint256"},{"name":"dx","type":"uint256","internalType":"uint256"}],"outputs":[{"name":"","type":"uint256","internalType":"uint256"}],"stateMutability":"view"},{"type":"function","name":"get_y","inputs":[{"name":"i","type":"uint256","internalType":"uint256"},{"name":"j","type":"uint256","internalType":"uint256"},{"name":"x","type":"uint256","internalType":"uint256"},{"name":"xp","type":"uint256[2]","internalType":"uint256[2]"}],"outputs":[{"name":"","type":"uint256","internalType":"uint256"}],"stateMutability":"pure"},{"type":"function","name":"lpToken","inputs":[],"outputs":[{"name":"","type":"address","internalType":"contract RadiusLPToken"}],"stateMutability":"view"},{"type":"function","name":"owner","inputs":[],"outputs":[{"name":"","type":"address","internalType":"address"}],"stateMutability":"view"},{"type":"function","name":"remove_liquidity","inputs":[{"name":"amount","type":"uint256","internalType":"uint256"},{"name":"minAmounts","type":"uint256[2]","internalType":"uint256[2]"}],"outputs":[{"name":"amounts","type":"uint256[2]","internalType":"uint256[2]"}],"stateMutability":"nonpayable"},{"type":"function","name":"remove_liquidity_one_coin","inputs":[{"name":"burnAmount","type":"uint256","internalType":"uint256"},{"name":"i","type":"uint256","internalType":"uint256"},{"name":"minReceived","type":"uint256","internalType":"uint256"}],"outputs":[{"name":"received","type":"uint256","internalType":"uint256"}],"stateMutability":"nonpayable"},{"type":"function","name":"renounceOwnership","inputs":[],"outputs":[],"stateMutability":"nonpayable"},{"type":"function","name":"setFee","inputs":[{"name":"_fee","type":"uint256","internalType":"uint256"}],"outputs":[],"stateMutability":"nonpayable"},{"type":"function","name":"token0","inputs":[],"outputs":[{"name":"","type":"address","internalType":"contract IERC20"}],"stateMutability":"view"},{"type":"function","name":"token1","inputs":[],"outputs":[{"name":"","type":"address","internalType":"contract IERC20"}],"stateMutability":"view"},{"type":"function","name":"totalSupply","inputs":[],"outputs":[{"name":"","type":"uint256","internalType":"uint256"}],"stateMutability":"view"},{"type":"function","name":"transferOwnership","inputs":[{"name":"newOwner","type":"address","internalType":"address"}],"outputs":[],"stateMutability":"nonpayable"},{"type":"event","name":"LiquidityAdded","inputs":[{"name":"provider","type":"address","indexed":true,"internalType":"address"},{"name":"amounts","type":"uint256[2]","indexed":false,"internalType":"uint256[2]"},{"name":"lpMinted","type":"uint256","indexed":false,"internalType":"uint256"}],"anonymous":false},{"type":"event","name":"LiquidityRemoved","inputs":[{"name":"provider","type":"address","indexed":true,"internalType":"address"},{"name":"amounts","type":"uint256[2]","indexed":false,"internalType":"uint256[2]"},{"name":"lpBurned","type":"uint256","indexed":false,"internalType":"uint256"}],"anonymous":false},{"type":"event","name":"OwnershipTransferred","inputs":[{"name":"previousOwner","type":"address","indexed":true,"internalType":"address"},{"name":"newOwner","type":"address","indexed":true,"internalType":"address"}],"anonymous":false},{"type":"event","name":"TokenSwapped","inputs":[{"name":"sender","type":"address","indexed":true,"internalType":"address"},{"name":"inputIndex","type":"uint256","indexed":false,"internalType":"uint256"},{"name":"outputIndex","type":"uint256","indexed":false,"internalType":"uint256"},{"name":"inputAmount","type":"uint256","indexed":false,"internalType":"uint256"},{"name":"outputAmount","type":"uint256","indexed":false,"internalType":"uint256"}],"anonymous":false},{"type":"error","name":"OwnableInvalidOwner","inputs":[{"name":"owner","type":"address","internalType":"address"}]},{"type":"error","name":"OwnableUnauthorizedAccount","inputs":[{"name":"account","type":"address","internalType":"address"}]},{"type":"error","name":"ReentrancyGuardReentrantCall","inputs":[]},{"type":"error","name":"SafeERC20FailedOperation","inputs":[{"name":"token","type":"address","internalType":"address"}]}],"bytecode":{"object":"0x60e0604052601e60025534801562000015575f80fd5b5060405162003c6f38038062003c6f83398181016040528101906200003b9190620003b1565b3360015f819055505f73ffffffffffffffffffffffffffffffffffffffff168173ffffffffffffffffffffffffffffffffffffffff1603620000b6575f6040517f1e4fbdf7000000000000000000000000000000000000000000000000000000008152600401620000ad91906200041b565b60405180910390fd5b620000c7816200028960201b60201c565b505f73ffffffffffffffffffffffffffffffffffffffff168373ffffffffffffffffffffffffffffffffffffffff16141580156200013157505f73ffffffffffffffffffffffffffffffffffffffff168273ffffffffffffffffffffffffffffffffffffffff1614155b62000173576040517f08c379a00000000000000000000000000000000000000000000000000000000081526004016200016a9062000494565b60405180910390fd5b5f73ffffffffffffffffffffffffffffffffffffffff168173ffffffffffffffffffffffffffffffffffffffff1603620001e4576040517f08c379a0000000000000000000000000000000000000000000000000000000008152600401620001db9062000502565b60405180910390fd5b8273ffffffffffffffffffffffffffffffffffffffff1660808173ffffffffffffffffffffffffffffffffffffffff16815250508173ffffffffffffffffffffffffffffffffffffffff1660a08173ffffffffffffffffffffffffffffffffffffffff16815250508073ffffffffffffffffffffffffffffffffffffffff1660c08173ffffffffffffffffffffffffffffffffffffffff168152505050505062000522565b5f60015f9054906101000a900473ffffffffffffffffffffffffffffffffffffffff1690508160015f6101000a81548173ffffffffffffffffffffffffffffffffffffffff021916908373ffffffffffffffffffffffffffffffffffffffff1602179055508173ffffffffffffffffffffffffffffffffffffffff168173ffffffffffffffffffffffffffffffffffffffff167f8be0079c531659141344cd1fd0a4f28419497f9722a3daafe3b4186f6b6457e060405160405180910390a35050565b5f80fd5b5f73ffffffffffffffffffffffffffffffffffffffff82169050919050565b5f6200037b8262000350565b9050919050565b6200038d816200036f565b811462000398575f80fd5b50565b5f81519050620003ab8162000382565b92915050565b5f805f60608486031215620003cb57620003ca6200034c565b5b5f620003da868287016200039b565b9350506020620003ed868287016200039b565b925050604062000400868287016200039b565b9150509250925092565b62000415816200036f565b82525050565b5f602082019050620004305f8301846200040a565b92915050565b5f82825260208201905092915050565b7f7a65726f20746f6b656e000000000000000000000000000000000000000000005f82015250565b5f6200047c600a8362000436565b9150620004898262000446565b602082019050919050565b5f6020820190508181035f830152620004ad816200046e565b9050919050565b7f7a65726f204c50000000000000000000000000000000000000000000000000005f82015250565b5f620004ea60078362000436565b9150620004f782620004b4565b602082019050919050565b5f6020820190508181035f8301526200051b81620004dc565b9050919050565b60805160a05160c051613688620005e75f395f81816108d2015281816109fb01528181610b0d01528181610d90015281816113500152818161154e01528181611ab201528181611e4d015261206401525f81816105d501528181610c5301528181611695015281816117eb0152818161183d01528181611d75015281816120f401526123a901525f818161054f01528181610ae801528181610bac0152818161161101528181611811015281816118630152818161211a01526122e501526136885ff3fe608060405234801561000f575f80fd5b5060043610610135575f3560e01c80635fcbd285116100b6578063d21220a71161007a578063d21220a714610375578063d73792a914610393578063ddca3f43146103b1578063f1dc3cc9146103cf578063f2fde38b146103ff578063f446c1d01461041b57610135565b80635fcbd285146102e357806369fe0e2d14610301578063715018a61461031d5780637550cfff146103275780638da5cb5b1461035757610135565b80634fb08c5e116100fd5780634fb08c5e146101f35780635087a90014610223578063556d6e9f146102535780635b36389c146102835780635b41b908146102b357610135565b80630b4c7e4d146101395780630dfe16811461016957806318160ddd1461018757806329357750146101a55780634903b0d1146101c3575b5f80fd5b610153600480360381019061014e9190612874565b610439565b60405161016091906128c1565b60405180910390f35b610171610ae6565b60405161017e9190612954565b60405180910390f35b61018f610b0a565b60405161019c91906128c1565b60405180910390f35b6101ad610b9d565b6040516101ba91906128c1565b60405180910390f35b6101dd60048036038101906101d8919061296d565b610ba2565b6040516101ea91906128c1565b60405180910390f35b61020d60048036038101906102089190612998565b610d30565b60405161021a91906128c1565b60405180910390f35b61023d600480360381019061023891906129d6565b610f3f565b60405161024a91906128c1565b60405180910390f35b61026d60048036038101906102689190612a3a565b611193565b60405161027a91906128c1565b60405180910390f35b61029d60048036038101906102989190612a8a565b6112fb565b6040516102aa9190612b6d565b60405180910390f35b6102cd60048036038101906102c89190612b86565b61173b565b6040516102da91906128c1565b60405180910390f35b6102eb611ab0565b6040516102f89190612c0a565b60405180910390f35b61031b6004803603810190610316919061296d565b611ad4565b005b610325611b2b565b005b610341600480360381019061033c9190612874565b611b3e565b60405161034e91906128c1565b60405180910390f35b61035f611d4b565b60405161036c9190612c43565b60405180910390f35b61037d611d73565b60405161038a9190612954565b60405180910390f35b61039b611d97565b6040516103a891906128c1565b60405180910390f35b6103b9611d9d565b6040516103c691906128c1565b60405180910390f35b6103e960048036038101906103e49190612a3a565b611da3565b6040516103f691906128c1565b60405180910390f35b61041960048036038101906104149190612c86565b61217d565b005b610423612201565b60405161043091906128c1565b60405180910390f35b5f610442612206565b5f835f6002811061045657610455612cb1565b5b6020020151118061047e57505f8360016002811061047757610476612cb1565b5b6020020151115b6104bd576040517f08c379a00000000000000000000000000000000000000000000000000000000081526004016104b490612d38565b60405180910390fd5b6104c56126d4565b6104ce5f610ba2565b815f600281106104e1576104e0612cb1565b5b6020020181815250506104f46001610ba2565b8160016002811061050857610507612cb1565b5b6020020181815250505f845f6002811061052557610524612cb1565b5b60200201511115610595576105943330865f6002811061054857610547612cb1565b5b60200201517f000000000000000000000000000000000000000000000000000000000000000073ffffffffffffffffffffffffffffffffffffffff1661224a909392919063ffffffff16565b5b5f846001600281106105aa576105a9612cb1565b5b6020020151111561061b5761061a3330866001600281106105ce576105cd612cb1565b5b60200201517f000000000000000000000000000000000000000000000000000000000000000073ffffffffffffffffffffffffffffffffffffffff1661224a909392919063ffffffff16565b5b5f815f6002811061062f5761062e612cb1565b5b602002015161063d5f610ba2565b6106479190612d83565b90505f8260016002811061065e5761065d612cb1565b5b602002015161066d6001610ba2565b6106779190612d83565b90505f82118061068657505f81115b6106c5576040517f08c379a00000000000000000000000000000000000000000000000000000000081526004016106bc90612e00565b60405180910390fd5b6106cd6126d4565b64e8d4a51000845f600281106106e6576106e5612cb1565b5b60200201516106f59190612e1e565b815f6002811061070857610707612cb1565b5b60200201818152505064e8d4a510008460016002811061072b5761072a612cb1565b5b602002015161073a9190612e1e565b8160016002811061074e5761074d612cb1565b5b60200201818152505061075f6126d4565b64e8d4a5100061076e5f610ba2565b6107789190612e1e565b815f6002811061078b5761078a612cb1565b5b60200201818152505064e8d4a510006107a46001610ba2565b6107ae9190612e1e565b816001600281106107c2576107c1612cb1565b5b6020020181815250505f80835f600281106107e0576107df612cb1565b5b6020020151118061080857505f8360016002811061080157610800612cb1565b5b6020020151115b610812575f61081e565b61081d836064611b3e565b5b90505f81118061086757505f825f6002811061083d5761083c612cb1565b5b602002015111801561086657505f8260016002811061085f5761085e612cb1565b5b6020020151115b5b6108a6576040517f08c379a000000000000000000000000000000000000000000000000000000000815260040161089d90612ecf565b60405180910390fd5b5f6108b2836064611b3e565b90505f82036108c357809750610974565b8182826108d09190612d83565b7f000000000000000000000000000000000000000000000000000000000000000073ffffffffffffffffffffffffffffffffffffffff166318160ddd6040518163ffffffff1660e01b8152600401602060405180830381865afa158015610939573d5f803e3d5ffd5b505050506040513d601f19601f8201168201806040525081019061095d9190612f01565b6109679190612e1e565b6109719190612f59565b97505b888810156109b7576040517f08c379a00000000000000000000000000000000000000000000000000000000081526004016109ae90612fd3565b60405180910390fd5b5f88116109f9576040517f08c379a00000000000000000000000000000000000000000000000000000000081526004016109f09061303b565b60405180910390fd5b7f000000000000000000000000000000000000000000000000000000000000000073ffffffffffffffffffffffffffffffffffffffff166340c10f19338a6040518363ffffffff1660e01b8152600401610a54929190613059565b5f604051808303815f87803b158015610a6b575f80fd5b505af1158015610a7d573d5f803e3d5ffd5b505050503373ffffffffffffffffffffffffffffffffffffffff167fd21b84298ed008a28b61a4dbbf84d096d672a0afc1ad254dae0982a1f464206e8b8a604051610ac9929190613080565b60405180910390a250505050505050610ae06122cc565b92915050565b7f000000000000000000000000000000000000000000000000000000000000000081565b5f7f000000000000000000000000000000000000000000000000000000000000000073ffffffffffffffffffffffffffffffffffffffff166318160ddd6040518163ffffffff1660e01b8152600401602060405180830381865afa158015610b74573d5f803e3d5ffd5b505050506040513d601f19601f82011682018060405250810190610b989190612f01565b905090565b600281565b5f808203610c49577f000000000000000000000000000000000000000000000000000000000000000073ffffffffffffffffffffffffffffffffffffffff166370a08231306040518263ffffffff1660e01b8152600401610c039190612c43565b602060405180830381865afa158015610c1e573d5f803e3d5ffd5b505050506040513d601f19601f82011682018060405250810190610c429190612f01565b9050610d2b565b60018203610cf0577f000000000000000000000000000000000000000000000000000000000000000073ffffffffffffffffffffffffffffffffffffffff166370a08231306040518263ffffffff1660e01b8152600401610caa9190612c43565b602060405180830381865afa158015610cc5573d5f803e3d5ffd5b505050506040513d601f19601f82011682018060405250810190610ce99190612f01565b9050610d2b565b6040517f08c379a0000000000000000000000000000000000000000000000000000000008152600401610d22906130f1565b60405180910390fd5b919050565b5f60028210610d74576040517f08c379a0000000000000000000000000000000000000000000000000000000008152600401610d6b906130f1565b60405180910390fd5b5f610d7d6122d5565b90505f610d8b826064611b3e565b90505f7f000000000000000000000000000000000000000000000000000000000000000073ffffffffffffffffffffffffffffffffffffffff166318160ddd6040518163ffffffff1660e01b8152600401602060405180830381865afa158015610df7573d5f803e3d5ffd5b505050506040513d601f19601f82011682018060405250810190610e1b9190612f01565b90505f8103610e2f575f9350505050610f39565b80861115610e72576040517f08c379a0000000000000000000000000000000000000000000000000000000008152600401610e6990613159565b60405180910390fd5b5f818783610e809190612d83565b84610e8b9190612e1e565b610e959190612f59565b90505f60018483878a60028110610eaf57610eae612cb1565b5b6020020151610ebe9190612e1e565b610ec89190612f59565b868960028110610edb57610eda612cb1565b5b6020020151610eea9190612d83565b610ef49190612d83565b90505f61271060025483610f089190612e1e565b610f129190612f59565b905064e8d4a510008183610f269190612d83565b610f309190612f59565b96505050505050505b92915050565b5f838514158015610f505750600285105b8015610f5c5750600284105b610f9b576040517f08c379a0000000000000000000000000000000000000000000000000000000008152600401610f92906131c1565b60405180910390fd5b5f610fa7836064611b3e565b90505f60026064610fb89190612e1e565b90505f8290505f805b600281101561104f575f8a8203610fda57889050611007565b89821461100057878260028110610ff457610ff3612cb1565b5b60200201519050611006565b5061103c565b5b808361101391906131df565b92506002816110229190612e1e565b868561102e9190612e1e565b6110389190612f59565b9350505b808061104790613212565b915050610fc1565b5060028361105d9190612e1e565b84836110699190612e1e565b6110739190612f59565b91505f83856110829190612f59565b8261108d91906131df565b90505f808690505f5b60ff81101561114f5781925087848360026110b19190612e1e565b6110bb91906131df565b6110c59190612d83565b8683846110d29190612e1e565b6110dc91906131df565b6110e69190612f59565b91508282111561111857600183836110fe9190612d83565b1161111357819850505050505050505061118b565b61113c565b600182846111269190612d83565b1161113b57819850505050505050505061118b565b5b808061114790613212565b915050611096565b506040517f08c379a0000000000000000000000000000000000000000000000000000000008152600401611182906132a3565b60405180910390fd5b949350505050565b5f6002841080156111a45750600283105b80156111b05750828414155b6111ef576040517f08c379a00000000000000000000000000000000000000000000000000000000081526004016111e6906131c1565b60405180910390fd5b5f8211611231576040517f08c379a00000000000000000000000000000000000000000000000000000000081526004016112289061330b565b60405180910390fd5b5f61123a6122d5565b90505f64e8d4a510008461124e9190612e1e565b82876002811061126157611260612cb1565b5b602002015161127091906131df565b90505f61127f87878486610f3f565b90505f60018285896002811061129857611297612cb1565b5b60200201516112a79190612d83565b6112b19190612d83565b90505f612710600254836112c59190612e1e565b6112cf9190612f59565b905064e8d4a5100081836112e39190612d83565b6112ed9190612f59565b955050505050509392505050565b6113036126d4565b61130b612206565b5f831161134d576040517f08c379a00000000000000000000000000000000000000000000000000000000081526004016113449061330b565b60405180910390fd5b5f7f000000000000000000000000000000000000000000000000000000000000000073ffffffffffffffffffffffffffffffffffffffff166318160ddd6040518163ffffffff1660e01b8152600401602060405180830381865afa1580156113b7573d5f803e3d5ffd5b505050506040513d601f19601f820116820180604052508101906113db9190612f01565b90505f811161141f576040517f08c379a000000000000000000000000000000000000000000000000000000000815260040161141690613373565b60405180910390fd5b5f6114295f610ba2565b90505f6114366001610ba2565b90508286836114459190612e1e565b61144f9190612f59565b845f6002811061146257611461612cb1565b5b6020020181815250508286826114789190612e1e565b6114829190612f59565b8460016002811061149657611495612cb1565b5b602002018181525050845f600281106114b2576114b1612cb1565b5b6020020151845f600281106114ca576114c9612cb1565b5b60200201511015801561150d5750846001600281106114ec576114eb612cb1565b5b60200201518460016002811061150557611504612cb1565b5b602002015110155b61154c576040517f08c379a000000000000000000000000000000000000000000000000000000000815260040161154390612fd3565b60405180910390fd5b7f000000000000000000000000000000000000000000000000000000000000000073ffffffffffffffffffffffffffffffffffffffff16639dc29fac33886040518363ffffffff1660e01b81526004016115a7929190613059565b5f604051808303815f87803b1580156115be575f80fd5b505af11580156115d0573d5f803e3d5ffd5b505050505f845f600281106115e8576115e7612cb1565b5b602002015111156116565761165533855f6002811061160a57611609612cb1565b5b60200201517f000000000000000000000000000000000000000000000000000000000000000073ffffffffffffffffffffffffffffffffffffffff166124699092919063ffffffff16565b5b5f8460016002811061166b5761166a612cb1565b5b602002015111156116da576116d9338560016002811061168e5761168d612cb1565b5b60200201517f000000000000000000000000000000000000000000000000000000000000000073ffffffffffffffffffffffffffffffffffffffff166124699092919063ffffffff16565b5b3373ffffffffffffffffffffffffffffffffffffffff167fde47ef46462a3d6a01275c8782d4934bbd81484551ef7de844b0028795421d828588604051611722929190613080565b60405180910390a25050506117356122cc565b92915050565b5f611744612206565b6002851080156117545750600284105b80156117605750838514155b61179f576040517f08c379a0000000000000000000000000000000000000000000000000000000008152600401611796906131c1565b60405180910390fd5b5f83116117e1576040517f08c379a00000000000000000000000000000000000000000000000000000000081526004016117d89061330b565b60405180910390fd5b5f80861461180f577f0000000000000000000000000000000000000000000000000000000000000000611831565b7f00000000000000000000000000000000000000000000000000000000000000005b90505f808614611861577f0000000000000000000000000000000000000000000000000000000000000000611883565b7f00000000000000000000000000000000000000000000000000000000000000005b90505f61188e6122d5565b90505f61189a89610ba2565b90506118c93330898773ffffffffffffffffffffffffffffffffffffffff1661224a909392919063ffffffff16565b5f816118d48b610ba2565b6118de9190612d83565b90505f8111611922576040517f08c379a000000000000000000000000000000000000000000000000000000000815260040161191990612e00565b60405180910390fd5b5f64e8d4a51000826119349190612e1e565b848c6002811061194757611946612cb1565b5b602002015161195691906131df565b90505f6119658c8c8488610f3f565b90505f600182878e6002811061197e5761197d612cb1565b5b602002015161198d9190612d83565b6119979190612d83565b90505f612710600254836119ab9190612e1e565b6119b59190612f59565b905064e8d4a5100081836119c99190612d83565b6119d39190612f59565b99508a8a1015611a18576040517f08c379a0000000000000000000000000000000000000000000000000000000008152600401611a0f90612fd3565b60405180910390fd5b611a43338b8a73ffffffffffffffffffffffffffffffffffffffff166124699092919063ffffffff16565b3373ffffffffffffffffffffffffffffffffffffffff167f1474845d885fe24fdac00865837b3e94a48a591bf4704fa0f08c7b8ab9bea5458f8f888e604051611a8f9493929190613391565b60405180910390a2505050505050505050611aa86122cc565b949350505050565b7f000000000000000000000000000000000000000000000000000000000000000081565b611adc6124e8565b6103e8811115611b21576040517f08c379a0000000000000000000000000000000000000000000000000000000008152600401611b189061341e565b60405180910390fd5b8060028190555050565b611b336124e8565b611b3c5f61256f565b565b5f8083600160028110611b5457611b53612cb1565b5b6020020151845f60028110611b6c57611b6b612cb1565b5b6020020151611b7b91906131df565b90505f8103611b8d575f915050611d45565b5f8190505f600285611b9f9190612e1e565b90505f5b60ff811015611d09575f839050875f60028110611bc357611bc2612cb1565b5b60200201518482611bd49190612e1e565b611bde9190612f59565b905087600160028110611bf457611bf3612cb1565b5b60200201518482611c059190612e1e565b611c0f9190612f59565b9050600280611c1e919061356b565b81611c299190612f59565b90505f8490508160016002611c3e91906131df565b611c489190612e1e565b85600186611c569190612d83565b611c609190612e1e565b611c6a91906131df565b85600284611c789190612e1e565b8887611c849190612e1e565b611c8e91906131df565b611c989190612e1e565b611ca29190612f59565b945080851115611cd25760018186611cba9190612d83565b11611ccd57849650505050505050611d45565b611cf4565b60018582611ce09190612d83565b11611cf357849650505050505050611d45565b5b50508080611d0190613212565b915050611ba3565b506040517f08c379a0000000000000000000000000000000000000000000000000000000008152600401611d3c906135ff565b60405180910390fd5b92915050565b5f60015f9054906101000a900473ffffffffffffffffffffffffffffffffffffffff16905090565b7f000000000000000000000000000000000000000000000000000000000000000081565b61271081565b60025481565b5f611dac612206565b60028310611def576040517f08c379a0000000000000000000000000000000000000000000000000000000008152600401611de6906130f1565b60405180910390fd5b5f8411611e31576040517f08c379a0000000000000000000000000000000000000000000000000000000008152600401611e289061330b565b60405180910390fd5b5f611e3a6122d5565b90505f611e48826064611b3e565b90505f7f000000000000000000000000000000000000000000000000000000000000000073ffffffffffffffffffffffffffffffffffffffff166318160ddd6040518163ffffffff1660e01b8152600401602060405180830381865afa158015611eb4573d5f803e3d5ffd5b505050506040513d601f19601f82011682018060405250810190611ed89190612f01565b90505f8111611f1c576040517f08c379a0000000000000000000000000000000000000000000000000000000008152600401611f1390613373565b60405180910390fd5b80871115611f5f576040517f08c379a0000000000000000000000000000000000000000000000000000000008152600401611f5690613159565b60405180910390fd5b5f818883611f6d9190612d83565b84611f789190612e1e565b611f829190612f59565b90505f60018483878b60028110611f9c57611f9b612cb1565b5b6020020151611fab9190612e1e565b611fb59190612f59565b868a60028110611fc857611fc7612cb1565b5b6020020151611fd79190612d83565b611fe19190612d83565b90505f61271060025483611ff59190612e1e565b611fff9190612f59565b905064e8d4a5100081836120139190612d83565b61201d9190612f59565b965087871015612062576040517f08c379a000000000000000000000000000000000000000000000000000000000815260040161205990612fd3565b60405180910390fd5b7f000000000000000000000000000000000000000000000000000000000000000073ffffffffffffffffffffffffffffffffffffffff16639dc29fac338c6040518363ffffffff1660e01b81526004016120bd929190613059565b5f604051808303815f87803b1580156120d4575f80fd5b505af11580156120e6573d5f803e3d5ffd5b505050505f808a14612118577f000000000000000000000000000000000000000000000000000000000000000061213a565b7f00000000000000000000000000000000000000000000000000000000000000005b905061216733898373ffffffffffffffffffffffffffffffffffffffff166124699092919063ffffffff16565b505050505050506121766122cc565b9392505050565b6121856124e8565b5f73ffffffffffffffffffffffffffffffffffffffff168173ffffffffffffffffffffffffffffffffffffffff16036121f5575f6040517f1e4fbdf70000000000000000000000000000000000000000000000000000000081526004016121ec9190612c43565b60405180910390fd5b6121fe8161256f565b50565b606481565b60025f5403612241576040517f3ee5aeb500000000000000000000000000000000000000000000000000000000815260040160405180910390fd5b60025f81905550565b6122c6848573ffffffffffffffffffffffffffffffffffffffff166323b872dd86868660405160240161227f9392919061361d565b604051602081830303815290604052915060e01b6020820180517bffffffffffffffffffffffffffffffffffffffffffffffffffffffff8381831617835250505050612632565b50505050565b60015f81905550565b6122dd6126d4565b64e8d4a510007f000000000000000000000000000000000000000000000000000000000000000073ffffffffffffffffffffffffffffffffffffffff166370a08231306040518263ffffffff1660e01b815260040161233c9190612c43565b602060405180830381865afa158015612357573d5f803e3d5ffd5b505050506040513d601f19601f8201168201806040525081019061237b9190612f01565b6123859190612e1e565b815f6002811061239857612397612cb1565b5b60200201818152505064e8d4a510007f000000000000000000000000000000000000000000000000000000000000000073ffffffffffffffffffffffffffffffffffffffff166370a08231306040518263ffffffff1660e01b81526004016124009190612c43565b602060405180830381865afa15801561241b573d5f803e3d5ffd5b505050506040513d601f19601f8201168201806040525081019061243f9190612f01565b6124499190612e1e565b8160016002811061245d5761245c612cb1565b5b60200201818152505090565b6124e3838473ffffffffffffffffffffffffffffffffffffffff1663a9059cbb858560405160240161249c929190613059565b604051602081830303815290604052915060e01b6020820180517bffffffffffffffffffffffffffffffffffffffffffffffffffffffff8381831617835250505050612632565b505050565b6124f06126cd565b73ffffffffffffffffffffffffffffffffffffffff1661250e611d4b565b73ffffffffffffffffffffffffffffffffffffffff161461256d576125316126cd565b6040517f118cdaa70000000000000000000000000000000000000000000000000000000081526004016125649190612c43565b60405180910390fd5b565b5f60015f9054906101000a900473ffffffffffffffffffffffffffffffffffffffff1690508160015f6101000a81548173ffffffffffffffffffffffffffffffffffffffff021916908373ffffffffffffffffffffffffffffffffffffffff1602179055508173ffffffffffffffffffffffffffffffffffffffff168173ffffffffffffffffffffffffffffffffffffffff167f8be0079c531659141344cd1fd0a4f28419497f9722a3daafe3b4186f6b6457e060405160405180910390a35050565b5f8060205f8451602086015f885af180612651576040513d5f823e3d81fd5b3d92505f519150505f821461266a576001811415612685565b5f8473ffffffffffffffffffffffffffffffffffffffff163b145b156126c757836040517f5274afe70000000000000000000000000000000000000000000000000000000081526004016126be9190612c43565b60405180910390fd5b50505050565b5f33905090565b6040518060400160405280600290602082028036833780820191505090505090565b5f604051905090565b5f80fd5b5f80fd5b5f601f19601f8301169050919050565b7f4e487b71000000000000000000000000000000000000000000000000000000005f52604160045260245ffd5b61274d82612707565b810181811067ffffffffffffffff8211171561276c5761276b612717565b5b80604052505050565b5f61277e6126f6565b905061278a8282612744565b919050565b5f67ffffffffffffffff8211156127a9576127a8612717565b5b602082029050919050565b5f80fd5b5f819050919050565b6127ca816127b8565b81146127d4575f80fd5b50565b5f813590506127e5816127c1565b92915050565b5f6127fd6127f88461278f565b612775565b90508060208402830185811115612817576128166127b4565b5b835b81811015612840578061282c88826127d7565b845260208401935050602081019050612819565b5050509392505050565b5f82601f83011261285e5761285d612703565b5b600261286b8482856127eb565b91505092915050565b5f806060838503121561288a576128896126ff565b5b5f6128978582860161284a565b92505060406128a8858286016127d7565b9150509250929050565b6128bb816127b8565b82525050565b5f6020820190506128d45f8301846128b2565b92915050565b5f73ffffffffffffffffffffffffffffffffffffffff82169050919050565b5f819050919050565b5f61291c612917612912846128da565b6128f9565b6128da565b9050919050565b5f61292d82612902565b9050919050565b5f61293e82612923565b9050919050565b61294e81612934565b82525050565b5f6020820190506129675f830184612945565b92915050565b5f60208284031215612982576129816126ff565b5b5f61298f848285016127d7565b91505092915050565b5f80604083850312156129ae576129ad6126ff565b5b5f6129bb858286016127d7565b92505060206129cc858286016127d7565b9150509250929050565b5f805f8060a085870312156129ee576129ed6126ff565b5b5f6129fb878288016127d7565b9450506020612a0c878288016127d7565b9350506040612a1d878288016127d7565b9250506060612a2e8782880161284a565b91505092959194509250565b5f805f60608486031215612a5157612a506126ff565b5b5f612a5e868287016127d7565b9350506020612a6f868287016127d7565b9250506040612a80868287016127d7565b9150509250925092565b5f8060608385031215612aa057612a9f6126ff565b5b5f612aad858286016127d7565b9250506020612abe8582860161284a565b9150509250929050565b5f60029050919050565b5f81905092915050565b5f819050919050565b612aee816127b8565b82525050565b5f612aff8383612ae5565b60208301905092915050565b5f602082019050919050565b612b2081612ac8565b612b2a8184612ad2565b9250612b3582612adc565b805f5b83811015612b65578151612b4c8782612af4565b9650612b5783612b0b565b925050600181019050612b38565b505050505050565b5f604082019050612b805f830184612b17565b92915050565b5f805f8060808587031215612b9e57612b9d6126ff565b5b5f612bab878288016127d7565b9450506020612bbc878288016127d7565b9350506040612bcd878288016127d7565b9250506060612bde878288016127d7565b91505092959194509250565b5f612bf482612923565b9050919050565b612c0481612bea565b82525050565b5f602082019050612c1d5f830184612bfb565b92915050565b5f612c2d826128da565b9050919050565b612c3d81612c23565b82525050565b5f602082019050612c565f830184612c34565b92915050565b612c6581612c23565b8114612c6f575f80fd5b50565b5f81359050612c8081612c5c565b92915050565b5f60208284031215612c9b57612c9a6126ff565b5b5f612ca884828501612c72565b91505092915050565b7f4e487b71000000000000000000000000000000000000000000000000000000005f52603260045260245ffd5b5f82825260208201905092915050565b7f7a65726f20616d6f756e747300000000000000000000000000000000000000005f82015250565b5f612d22600c83612cde565b9150612d2d82612cee565b602082019050919050565b5f6020820190508181035f830152612d4f81612d16565b9050919050565b7f4e487b71000000000000000000000000000000000000000000000000000000005f52601160045260245ffd5b5f612d8d826127b8565b9150612d98836127b8565b9250828203905081811115612db057612daf612d56565b5b92915050565b7f7a65726f207265636569766564000000000000000000000000000000000000005f82015250565b5f612dea600d83612cde565b9150612df582612db6565b602082019050919050565b5f6020820190508181035f830152612e1781612dde565b9050919050565b5f612e28826127b8565b9150612e33836127b8565b9250828202612e41816127b8565b91508282048414831517612e5857612e57612d56565b5b5092915050565b7f696e697469616c206465706f73697420726571756972657320626f746820746f5f8201527f6b656e7300000000000000000000000000000000000000000000000000000000602082015250565b5f612eb9602483612cde565b9150612ec482612e5f565b604082019050919050565b5f6020820190508181035f830152612ee681612ead565b9050919050565b5f81519050612efb816127c1565b92915050565b5f60208284031215612f1657612f156126ff565b5b5f612f2384828501612eed565b91505092915050565b7f4e487b71000000000000000000000000000000000000000000000000000000005f52601260045260245ffd5b5f612f63826127b8565b9150612f6e836127b8565b925082612f7e57612f7d612f2c565b5b828204905092915050565b7f736c6970706167652065786365656465640000000000000000000000000000005f82015250565b5f612fbd601183612cde565b9150612fc882612f89565b602082019050919050565b5f6020820190508181035f830152612fea81612fb1565b9050919050565b7f7a65726f206d696e7400000000000000000000000000000000000000000000005f82015250565b5f613025600983612cde565b915061303082612ff1565b602082019050919050565b5f6020820190508181035f83015261305281613019565b9050919050565b5f60408201905061306c5f830185612c34565b61307960208301846128b2565b9392505050565b5f6060820190506130935f830185612b17565b6130a060408301846128b2565b9392505050565b7f696e76616c696420696e646578000000000000000000000000000000000000005f82015250565b5f6130db600d83612cde565b91506130e6826130a7565b602082019050919050565b5f6020820190508181035f830152613108816130cf565b9050919050565b7f6275726e206578636565647320737570706c79000000000000000000000000005f82015250565b5f613143601383612cde565b915061314e8261310f565b602082019050919050565b5f6020820190508181035f83015261317081613137565b9050919050565b7f696e76616c696420696e646963657300000000000000000000000000000000005f82015250565b5f6131ab600f83612cde565b91506131b682613177565b602082019050919050565b5f6020820190508181035f8301526131d88161319f565b9050919050565b5f6131e9826127b8565b91506131f4836127b8565b925082820190508082111561320c5761320b612d56565b5b92915050565b5f61321c826127b8565b91507fffffffffffffffffffffffffffffffffffffffffffffffffffffffffffffffff820361324e5761324d612d56565b5b600182019050919050565b7f7920646964206e6f7420636f6e766572676500000000000000000000000000005f82015250565b5f61328d601283612cde565b915061329882613259565b602082019050919050565b5f6020820190508181035f8301526132ba81613281565b9050919050565b7f7a65726f20616d6f756e740000000000000000000000000000000000000000005f82015250565b5f6132f5600b83612cde565b9150613300826132c1565b602082019050919050565b5f6020820190508181035f830152613322816132e9565b9050919050565b7f6e6f206c697175696469747900000000000000000000000000000000000000005f82015250565b5f61335d600c83612cde565b915061336882613329565b602082019050919050565b5f6020820190508181035f83015261338a81613351565b9050919050565b5f6080820190506133a45f8301876128b2565b6133b160208301866128b2565b6133be60408301856128b2565b6133cb60608301846128b2565b95945050505050565b7f66656520746f6f206869676800000000000000000000000000000000000000005f82015250565b5f613408600c83612cde565b9150613413826133d4565b602082019050919050565b5f6020820190508181035f830152613435816133fc565b9050919050565b5f8160011c9050919050565b5f808291508390505b60018511156134915780860481111561346d5761346c612d56565b5b600185161561347c5780820291505b808102905061348a8561343c565b9450613451565b94509492505050565b5f826134a95760019050613564565b816134b6575f9050613564565b81600181146134cc57600281146134d657613505565b6001915050613564565b60ff8411156134e8576134e7612d56565b5b8360020a9150848211156134ff576134fe612d56565b5b50613564565b5060208310610133831016604e8410600b841016171561353a5782820a90508381111561353557613534612d56565b5b613564565b6135478484846001613448565b9250905081840481111561355e5761355d612d56565b5b81810290505b9392505050565b5f613575826127b8565b9150613580836127b8565b92506135ad7fffffffffffffffffffffffffffffffffffffffffffffffffffffffffffffffff848461349a565b905092915050565b7f4420646964206e6f7420636f6e766572676500000000000000000000000000005f82015250565b5f6135e9601283612cde565b91506135f4826135b5565b602082019050919050565b5f6020820190508181035f830152613616816135dd565b9050919050565b5f6060820190506136305f830186612c34565b61363d6020830185612c34565b61364a60408301846128b2565b94935050505056fea26469706673582212204f30de0557c5dca20c1cb5cc7c5e008e0926fcd4702db5351f8c371c4199489a64736f6c63430008140033","linkReferences":{}},"methodIdentifiers":{"A()":"f446c1d0","FEE_DENOMINATOR()":"d73792a9","N_COINS()":"29357750","add_liquidity(uint256[2],uint256)":"0b4c7e4d","balances(uint256)":"4903b0d1","calc_withdraw_one_coin(uint256,uint256)":"4fb08c5e","exchange(uint256,uint256,uint256,uint256)":"5b41b908","fee()":"ddca3f43","getD(uint256[2],uint256)":"7550cfff","get_dy(uint256,uint256,uint256)":"556d6e9f","get_y(uint256,uint256,uint256,uint256[2])":"5087a900","lpToken()":"5fcbd285","owner()":"8da5cb5b","remove_liquidity(uint256,uint256[2])":"5b36389c","remove_liquidity_one_coin(uint256,uint256,uint256)":"f1dc3cc9","renounceOwnership()":"715018a6","setFee(uint256)":"69fe0e2d","token0()":"0dfe1681","token1()":"d21220a7","totalSupply()":"18160ddd","transferOwnership(address)":"f2fde38b"},"id":36}