{"abi":[{"type":"constructor","inputs":[],"stateMutability":"nonpayable"},{"type":"function","name":"allowance","inputs":[{"name":"owner","type":"address","internalType":"address"},{"name":"spender","type":"address","internalType":"address"}],"outputs":[{"name":"","type":"uint256","internalType":"uint256"}],"stateMutability":"view"},{"type":"function","name":"approve","inputs":[{"name":"spender","type":"address","internalType":"address"},{"name":"value","type":"uint256","internalType":"uint256"}],"outputs":[{"name":"","type":"bool","internalType":"bool"}],"stateMutability":"nonpayable"},{"type":"function","name":"balanceOf","inputs":[{"name":"account","type":"address","internalType":"address"}],"outputs":[{"name":"","type":"uint256","internalType":"uint256"}],"stateMutability":"view"},{"type":"function","name":"burn","inputs":[{"name":"from","type":"address","internalType":"address"},{"name":"amount","type":"uint256","internalType":"uint256"}],"outputs":[],"stateMutability":"nonpayable"},{"type":"function","name":"decimals","inputs":[],"outputs":[{"name":"","type":"uint8","internalType":"uint8"}],"stateMutability":"view"},{"type":"function","name":"mint","inputs":[{"name":"to","type":"address","internalType":"address"},{"name":"amount","type":"uint256","internalType":"uint256"}],"outputs":[],"stateMutability":"nonpayable"},{"type":"function","name":"name","inputs":[],"outputs":[{"name":"","type":"string","internalType":"string"}],"stateMutability":"view"},{"type":"function","name":"owner","inputs":[],"outputs":[{"name":"","type":"address","internalType":"address"}],"stateMutability":"view"},{"type":"function","name":"pool","inputs":[],"outputs":[{"name":"","type":"address","internalType":"address"}],"stateMutability":"view"},{"type":"function","name":"renounceOwnership","inputs":[],"outputs":[],"stateMutability":"nonpayable"},{"type":"function","name":"setPool","inputs":[{"name":"pool_","type":"address","internalType":"address"}],"outputs":[],"stateMutability":"nonpayable"},{"type":"function","name":"symbol","inputs":[],"outputs":[{"name":"","type":"string","internalType":"string"}],"stateMutability":"view"},{"type":"function","name":"totalSupply","inputs":[],"outputs":[{"name":"","type":"uint256","internalType":"uint256"}],"stateMutability":"view"},{"type":"function","name":"transfer","inputs":[{"name":"to","type":"address","internalType":"address"},{"name":"value","type":"uint256","internalType":"uint256"}],"outputs":[{"name":"","type":"bool","internalType":"bool"}],"stateMutability":"nonpayable"},{"type":"function","name":"transferFrom","inputs":[{"name":"from","type":"address","internalType":"address"},{"name":"to","type":"address","internalType":"address"},{"name":"value","type":"uint256","internalType":"uint256"}],"outputs":[{"name":"","type":"bool","internalType":"bool"}],"stateMutability":"nonpayable"},{"type":"function","name":"transferOwnership","inputs":[{"name":"newOwner","type":"address","internalType":"address"}],"outputs":[],"stateMutability":"nonpayable"},{"type":"event","name":"Approval","inputs":[{"name":"owner","type":"address","indexed":true,"internalType":"address"},{"name":"spender","type":"address","indexed":true,"internalType":"address"},{"name":"value","type":"uint256","indexed":false,"internalType":"uint256"}],"anonymous":false},{"type":"event","name":"OwnershipTransferred","inputs":[{"name":"previousOwner","type":"address","indexed":true,"internalType":"address"},{"name":"newOwner","type":"address","indexed":true,"internalType":"address"}],"anonymous":false},{"type":"event","name":"Transfer","inputs":[{"name":"from","type":"address","indexed":true,"internalType":"address"},{"name":"to","type":"address","indexed":true,"internalType":"address"},{"name":"value","type":"uint256","indexed":false,"internalType":"uint256"}],"anonymous":false},{"type":"error","name":"ERC20InsufficientAllowance","inputs":[{"name":"spender","type":"address","internalType":"address"},{"name":"allowance","type":"uint256","internalType":"uint256"},{"name":"needed","type":"uint256","internalType":"uint256"}]},{"type":"error","name":"ERC20InsufficientBalance","inputs":[{"name":"sender","type":"address","internalType":"address"},{"name":"balance","type":"uint256","internalType":"uint256"},{"name":"needed","type":"uint256","internalType":"uint256"}]},{"type":"error","name":"ERC20InvalidApprover","inputs":[{"name":"approver","type":"address","internalType":"address"}]},{"type":"error","name":"ERC20InvalidReceiver","inputs":[{"name":"receiver","type":"address","internalType":"address"}]},{"type":"error","name":"ERC20InvalidSender","inputs":[{"name":"sender","type":"address","internalType":"address"}]},{"type":"error","name":"ERC20InvalidSpender","inputs":[{"name":"spender","type":"address","internalType":"address"}]},{"type":"error","name":"OwnableInvalidOwner","inputs":[{"name":"owner","type":"address","internalType":"address"}]},{"type":"error","name":"OwnableUnauthorizedAccount","inputs":[{"name":"account","type":"address","internalType":"address"}]}],"bytecode":{"object":"0x608060405234801562000010575f80fd5b50336040518060400160405280600981526020017f526164697573204c5000000000000000000000000000000000000000000000008152506040518060400160405280600581526020017f7261644c5000000000000000000000000000000000000000000000000000000081525081600390816200008f919062000456565b508060049081620000a1919062000456565b5050505f73ffffffffffffffffffffffffffffffffffffffff168173ffffffffffffffffffffffffffffffffffffffff160362000117575f6040517f1e4fbdf70000000000000000000000000000000000000000000000000000000081526004016200010e91906200057d565b60405180910390fd5b62000128816200012f60201b60201c565b5062000598565b5f60055f9054906101000a900473ffffffffffffffffffffffffffffffffffffffff1690508160055f6101000a81548173ffffffffffffffffffffffffffffffffffffffff021916908373ffffffffffffffffffffffffffffffffffffffff1602179055508173ffffffffffffffffffffffffffffffffffffffff168173ffffffffffffffffffffffffffffffffffffffff167f8be0079c531659141344cd1fd0a4f28419497f9722a3daafe3b4186f6b6457e060405160405180910390a35050565b5f81519050919050565b7f4e487b71000000000000000000000000000000000000000000000000000000005f52604160045260245ffd5b7f4e487b71000000000000000000000000000000000000000000000000000000005f52602260045260245ffd5b5f60028204905060018216806200026e57607f821691505b60208210810362000284576200028362000229565b5b50919050565b5f819050815f5260205f209050919050565b5f6020601f8301049050919050565b5f82821b905092915050565b5f60088302620002e87fffffffffffffffffffffffffffffffffffffffffffffffffffffffffffffffff82620002ab565b620002f48683620002ab565b95508019841693508086168417925050509392505050565b5f819050919050565b5f819050919050565b5f6200033e6200033862000332846200030c565b62000315565b6200030c565b9050919050565b5f819050919050565b62000359836200031e565b62000371620003688262000345565b848454620002b7565b825550505050565b5f90565b6200038762000379565b620003948184846200034e565b505050565b5b81811015620003bb57620003af5f826200037d565b6001810190506200039a565b5050565b601f8211156200040a57620003d4816200028a565b620003df846200029c565b81016020851015620003ef578190505b62000407620003fe856200029c565b83018262000399565b50505b505050565b5f82821c905092915050565b5f6200042c5f19846008026200040f565b1980831691505092915050565b5f6200044683836200041b565b9150826002028217905092915050565b6200046182620001f2565b67ffffffffffffffff8111156200047d576200047c620001fc565b5b62000489825462000256565b62000496828285620003bf565b5f60209050601f831160018114620004cc575f8415620004b7578287015190505b620004c3858262000439565b86555062000532565b601f198416620004dc866200028a565b5f5b828110156200050557848901518255600182019150602085019450602081019050620004de565b8683101562000525578489015162000521601f8916826200041b565b8355505b6001600288020188555050505b505050505050565b5f73ffffffffffffffffffffffffffffffffffffffff82169050919050565b5f62000565826200053a565b9050919050565b620005778162000559565b82525050565b5f602082019050620005925f8301846200056c565b92915050565b61160780620005a65f395ff3fe608060405234801561000f575f80fd5b50600436106100fe575f3560e01c806370a08231116100955780639dc29fac116100645780639dc29fac14610288578063a9059cbb146102a4578063dd62ed3e146102d4578063f2fde38b14610304576100fe565b806370a0823114610212578063715018a6146102425780638da5cb5b1461024c57806395d89b411461026a576100fe565b806323b872dd116100d157806323b872dd1461018c578063313ce567146101bc57806340c10f19146101da5780634437152a146101f6576100fe565b806306fdde0314610102578063095ea7b31461012057806316f0115b1461015057806318160ddd1461016e575b5f80fd5b61010a610320565b6040516101179190611148565b60405180910390f35b61013a600480360381019061013591906111f9565b6103b0565b6040516101479190611251565b60405180910390f35b6101586103d2565b6040516101659190611279565b60405180910390f35b6101766103fa565b60405161018391906112a1565b60405180910390f35b6101a660048036038101906101a191906112ba565b610403565b6040516101b39190611251565b60405180910390f35b6101c4610431565b6040516101d19190611325565b60405180910390f35b6101f460048036038101906101ef91906111f9565b610439565b005b610210600480360381019061020b919061133e565b6104d6565b005b61022c6004803603810190610227919061133e565b61061e565b60405161023991906112a1565b60405180910390f35b61024a610663565b005b610254610676565b6040516102619190611279565b60405180910390f35b61027261069e565b60405161027f9190611148565b60405180910390f35b6102a2600480360381019061029d91906111f9565b61072e565b005b6102be60048036038101906102b991906111f9565b6107cb565b6040516102cb9190611251565b60405180910390f35b6102ee60048036038101906102e99190611369565b6107ed565b6040516102fb91906112a1565b60405180910390f35b61031e6004803603810190610319919061133e565b61086f565b005b60606003805461032f906113d4565b80601f016020809104026020016040519081016040528092919081815260200182805461035b906113d4565b80156103a65780601f1061037d576101008083540402835291602001916103a6565b820191905f5260205f20905b81548152906001019060200180831161038957829003601f168201915b5050505050905090565b5f806103ba6108f3565b90506103c78185856108fa565b600191505092915050565b5f60065f9054906101000a900473ffffffffffffffffffffffffffffffffffffffff16905090565b5f600254905090565b5f8061040d6108f3565b905061041a85828561090c565b61042585858561099e565b60019150509392505050565b5f6012905090565b60065f9054906101000a900473ffffffffffffffffffffffffffffffffffffffff1673ffffffffffffffffffffffffffffffffffffffff163373ffffffffffffffffffffffffffffffffffffffff16146104c8576040517f08c379a00000000000000000000000000000000000000000000000000000000081526004016104bf9061144e565b60405180910390fd5b6104d28282610a8e565b5050565b6104de610b0d565b5f73ffffffffffffffffffffffffffffffffffffffff168173ffffffffffffffffffffffffffffffffffffffff160361054c576040517f08c379a0000000000000000000000000000000000000000000000000000000008152600401610543906114b6565b60405180910390fd5b5f73ffffffffffffffffffffffffffffffffffffffff1660065f9054906101000a900473ffffffffffffffffffffffffffffffffffffffff1673ffffffffffffffffffffffffffffffffffffffff16146105db576040517f08c379a00000000000000000000000000000000000000000000000000000000081526004016105d29061151e565b60405180910390fd5b8060065f6101000a81548173ffffffffffffffffffffffffffffffffffffffff021916908373ffffffffffffffffffffffffffffffffffffffff16021790555050565b5f805f8373ffffffffffffffffffffffffffffffffffffffff1673ffffffffffffffffffffffffffffffffffffffff1681526020019081526020015f20549050919050565b61066b610b0d565b6106745f610b94565b565b5f60055f9054906101000a900473ffffffffffffffffffffffffffffffffffffffff16905090565b6060600480546106ad906113d4565b80601f01602080910402602001604051908101604052809291908181526020018280546106d9906113d4565b80156107245780601f106106fb57610100808354040283529160200191610724565b820191905f5260205f20905b81548152906001019060200180831161070757829003601f168201915b5050505050905090565b60065f9054906101000a900473ffffffffffffffffffffffffffffffffffffffff1673ffffffffffffffffffffffffffffffffffffffff163373ffffffffffffffffffffffffffffffffffffffff16146107bd576040517f08c379a00000000000000000000000000000000000000000000000000000000081526004016107b49061144e565b60405180910390fd5b6107c78282610c57565b5050565b5f806107d56108f3565b90506107e281858561099e565b600191505092915050565b5f60015f8473ffffffffffffffffffffffffffffffffffffffff1673ffffffffffffffffffffffffffffffffffffffff1681526020019081526020015f205f8373ffffffffffffffffffffffffffffffffffffffff1673ffffffffffffffffffffffffffffffffffffffff1681526020019081526020015f2054905092915050565b610877610b0d565b5f73ffffffffffffffffffffffffffffffffffffffff168173ffffffffffffffffffffffffffffffffffffffff16036108e7575f6040517f1e4fbdf70000000000000000000000000000000000000000000000000000000081526004016108de9190611279565b60405180910390fd5b6108f081610b94565b50565b5f33905090565b6109078383836001610cd6565b505050565b5f61091784846107ed565b90507fffffffffffffffffffffffffffffffffffffffffffffffffffffffffffffffff81146109985781811015610989578281836040517ffb8f41b20000000000000000000000000000000000000000000000000000000081526004016109809392919061153c565b60405180910390fd5b61099784848484035f610cd6565b5b50505050565b5f73ffffffffffffffffffffffffffffffffffffffff168373ffffffffffffffffffffffffffffffffffffffff1603610a0e575f6040517f96c6fd1e000000000000000000000000000000000000000000000000000000008152600401610a059190611279565b60405180910390fd5b5f73ffffffffffffffffffffffffffffffffffffffff168273ffffffffffffffffffffffffffffffffffffffff1603610a7e575f6040517fec442f05000000000000000000000000000000000000000000000000000000008152600401610a759190611279565b60405180910390fd5b610a89838383610ea5565b505050565b5f73ffffffffffffffffffffffffffffffffffffffff168273ffffffffffffffffffffffffffffffffffffffff1603610afe575f6040517fec442f05000000000000000000000000000000000000000000000000000000008152600401610af59190611279565b60405180910390fd5b610b095f8383610ea5565b5050565b610b156108f3565b73ffffffffffffffffffffffffffffffffffffffff16610b33610676565b73ffffffffffffffffffffffffffffffffffffffff1614610b9257610b566108f3565b6040517f118cdaa7000000000000000000000000000000000000000000000000000000008152600401610b899190611279565b60405180910390fd5b565b5f60055f9054906101000a900473ffffffffffffffffffffffffffffffffffffffff1690508160055f6101000a81548173ffffffffffffffffffffffffffffffffffffffff021916908373ffffffffffffffffffffffffffffffffffffffff1602179055508173ffffffffffffffffffffffffffffffffffffffff168173ffffffffffffffffffffffffffffffffffffffff167f8be0079c531659141344cd1fd0a4f28419497f9722a3daafe3b4186f6b6457e060405160405180910390a35050565b5f73ffffffffffffffffffffffffffffffffffffffff168273ffffffffffffffffffffffffffffffffffffffff1603610cc7575f6040517f96c6fd1e000000000000000000000000000000000000000000000000000000008152600401610cbe9190611279565b60405180910390fd5b610cd2825f83610ea5565b5050565b5f73ffffffffffffffffffffffffffffffffffffffff168473ffffffffffffffffffffffffffffffffffffffff1603610d46575f6040517fe602df05000000000000000000000000000000000000000000000000000000008152600401610d3d9190611279565b60405180910390fd5b5f73ffffffffffffffffffffffffffffffffffffffff168373ffffffffffffffffffffffffffffffffffffffff1603610db6575f6040517f94280d62000000000000000000000000000000000000000000000000000000008152600401610dad9190611279565b60405180910390fd5b8160015f8673ffffffffffffffffffffffffffffffffffffffff1673ffffffffffffffffffffffffffffffffffffffff1681526020019081526020015f205f8573ffffffffffffffffffffffffffffffffffffffff1673ffffffffffffffffffffffffffffffffffffffff1681526020019081526020015f20819055508015610e9f578273ffffffffffffffffffffffffffffffffffffffff168473ffffffffffffffffffffffffffffffffffffffff167f8c5be1e5ebec7d5bd14f71427d1e84f3dd0314c0f7b2291e5b200ac8c7c3b92584604051610e9691906112a1565b60405180910390a35b50505050565b5f73ffffffffffffffffffffffffffffffffffffffff168373ffffffffffffffffffffffffffffffffffffffff1603610ef5578060025f828254610ee9919061159e565b92505081905550610fc3565b5f805f8573ffffffffffffffffffffffffffffffffffffffff1673ffffffffffffffffffffffffffffffffffffffff1681526020019081526020015f2054905081811015610f7e578381836040517fe450d38c000000000000000000000000000000000000000000000000000000008152600401610f759392919061153c565b60405180910390fd5b8181035f808673ffffffffffffffffffffffffffffffffffffffff1673ffffffffffffffffffffffffffffffffffffffff1681526020019081526020015f2081905550505b5f73ffffffffffffffffffffffffffffffffffffffff168273ffffffffffffffffffffffffffffffffffffffff160361100a578060025f8282540392505081905550611054565b805f808473ffffffffffffffffffffffffffffffffffffffff1673ffffffffffffffffffffffffffffffffffffffff1681526020019081526020015f205f82825401925050819055505b8173ffffffffffffffffffffffffffffffffffffffff168373ffffffffffffffffffffffffffffffffffffffff167fddf252ad1be2c89b69c2b068fc378daa952ba7f163c4a11628f55a4df523b3ef836040516110b191906112a1565b60405180910390a3505050565b5f81519050919050565b5f82825260208201905092915050565b5f5b838110156110f55780820151818401526020810190506110da565b5f8484015250505050565b5f601f19601f8301169050919050565b5f61111a826110be565b61112481856110c8565b93506111348185602086016110d8565b61113d81611100565b840191505092915050565b5f6020820190508181035f8301526111608184611110565b905092915050565b5f80fd5b5f73ffffffffffffffffffffffffffffffffffffffff82169050919050565b5f6111958261116c565b9050919050565b6111a58161118b565b81146111af575f80fd5b50565b5f813590506111c08161119c565b92915050565b5f819050919050565b6111d8816111c6565b81146111e2575f80fd5b50565b5f813590506111f3816111cf565b92915050565b5f806040838503121561120f5761120e611168565b5b5f61121c858286016111b2565b925050602061122d858286016111e5565b9150509250929050565b5f8115159050919050565b61124b81611237565b82525050565b5f6020820190506112645f830184611242565b92915050565b6112738161118b565b82525050565b5f60208201905061128c5f83018461126a565b92915050565b61129b816111c6565b82525050565b5f6020820190506112b45f830184611292565b92915050565b5f805f606084860312156112d1576112d0611168565b5b5f6112de868287016111b2565b93505060206112ef868287016111b2565b9250506040611300868287016111e5565b9150509250925092565b5f60ff82169050919050565b61131f8161130a565b82525050565b5f6020820190506113385f830184611316565b92915050565b5f6020828403121561135357611352611168565b5b5f611360848285016111b2565b91505092915050565b5f806040838503121561137f5761137e611168565b5b5f61138c858286016111b2565b925050602061139d858286016111b2565b9150509250929050565b7f4e487b71000000000000000000000000000000000000000000000000000000005f52602260045260245ffd5b5f60028204905060018216806113eb57607f821691505b6020821081036113fe576113fd6113a7565b5b50919050565b7f6f6e6c7920706f6f6c00000000000000000000000000000000000000000000005f82015250565b5f6114386009836110c8565b915061144382611404565b602082019050919050565b5f6020820190508181035f8301526114658161142c565b9050919050565b7f7a65726f206164647265737300000000000000000000000000000000000000005f82015250565b5f6114a0600c836110c8565b91506114ab8261146c565b602082019050919050565b5f6020820190508181035f8301526114cd81611494565b9050919050565b7f706f6f6c20616c726561647920736574000000000000000000000000000000005f82015250565b5f6115086010836110c8565b9150611513826114d4565b602082019050919050565b5f6020820190508181035f830152611535816114fc565b9050919050565b5f60608201905061154f5f83018661126a565b61155c6020830185611292565b6115696040830184611292565b949350505050565b7f4e487b71000000000000000000000000000000000000000000000000000000005f52601160045260245ffd5b5f6115a8826111c6565b91506115b3836111c6565b92508282019050808211156115cb576115ca611571565b5b9291505056fea26469706673582212207cefa353e30470ccc9c410d905c034c7f50b397a5e4a5ee519bfbbb2a83b447064736f6c63430008140033","linkReferences":{}},"methodIdentifiers":{"allowance(address,address)":"dd62ed3e","approve(address,uint256)":"095ea7b3","balanceOf(address)":"70a08231","burn(address,uint256)":"9dc29fac","decimals()":"313ce567","mint(address,uint256)":"40c10f19","name()":"06fdde03","owner()":"8da5cb5b","pool()":"16f0115b","renounceOwnership()":"715018a6","setPool(address)":"4437152a","symbol()":"95d89b41","totalSupply()":"18160ddd","transfer(address,uint256)":"a9059cbb","transferFrom(address,address,uint256)":"23b872dd","transferOwnership(address)":"f2fde38b"},"id":35}