{"abi":[{"type":"constructor","inputs":[],"stateMutability":"nonpayable"},{"type":"function","name":"TOTAL_SUPPLY","inputs":[],"outputs":[{"name":"","type":"uint256","internalType":"uint256"}],"stateMutability":"view"},{"type":"function","name":"allowance","inputs":[{"name":"owner","type":"address","internalType":"address"},{"name":"spender","type":"address","internalType":"address"}],"outputs":[{"name":"","type":"uint256","internalType":"uint256"}],"stateMutability":"view"},{"type":"function","name":"approve","inputs":[{"name":"spender","type":"address","internalType":"address"},{"name":"value","type":"uint256","internalType":"uint256"}],"outputs":[{"name":"","type":"bool","internalType":"bool"}],"stateMutability":"nonpayable"},{"type":"function","name":"balanceOf","inputs":[{"name":"account","type":"address","internalType":"address"}],"outputs":[{"name":"","type":"uint256","internalType":"uint256"}],"stateMutability":"view"},{"type":"function","name":"decimals","inputs":[],"outputs":[{"name":"","type":"uint8","internalType":"uint8"}],"stateMutability":"view"},{"type":"function","name":"name","inputs":[],"outputs":[{"name":"","type":"string","internalType":"string"}],"stateMutability":"view"},{"type":"function","name":"symbol","inputs":[],"outputs":[{"name":"","type":"string","internalType":"string"}],"stateMutability":"view"},{"type":"function","name":"totalSupply","inputs":[],"outputs":[{"name":"","type":"uint256","internalType":"uint256"}],"stateMutability":"view"},{"type":"function","name":"transfer","inputs":[{"name":"to","type":"address","internalType":"address"},{"name":"value","type":"uint256","internalType":"uint256"}],"outputs":[{"name":"","type":"bool","internalType":"bool"}],"stateMutability":"nonpayable"},{"type":"function","name":"transferFrom","inputs":[{"name":"from","type":"address","internalType":"address"},{"name":"to","type":"address","internalType":"address"},{"name":"value","type":"uint256","internalType":"uint256"}],"outputs":[{"name":"","type":"bool","internalType":"bool"}],"stateMutability":"nonpayable"},{"type":"event","name":"Approval","inputs":[{"name":"owner","type":"address","indexed":true,"internalType":"address"},{"name":"spender","type":"address","indexed":true,"internalType":"address"},{"name":"value","type":"uint256","indexed":false,"internalType":"uint256"}],"anonymous":false},{"type":"event","name":"Transfer","inputs":[{"name":"from","type":"address","indexed":true,"internalType":"address"},{"name":"to","type":"address","indexed":true,"internalType":"address"},{"name":"value","type":"uint256","indexed":false,"internalType":"uint256"}],"anonymous":false},{"type":"error","name":"ERC20InsufficientAllowance","inputs":[{"name":"spender","type":"address","internalType":"address"},{"name":"allowance","type":"uint256","internalType":"uint256"},{"name":"needed","type":"uint256","internalType":"uint256"}]},{"type":"error","name":"ERC20InsufficientBalance","inputs":[{"name":"sender","type":"address","internalType":"address"},{"name":"balance","type":"uint256","internalType":"uint256"},{"name":"needed","type":"uint256","internalType":"uint256"}]},{"type":"error","name":"ERC20InvalidApprover","inputs":[{"name":"approver","type":"address","internalType":"address"}]},{"type":"error","name":"ERC20InvalidReceiver","inputs":[{"name":"receiver","type":"address","internalType":"address"}]},{"type":"error","name":"ERC20InvalidSender","inputs":[{"name":"sender","type":"address","internalType":"address"}]},{"type":"error","name":"ERC20InvalidSpender","inputs":[{"name":"spender","type":"address","internalType":"address"}]}],"bytecode":{"object":"0x608060405234801562000010575f80fd5b506040518060400160405280600681526020017f52616469757300000000000000000000000000000000000000000000000000008152506040518060400160405280600381526020017f524144000000000000000000000000000000000000000000000000000000000081525081600390816200008e9190620005d9565b508060049081620000a09190620005d9565b505050620000c1336b033b2e3c9fd0803ce8000000620000c760201b60201c565b620007e9565b5f73ffffffffffffffffffffffffffffffffffffffff168273ffffffffffffffffffffffffffffffffffffffff16036200013a575f6040517fec442f0500000000000000000000000000000000000000000000000000000000815260040162000131919062000700565b60405180910390fd5b6200014d5f83836200015160201b60201c565b5050565b5f73ffffffffffffffffffffffffffffffffffffffff168373ffffffffffffffffffffffffffffffffffffffff1603620001a5578060025f82825462000198919062000748565b9250508190555062000276565b5f805f8573ffffffffffffffffffffffffffffffffffffffff1673ffffffffffffffffffffffffffffffffffffffff1681526020019081526020015f205490508181101562000231578381836040517fe450d38c000000000000000000000000000000000000000000000000000000008152600401620002289392919062000793565b60405180910390fd5b8181035f808673ffffffffffffffffffffffffffffffffffffffff1673ffffffffffffffffffffffffffffffffffffffff1681526020019081526020015f2081905550505b5f73ffffffffffffffffffffffffffffffffffffffff168273ffffffffffffffffffffffffffffffffffffffff1603620002bf578060025f828254039250508190555062000309565b805f808473ffffffffffffffffffffffffffffffffffffffff1673ffffffffffffffffffffffffffffffffffffffff1681526020019081526020015f205f82825401925050819055505b8173ffffffffffffffffffffffffffffffffffffffff168373ffffffffffffffffffffffffffffffffffffffff167fddf252ad1be2c89b69c2b068fc378daa952ba7f163c4a11628f55a4df523b3ef83604051620003689190620007ce565b60405180910390a3505050565b5f81519050919050565b7f4e487b71000000000000000000000000000000000000000000000000000000005f52604160045260245ffd5b7f4e487b71000000000000000000000000000000000000000000000000000000005f52602260045260245ffd5b5f6002820490506001821680620003f157607f821691505b602082108103620004075762000406620003ac565b5b50919050565b5f819050815f5260205f209050919050565b5f6020601f8301049050919050565b5f82821b905092915050565b5f600883026200046b7fffffffffffffffffffffffffffffffffffffffffffffffffffffffffffffffff826200042e565b6200047786836200042e565b95508019841693508086168417925050509392505050565b5f819050919050565b5f819050919050565b5f620004c1620004bb620004b5846200048f565b62000498565b6200048f565b9050919050565b5f819050919050565b620004dc83620004a1565b620004f4620004eb82620004c8565b8484546200043a565b825550505050565b5f90565b6200050a620004fc565b62000517818484620004d1565b505050565b5b818110156200053e57620005325f8262000500565b6001810190506200051d565b5050565b601f8211156200058d5762000557816200040d565b62000562846200041f565b8101602085101562000572578190505b6200058a62000581856200041f565b8301826200051c565b50505b505050565b5f82821c905092915050565b5f620005af5f198460080262000592565b1980831691505092915050565b5f620005c983836200059e565b9150826002028217905092915050565b620005e48262000375565b67ffffffffffffffff8111156200060057620005ff6200037f565b5b6200060c8254620003d9565b6200061982828562000542565b5f60209050601f8311600181146200064f575f84156200063a578287015190505b620006468582620005bc565b865550620006b5565b601f1984166200065f866200040d565b5f5b82811015620006885784890151825560018201915060208501945060208101905062000661565b86831015620006a85784890151620006a4601f8916826200059e565b8355505b6001600288020188555050505b505050505050565b5f73ffffffffffffffffffffffffffffffffffffffff82169050919050565b5f620006e882620006bd565b9050919050565b620006fa81620006dc565b82525050565b5f602082019050620007155f830184620006ef565b92915050565b7f4e487b71000000000000000000000000000000000000000000000000000000005f52601160045260245ffd5b5f62000754826200048f565b915062000761836200048f565b92508282019050808211156200077c576200077b6200071b565b5b92915050565b6200078d816200048f565b82525050565b5f606082019050620007a85f830186620006ef565b620007b7602083018562000782565b620007c6604083018462000782565b949350505050565b5f602082019050620007e35f83018462000782565b92915050565b610e3480620007f75f395ff3fe608060405234801561000f575f80fd5b506004361061009c575f3560e01c806370a082311161006457806370a082311461015a578063902d55a51461018a57806395d89b41146101a8578063a9059cbb146101c6578063dd62ed3e146101f65761009c565b806306fdde03146100a0578063095ea7b3146100be57806318160ddd146100ee57806323b872dd1461010c578063313ce5671461013c575b5f80fd5b6100a8610226565b6040516100b59190610aad565b60405180910390f35b6100d860048036038101906100d39190610b5e565b6102b6565b6040516100e59190610bb6565b60405180910390f35b6100f66102d8565b6040516101039190610bde565b60405180910390f35b61012660048036038101906101219190610bf7565b6102e1565b6040516101339190610bb6565b60405180910390f35b61014461030f565b6040516101519190610c62565b60405180910390f35b610174600480360381019061016f9190610c7b565b610317565b6040516101819190610bde565b60405180910390f35b61019261035c565b60405161019f9190610bde565b60405180910390f35b6101b061036c565b6040516101bd9190610aad565b60405180910390f35b6101e060048036038101906101db9190610b5e565b6103fc565b6040516101ed9190610bb6565b60405180910390f35b610210600480360381019061020b9190610ca6565b61041e565b60405161021d9190610bde565b60405180910390f35b60606003805461023590610d11565b80601f016020809104026020016040519081016040528092919081815260200182805461026190610d11565b80156102ac5780601f10610283576101008083540402835291602001916102ac565b820191905f5260205f20905b81548152906001019060200180831161028f57829003601f168201915b5050505050905090565b5f806102c06104a0565b90506102cd8185856104a7565b600191505092915050565b5f600254905090565b5f806102eb6104a0565b90506102f88582856104b9565b61030385858561054b565b60019150509392505050565b5f6012905090565b5f805f8373ffffffffffffffffffffffffffffffffffffffff1673ffffffffffffffffffffffffffffffffffffffff1681526020019081526020015f20549050919050565b6b033b2e3c9fd0803ce800000081565b60606004805461037b90610d11565b80601f01602080910402602001604051908101604052809291908181526020018280546103a790610d11565b80156103f25780601f106103c9576101008083540402835291602001916103f2565b820191905f5260205f20905b8154815290600101906020018083116103d557829003601f168201915b5050505050905090565b5f806104066104a0565b905061041381858561054b565b600191505092915050565b5f60015f8473ffffffffffffffffffffffffffffffffffffffff1673ffffffffffffffffffffffffffffffffffffffff1681526020019081526020015f205f8373ffffffffffffffffffffffffffffffffffffffff1673ffffffffffffffffffffffffffffffffffffffff1681526020019081526020015f2054905092915050565b5f33905090565b6104b4838383600161063b565b505050565b5f6104c4848461041e565b90507fffffffffffffffffffffffffffffffffffffffffffffffffffffffffffffffff81146105455781811015610536578281836040517ffb8f41b200000000000000000000000000000000000000000000000000000000815260040161052d93929190610d50565b60405180910390fd5b61054484848484035f61063b565b5b50505050565b5f73ffffffffffffffffffffffffffffffffffffffff168373ffffffffffffffffffffffffffffffffffffffff16036105bb575f6040517f96c6fd1e0000000000000000000000000000000000000000000000000000000081526004016105b29190610d85565b60405180910390fd5b5f73ffffffffffffffffffffffffffffffffffffffff168273ffffffffffffffffffffffffffffffffffffffff160361062b575f6040517fec442f050000000000000000000000000000000000000000000000000000000081526004016106229190610d85565b60405180910390fd5b61063683838361080a565b505050565b5f73ffffffffffffffffffffffffffffffffffffffff168473ffffffffffffffffffffffffffffffffffffffff16036106ab575f6040517fe602df050000000000000000000000000000000000000000000000000000000081526004016106a29190610d85565b60405180910390fd5b5f73ffffffffffffffffffffffffffffffffffffffff168373ffffffffffffffffffffffffffffffffffffffff160361071b575f6040517f94280d620000000000000000000000000000000000000000000000000000000081526004016107129190610d85565b60405180910390fd5b8160015f8673ffffffffffffffffffffffffffffffffffffffff1673ffffffffffffffffffffffffffffffffffffffff1681526020019081526020015f205f8573ffffffffffffffffffffffffffffffffffffffff1673ffffffffffffffffffffffffffffffffffffffff1681526020019081526020015f20819055508015610804578273ffffffffffffffffffffffffffffffffffffffff168473ffffffffffffffffffffffffffffffffffffffff167f8c5be1e5ebec7d5bd14f71427d1e84f3dd0314c0f7b2291e5b200ac8c7c3b925846040516107fb9190610bde565b60405180910390a35b50505050565b5f73ffffffffffffffffffffffffffffffffffffffff168373ffffffffffffffffffffffffffffffffffffffff160361085a578060025f82825461084e9190610dcb565b92505081905550610928565b5f805f8573ffffffffffffffffffffffffffffffffffffffff1673ffffffffffffffffffffffffffffffffffffffff1681526020019081526020015f20549050818110156108e3578381836040517fe450d38c0000000000000000000000000000000000000000000000000000000081526004016108da93929190610d50565b60405180910390fd5b8181035f808673ffffffffffffffffffffffffffffffffffffffff1673ffffffffffffffffffffffffffffffffffffffff1681526020019081526020015f2081905550505b5f73ffffffffffffffffffffffffffffffffffffffff168273ffffffffffffffffffffffffffffffffffffffff160361096f578060025f82825403925050819055506109b9565b805f808473ffffffffffffffffffffffffffffffffffffffff1673ffffffffffffffffffffffffffffffffffffffff1681526020019081526020015f205f82825401925050819055505b8173ffffffffffffffffffffffffffffffffffffffff168373ffffffffffffffffffffffffffffffffffffffff167fddf252ad1be2c89b69c2b068fc378daa952ba7f163c4a11628f55a4df523b3ef83604051610a169190610bde565b60405180910390a3505050565b5f81519050919050565b5f82825260208201905092915050565b5f5b83811015610a5a578082015181840152602081019050610a3f565b5f8484015250505050565b5f601f19601f8301169050919050565b5f610a7f82610a23565b610a898185610a2d565b9350610a99818560208601610a3d565b610aa281610a65565b840191505092915050565b5f6020820190508181035f830152610ac58184610a75565b905092915050565b5f80fd5b5f73ffffffffffffffffffffffffffffffffffffffff82169050919050565b5f610afa82610ad1565b9050919050565b610b0a81610af0565b8114610b14575f80fd5b50565b5f81359050610b2581610b01565b92915050565b5f819050919050565b610b3d81610b2b565b8114610b47575f80fd5b50565b5f81359050610b5881610b34565b92915050565b5f8060408385031215610b7457610b73610acd565b5b5f610b8185828601610b17565b9250506020610b9285828601610b4a565b9150509250929050565b5f8115159050919050565b610bb081610b9c565b82525050565b5f602082019050610bc95f830184610ba7565b92915050565b610bd881610b2b565b82525050565b5f602082019050610bf15f830184610bcf565b92915050565b5f805f60608486031215610c0e57610c0d610acd565b5b5f610c1b86828701610b17565b9350506020610c2c86828701610b17565b9250506040610c3d86828701610b4a565b9150509250925092565b5f60ff82169050919050565b610c5c81610c47565b82525050565b5f602082019050610c755f830184610c53565b92915050565b5f60208284031215610c9057610c8f610acd565b5b5f610c9d84828501610b17565b91505092915050565b5f8060408385031215610cbc57610cbb610acd565b5b5f610cc985828601610b17565b9250506020610cda85828601610b17565b9150509250929050565b7f4e487b71000000000000000000000000000000000000000000000000000000005f52602260045260245ffd5b5f6002820490506001821680610d2857607f821691505b602082108103610d3b57610d3a610ce4565b5b50919050565b610d4a81610af0565b82525050565b5f606082019050610d635f830186610d41565b610d706020830185610bcf565b610d7d6040830184610bcf565b949350505050565b5f602082019050610d985f830184610d41565b92915050565b7f4e487b71000000000000000000000000000000000000000000000000000000005f52601160045260245ffd5b5f610dd582610b2b565b9150610de083610b2b565b9250828201905080821115610df857610df7610d9e565b5b9291505056fea2646970667358221220e2a19f062a88546e52ace2767a3965cd3f778a2993b532da278fb5eed137371564736f6c63430008140033","linkReferences":{}},"methodIdentifiers":{"TOTAL_SUPPLY()":"902d55a5","allowance(address,address)":"dd62ed3e","approve(address,uint256)":"095ea7b3","balanceOf(address)":"70a08231","decimals()":"313ce567","name()":"06fdde03","symbol()":"95d89b41","totalSupply()":"18160ddd","transfer(address,uint256)":"a9059cbb","transferFrom(address,address,uint256)":"23b872dd"},"id":29}