{"abi":[{"type":"constructor","inputs":[{"name":"_name","type":"string","internalType":"string"},{"name":"_symbol","type":"string","internalType":"string"},{"name":"asset_","type":"address","internalType":"address"}],"stateMutability":"nonpayable"},{"type":"function","name":"DOMAIN_SEPARATOR","inputs":[],"outputs":[{"name":"","type":"bytes32","internalType":"bytes32"}],"stateMutability":"view"},{"type":"function","name":"_asset","inputs":[],"outputs":[{"name":"","type":"address","internalType":"contract IERC20"}],"stateMutability":"view"},{"type":"function","name":"allowance","inputs":[{"name":"owner","type":"address","internalType":"address"},{"name":"spender","type":"address","internalType":"address"}],"outputs":[{"name":"","type":"uint256","internalType":"uint256"}],"stateMutability":"view"},{"type":"function","name":"approve","inputs":[{"name":"spender","type":"address","internalType":"address"},{"name":"value","type":"uint256","internalType":"uint256"}],"outputs":[{"name":"","type":"bool","internalType":"bool"}],"stateMutability":"nonpayable"},{"type":"function","name":"asset","inputs":[],"outputs":[{"name":"","type":"address","internalType":"address"}],"stateMutability":"view"},{"type":"function","name":"balanceOf","inputs":[{"name":"account","type":"address","internalType":"address"}],"outputs":[{"name":"","type":"uint256","internalType":"uint256"}],"stateMutability":"view"},{"type":"function","name":"convertToAssets","inputs":[{"name":"shares","type":"uint256","internalType":"uint256"}],"outputs":[{"name":"","type":"uint256","internalType":"uint256"}],"stateMutability":"view"},{"type":"function","name":"convertToShares","inputs":[{"name":"assets","type":"uint256","internalType":"uint256"}],"outputs":[{"name":"","type":"uint256","internalType":"uint256"}],"stateMutability":"view"},{"type":"function","name":"decimals","inputs":[],"outputs":[{"name":"","type":"uint8","internalType":"uint8"}],"stateMutability":"view"},{"type":"function","name":"deposit","inputs":[{"name":"assets","type":"uint256","internalType":"uint256"},{"name":"receiver","type":"address","internalType":"address"}],"outputs":[{"name":"shares","type":"uint256","internalType":"uint256"}],"stateMutability":"nonpayable"},{"type":"function","name":"eip712Domain","inputs":[],"outputs":[{"name":"fields","type":"bytes1","internalType":"bytes1"},{"name":"name","type":"string","internalType":"string"},{"name":"version","type":"string","internalType":"string"},{"name":"chainId","type":"uint256","internalType":"uint256"},{"name":"verifyingContract","type":"address","internalType":"address"},{"name":"salt","type":"bytes32","internalType":"bytes32"},{"name":"extensions","type":"uint256[]","internalType":"uint256[]"}],"stateMutability":"view"},{"type":"function","name":"maxDeposit","inputs":[{"name":"","type":"address","internalType":"address"}],"outputs":[{"name":"","type":"uint256","internalType":"uint256"}],"stateMutability":"pure"},{"type":"function","name":"maxMint","inputs":[{"name":"","type":"address","internalType":"address"}],"outputs":[{"name":"","type":"uint256","internalType":"uint256"}],"stateMutability":"pure"},{"type":"function","name":"maxRedeem","inputs":[{"name":"owner","type":"address","internalType":"address"}],"outputs":[{"name":"","type":"uint256","internalType":"uint256"}],"stateMutability":"view"},{"type":"function","name":"maxWithdraw","inputs":[{"name":"owner","type":"address","internalType":"address"}],"outputs":[{"name":"","type":"uint256","internalType":"uint256"}],"stateMutability":"view"},{"type":"function","name":"mint","inputs":[{"name":"shares","type":"uint256","internalType":"uint256"},{"name":"receiver","type":"address","internalType":"address"}],"outputs":[{"name":"assets","type":"uint256","internalType":"uint256"}],"stateMutability":"nonpayable"},{"type":"function","name":"name","inputs":[],"outputs":[{"name":"","type":"string","internalType":"string"}],"stateMutability":"view"},{"type":"function","name":"nonces","inputs":[{"name":"owner","type":"address","internalType":"address"}],"outputs":[{"name":"","type":"uint256","internalType":"uint256"}],"stateMutability":"view"},{"type":"function","name":"permit","inputs":[{"name":"owner","type":"address","internalType":"address"},{"name":"spender","type":"address","internalType":"address"},{"name":"value","type":"uint256","internalType":"uint256"},{"name":"deadline","type":"uint256","internalType":"uint256"},{"name":"v","type":"uint8","internalType":"uint8"},{"name":"r","type":"bytes32","internalType":"bytes32"},{"name":"s","type":"bytes32","internalType":"bytes32"}],"outputs":[],"stateMutability":"nonpayable"},{"type":"function","name":"previewDeposit","inputs":[{"name":"assets","type":"uint256","internalType":"uint256"}],"outputs":[{"name":"","type":"uint256","internalType":"uint256"}],"stateMutability":"view"},{"type":"function","name":"previewMint","inputs":[{"name":"shares","type":"uint256","internalType":"uint256"}],"outputs":[{"name":"","type":"uint256","internalType":"uint256"}],"stateMutability":"view"},{"type":"function","name":"previewRedeem","inputs":[{"name":"shares","type":"uint256","internalType":"uint256"}],"outputs":[{"name":"","type":"uint256","internalType":"uint256"}],"stateMutability":"view"},{"type":"function","name":"previewWithdraw","inputs":[{"name":"assets","type":"uint256","internalType":"uint256"}],"outputs":[{"name":"","type":"uint256","internalType":"uint256"}],"stateMutability":"view"},{"type":"function","name":"redeem","inputs":[{"name":"shares","type":"uint256","internalType":"uint256"},{"name":"receiver","type":"address","internalType":"address"},{"name":"owner","type":"address","internalType":"address"}],"outputs":[{"name":"assets","type":"uint256","internalType":"uint256"}],"stateMutability":"nonpayable"},{"type":"function","name":"symbol","inputs":[],"outputs":[{"name":"","type":"string","internalType":"string"}],"stateMutability":"view"},{"type":"function","name":"totalAssets","inputs":[],"outputs":[{"name":"","type":"uint256","internalType":"uint256"}],"stateMutability":"view"},{"type":"function","name":"totalSupply","inputs":[],"outputs":[{"name":"","type":"uint256","internalType":"uint256"}],"stateMutability":"view"},{"type":"function","name":"transfer","inputs":[{"name":"to","type":"address","internalType":"address"},{"name":"value","type":"uint256","internalType":"uint256"}],"outputs":[{"name":"","type":"bool","internalType":"bool"}],"stateMutability":"nonpayable"},{"type":"function","name":"transferFrom","inputs":[{"name":"from","type":"address","internalType":"address"},{"name":"to","type":"address","internalType":"address"},{"name":"value","type":"uint256","internalType":"uint256"}],"outputs":[{"name":"","type":"bool","internalType":"bool"}],"stateMutability":"nonpayable"},{"type":"function","name":"withdraw","inputs":[{"name":"assets","type":"uint256","internalType":"uint256"},{"name":"receiver","type":"address","internalType":"address"},{"name":"owner","type":"address","internalType":"address"}],"outputs":[{"name":"shares","type":"uint256","internalType":"uint256"}],"stateMutability":"nonpayable"},{"type":"event","name":"Approval","inputs":[{"name":"owner","type":"address","indexed":true,"internalType":"address"},{"name":"spender","type":"address","indexed":true,"internalType":"address"},{"name":"value","type":"uint256","indexed":false,"internalType":"uint256"}],"anonymous":false},{"type":"event","name":"Deposit","inputs":[{"name":"sender","type":"address","indexed":true,"internalType":"address"},{"name":"owner","type":"address","indexed":true,"internalType":"address"},{"name":"assets","type":"uint256","indexed":false,"internalType":"uint256"},{"name":"shares","type":"uint256","indexed":false,"internalType":"uint256"}],"anonymous":false},{"type":"event","name":"EIP712DomainChanged","inputs":[],"anonymous":false},{"type":"event","name":"Transfer","inputs":[{"name":"from","type":"address","indexed":true,"internalType":"address"},{"name":"to","type":"address","indexed":true,"internalType":"address"},{"name":"value","type":"uint256","indexed":false,"internalType":"uint256"}],"anonymous":false},{"type":"event","name":"Withdraw","inputs":[{"name":"sender","type":"address","indexed":true,"internalType":"address"},{"name":"receiver","type":"address","indexed":true,"internalType":"address"},{"name":"owner","type":"address","indexed":true,"internalType":"address"},{"name":"assets","type":"uint256","indexed":false,"internalType":"uint256"},{"name":"shares","type":"uint256","indexed":false,"internalType":"uint256"}],"anonymous":false},{"type":"error","name":"ECDSAInvalidSignature","inputs":[]},{"type":"error","name":"ECDSAInvalidSignatureLength","inputs":[{"name":"length","type":"uint256","internalType":"uint256"}]},{"type":"error","name":"ECDSAInvalidSignatureS","inputs":[{"name":"s","type":"bytes32","internalType":"bytes32"}]},{"type":"error","name":"ERC20InsufficientAllowance","inputs":[{"name":"spender","type":"address","internalType":"address"},{"name":"allowance","type":"uint256","internalType":"uint256"},{"name":"needed","type":"uint256","internalType":"uint256"}]},{"type":"error","name":"ERC20InsufficientBalance","inputs":[{"name":"sender","type":"address","internalType":"address"},{"name":"balance","type":"uint256","internalType":"uint256"},{"name":"needed","type":"uint256","internalType":"uint256"}]},{"type":"error","name":"ERC20InvalidApprover","inputs":[{"name":"approver","type":"address","internalType":"address"}]},{"type":"error","name":"ERC20InvalidReceiver","inputs":[{"name":"receiver","type":"address","internalType":"address"}]},{"type":"error","name":"ERC20InvalidSender","inputs":[{"name":"sender","type":"address","internalType":"address"}]},{"type":"error","name":"ERC20InvalidSpender","inputs":[{"name":"spender","type":"address","internalType":"address"}]},{"type":"error","name":"ERC2612ExpiredSignature","inputs":[{"name":"deadline","type":"uint256","internalType":"uint256"}]},{"type":"error","name":"ERC2612InvalidSigner","inputs":[{"name":"signer","type":"address","internalType":"address"},{"name":"owner","type":"address","internalType":"address"}]},{"type":"error","name":"InvalidAccountNonce","inputs":[{"name":"account","type":"address","internalType":"address"},{"name":"currentNonce","type":"uint256","internalType":"uint256"}]},{"type":"error","name":"InvalidShortString","inputs":[]},{"type":"error","name":"ReentrancyGuardReentrantCall","inputs":[]},{"type":"error","name":"SafeERC20FailedOperation","inputs":[{"name":"token","type":"address","internalType":"address"}]},{"type":"error","name":"StringTooLong","inputs":[{"name":"str","type":"string","internalType":"string"}]}],"bytecode":{"object":"0x61018060405234801562000011575f80fd5b5060405162003bbd38038062003bbd833981810160405281019062000037919062000509565b82806040518060400160405280600181526020017f310000000000000000000000000000000000000000000000000000000000000081525085858160039081620000829190620007d7565b508060049081620000949190620007d7565b505050620000ad600583620001ff60201b90919060201c565b6101208181525050620000cb600682620001ff60201b90919060201c565b6101408181525050818051906020012060e08181525050808051906020012061010081815250504660a081815250506200010a6200025460201b60201c565b608081815250503073ffffffffffffffffffffffffffffffffffffffff1660c08173ffffffffffffffffffffffffffffffffffffffff168152505050505060016008819055505f73ffffffffffffffffffffffffffffffffffffffff168173ffffffffffffffffffffffffffffffffffffffff1603620001c1576040517f08c379a0000000000000000000000000000000000000000000000000000000008152600401620001b89062000919565b60405180910390fd5b8073ffffffffffffffffffffffffffffffffffffffff166101608173ffffffffffffffffffffffffffffffffffffffff168152505050505062000ad0565b5f60208351101562000224576200021c83620002b060201b60201c565b90506200024e565b8262000236836200031a60201b60201c565b5f019081620002469190620007d7565b5060ff5f1b90505b92915050565b5f7f8b73c3c69bb8fe3d512ecc4cf759cc79239f7b179b0ffacaa9a75d522b39400f60e0516101005146306040516020016200029595949392919062000975565b60405160208183030381529060405280519060200120905090565b5f80829050601f81511115620002ff57826040517f305a27a9000000000000000000000000000000000000000000000000000000008152600401620002f6919062000a10565b60405180910390fd5b8051816200030d9062000a61565b5f1c175f1b915050919050565b5f819050919050565b5f604051905090565b5f80fd5b5f80fd5b5f80fd5b5f80fd5b5f601f19601f8301169050919050565b7f4e487b71000000000000000000000000000000000000000000000000000000005f52604160045260245ffd5b62000384826200033c565b810181811067ffffffffffffffff82111715620003a657620003a56200034c565b5b80604052505050565b5f620003ba62000323565b9050620003c8828262000379565b919050565b5f67ffffffffffffffff821115620003ea57620003e96200034c565b5b620003f5826200033c565b9050602081019050919050565b5f5b838110156200042157808201518184015260208101905062000404565b5f8484015250505050565b5f620004426200043c84620003cd565b620003af565b90508281526020810184848401111562000461576200046062000338565b5b6200046e84828562000402565b509392505050565b5f82601f8301126200048d576200048c62000334565b5b81516200049f8482602086016200042c565b91505092915050565b5f73ffffffffffffffffffffffffffffffffffffffff82169050919050565b5f620004d382620004a8565b9050919050565b620004e581620004c7565b8114620004f0575f80fd5b50565b5f815190506200050381620004da565b92915050565b5f805f606084860312156200052357620005226200032c565b5b5f84015167ffffffffffffffff81111562000543576200054262000330565b5b620005518682870162000476565b935050602084015167ffffffffffffffff81111562000575576200057462000330565b5b620005838682870162000476565b92505060406200059686828701620004f3565b9150509250925092565b5f81519050919050565b7f4e487b71000000000000000000000000000000000000000000000000000000005f52602260045260245ffd5b5f6002820490506001821680620005ef57607f821691505b602082108103620006055762000604620005aa565b5b50919050565b5f819050815f5260205f209050919050565b5f6020601f8301049050919050565b5f82821b905092915050565b5f60088302620006697fffffffffffffffffffffffffffffffffffffffffffffffffffffffffffffffff826200062c565b6200067586836200062c565b95508019841693508086168417925050509392505050565b5f819050919050565b5f819050919050565b5f620006bf620006b9620006b3846200068d565b62000696565b6200068d565b9050919050565b5f819050919050565b620006da836200069f565b620006f2620006e982620006c6565b84845462000638565b825550505050565b5f90565b62000708620006fa565b62000715818484620006cf565b505050565b5b818110156200073c57620007305f82620006fe565b6001810190506200071b565b5050565b601f8211156200078b5762000755816200060b565b62000760846200061d565b8101602085101562000770578190505b620007886200077f856200061d565b8301826200071a565b50505b505050565b5f82821c905092915050565b5f620007ad5f198460080262000790565b1980831691505092915050565b5f620007c783836200079c565b9150826002028217905092915050565b620007e282620005a0565b67ffffffffffffffff811115620007fe57620007fd6200034c565b5b6200080a8254620005d7565b6200081782828562000740565b5f60209050601f8311600181146200084d575f841562000838578287015190505b620008448582620007ba565b865550620008b3565b601f1984166200085d866200060b565b5f5b8281101562000886578489015182556001820191506020850194506020810190506200085f565b86831015620008a65784890151620008a2601f8916826200079c565b8355505b6001600288020188555050505b505050505050565b5f82825260208201905092915050565b7f7a65726f206173736574000000000000000000000000000000000000000000005f82015250565b5f62000901600a83620008bb565b91506200090e82620008cb565b602082019050919050565b5f6020820190508181035f8301526200093281620008f3565b9050919050565b5f819050919050565b6200094d8162000939565b82525050565b6200095e816200068d565b82525050565b6200096f81620004c7565b82525050565b5f60a0820190506200098a5f83018862000942565b62000999602083018762000942565b620009a8604083018662000942565b620009b7606083018562000953565b620009c6608083018462000964565b9695505050505050565b5f620009dc82620005a0565b620009e88185620008bb565b9350620009fa81856020860162000402565b62000a05816200033c565b840191505092915050565b5f6020820190508181035f83015262000a2a8184620009d0565b905092915050565b5f81519050919050565b5f819050602082019050919050565b5f62000a58825162000939565b80915050919050565b5f62000a6d8262000a32565b8262000a798462000a3c565b905062000a868162000a4b565b9250602082101562000ac95762000ac47fffffffffffffffffffffffffffffffffffffffffffffffffffffffffffffffff836020036008026200062c565b831692505b5050919050565b60805160a05160c05160e0516101005161012051610140516101605161306762000b565f395f81816106cf0152818161090f01528181610a0d01528181610c0c01528181610f32015281816110f301526113b601525f61180401525f6117c901525f611dfb01525f611dda01525f61157601525f6115cc01525f6115f501526130675ff3fe608060405234801561000f575f80fd5b50600436106101d8575f3560e01c806384b0196e11610102578063c63d75b6116100a0578063d905777e1161006f578063d905777e1461061e578063dd62ed3e1461064e578063ef8b30f71461067e578063fcea5e29146106ae576101d8565b8063c63d75b614610572578063c6e6f592146105a2578063ce96cb77146105d2578063d505accf14610602576101d8565b8063a9059cbb116100dc578063a9059cbb146104b2578063b3d7f6b9146104e2578063b460af9414610512578063ba08765214610542576101d8565b806384b0196e1461044057806394bf804d1461046457806395d89b4114610494576101d8565b8063313ce5671161017a5780634cdad506116101495780634cdad506146103805780636e553f65146103b057806370a08231146103e05780637ecebe0014610410576101d8565b8063313ce567146102f65780633644e5151461031457806338d52e0f14610332578063402d267d14610350576101d8565b8063095ea7b3116101b6578063095ea7b3146102485780630a28a4771461027857806318160ddd146102a857806323b872dd146102c6576101d8565b806301e1d114146101dc57806306fdde03146101fa57806307a2d13a14610218575b5f80fd5b6101e46106cc565b6040516101f191906122f4565b60405180910390f35b61020261076a565b60405161020f9190612397565b60405180910390f35b610232600480360381019061022d91906123e5565b6107fa565b60405161023f91906122f4565b60405180910390f35b610262600480360381019061025d919061246a565b61083d565b60405161026f91906124c2565b60405180910390f35b610292600480360381019061028d91906123e5565b61085f565b60405161029f91906122f4565b60405180910390f35b6102b06108bf565b6040516102bd91906122f4565b60405180910390f35b6102e060048036038101906102db91906124db565b6108c8565b6040516102ed91906124c2565b60405180910390f35b6102fe6108f6565b60405161030b9190612546565b60405180910390f35b61031c6108fe565b6040516103299190612577565b60405180910390f35b61033a61090c565b604051610347919061259f565b60405180910390f35b61036a600480360381019061036591906125b8565b610933565b60405161037791906122f4565b60405180910390f35b61039a600480360381019061039591906123e5565b61095c565b6040516103a791906122f4565b60405180910390f35b6103ca60048036038101906103c591906125e3565b61096d565b6040516103d791906122f4565b60405180910390f35b6103fa60048036038101906103f591906125b8565b610a6a565b60405161040791906122f4565b60405180910390f35b61042a600480360381019061042591906125b8565b610aaf565b60405161043791906122f4565b60405180910390f35b610448610ac0565b60405161045b9796959493929190612712565b60405180910390f35b61047e600480360381019061047991906125e3565b610b65565b60405161048b91906122f4565b60405180910390f35b61049c610c6b565b6040516104a99190612397565b60405180910390f35b6104cc60048036038101906104c7919061246a565b610cfb565b6040516104d991906124c2565b60405180910390f35b6104fc60048036038101906104f791906123e5565b610d1d565b60405161050991906122f4565b60405180910390f35b61052c60048036038101906105279190612794565b610d7d565b60405161053991906122f4565b60405180910390f35b61055c60048036038101906105579190612794565b610f87565b60405161056991906122f4565b60405180910390f35b61058c600480360381019061058791906125b8565b611146565b60405161059991906122f4565b60405180910390f35b6105bc60048036038101906105b791906123e5565b61116f565b6040516105c991906122f4565b60405180910390f35b6105ec60048036038101906105e791906125b8565b6111b2565b6040516105f991906122f4565b60405180910390f35b61061c60048036038101906106179190612838565b6111cb565b005b610638600480360381019061063391906125b8565b611310565b60405161064591906122f4565b60405180910390f35b610668600480360381019061066391906128d5565b611321565b60405161067591906122f4565b60405180910390f35b610698600480360381019061069391906123e5565b6113a3565b6040516106a591906122f4565b60405180910390f35b6106b66113b4565b6040516106c3919061296e565b60405180910390f35b5f7f000000000000000000000000000000000000000000000000000000000000000073ffffffffffffffffffffffffffffffffffffffff166370a08231306040518263ffffffff1660e01b8152600401610726919061259f565b602060405180830381865afa158015610741573d5f803e3d5ffd5b505050506040513d601f19601f82011682018060405250810190610765919061299b565b905090565b606060038054610779906129f3565b80601f01602080910402602001604051908101604052809291908181526020018280546107a5906129f3565b80156107f05780601f106107c7576101008083540402835291602001916107f0565b820191905f5260205f20905b8154815290600101906020018083116107d357829003601f168201915b5050505050905090565b5f806108046108bf565b90505f81036108165782915050610838565b8061081f6106cc565b8461082a9190612a50565b6108349190612abe565b9150505b919050565b5f806108476113d8565b90506108548185856113df565b600191505092915050565b5f806108696108bf565b90505f6108746106cc565b90505f82036108875783925050506108ba565b8060018284876108979190612a50565b6108a19190612aee565b6108ab9190612b21565b6108b59190612abe565b925050505b919050565b5f600254905090565b5f806108d26113d8565b90506108df8582856113f1565b6108ea858585611483565b60019150509392505050565b5f6012905090565b5f610907611573565b905090565b5f7f0000000000000000000000000000000000000000000000000000000000000000905090565b5f7fffffffffffffffffffffffffffffffffffffffffffffffffffffffffffffffff9050919050565b5f610966826107fa565b9050919050565b5f610976611629565b5f83116109b8576040517f08c379a00000000000000000000000000000000000000000000000000000000081526004016109af90612b9e565b60405180910390fd5b6109c18361116f565b90505f8111610a05576040517f08c379a00000000000000000000000000000000000000000000000000000000081526004016109fc90612c06565b60405180910390fd5b610a523330857f000000000000000000000000000000000000000000000000000000000000000073ffffffffffffffffffffffffffffffffffffffff1661166f909392919063ffffffff16565b610a5c82826116f1565b610a64611770565b92915050565b5f805f8373ffffffffffffffffffffffffffffffffffffffff1673ffffffffffffffffffffffffffffffffffffffff1681526020019081526020015f20549050919050565b5f610ab98261177a565b9050919050565b5f6060805f805f6060610ad16117c0565b610ad96117fb565b46305f801b5f67ffffffffffffffff811115610af857610af7612c24565b5b604051908082528060200260200182016040528015610b265781602001602082028036833780820191505090505b507f0f00000000000000000000000000000000000000000000000000000000000000959493929190965096509650965096509650965090919293949596565b5f610b6e611629565b5f8311610bb0576040517f08c379a0000000000000000000000000000000000000000000000000000000008152600401610ba790612c9b565b60405180910390fd5b5f610bb96108bf565b90505f610bc46106cc565b90505f8214610c0057816001838388610bdd9190612a50565b610be79190612aee565b610bf19190612b21565b610bfb9190612abe565b610c02565b845b9250610c513330857f000000000000000000000000000000000000000000000000000000000000000073ffffffffffffffffffffffffffffffffffffffff1661166f909392919063ffffffff16565b610c5b84866116f1565b5050610c65611770565b92915050565b606060048054610c7a906129f3565b80601f0160208091040260200160405190810160405280929190818152602001828054610ca6906129f3565b8015610cf15780601f10610cc857610100808354040283529160200191610cf1565b820191905f5260205f20905b815481529060010190602001808311610cd457829003601f168201915b5050505050905090565b5f80610d056113d8565b9050610d12818585611483565b600191505092915050565b5f80610d276108bf565b90505f610d326106cc565b90505f8203610d45578392505050610d78565b816001838387610d559190612a50565b610d5f9190612aee565b610d699190612b21565b610d739190612abe565b925050505b919050565b5f610d86611629565b5f8411610dc8576040517f08c379a0000000000000000000000000000000000000000000000000000000008152600401610dbf90612d03565b60405180910390fd5b5f610dd16108bf565b90505f610ddc6106cc565b90505f8214610e1857806001828489610df59190612a50565b610dff9190612aee565b610e099190612b21565b610e139190612abe565b610e1a565b855b92505f8311610e5e576040517f08c379a0000000000000000000000000000000000000000000000000000000008152600401610e5590612c06565b60405180910390fd5b8373ffffffffffffffffffffffffffffffffffffffff163373ffffffffffffffffffffffffffffffffffffffff1614610f21575f610e9c8533611321565b90507fffffffffffffffffffffffffffffffffffffffffffffffffffffffffffffffff8114610f1f5783811015610f08576040517f08c379a0000000000000000000000000000000000000000000000000000000008152600401610eff90612d6b565b60405180910390fd5b610f1e85338684610f199190612b21565b6113df565b5b505b610f2b8484611836565b610f7685877f000000000000000000000000000000000000000000000000000000000000000073ffffffffffffffffffffffffffffffffffffffff166118b59092919063ffffffff16565b5050610f80611770565b9392505050565b5f610f90611629565b5f8411610fd2576040517f08c379a0000000000000000000000000000000000000000000000000000000008152600401610fc990612dd3565b60405180910390fd5b610fdb846107fa565b90505f811161101f576040517f08c379a000000000000000000000000000000000000000000000000000000000815260040161101690612e3b565b60405180910390fd5b8173ffffffffffffffffffffffffffffffffffffffff163373ffffffffffffffffffffffffffffffffffffffff16146110e2575f61105d8333611321565b90507fffffffffffffffffffffffffffffffffffffffffffffffffffffffffffffffff81146110e057848110156110c9576040517f08c379a00000000000000000000000000000000000000000000000000000000081526004016110c090612d6b565b60405180910390fd5b6110df833387846110da9190612b21565b6113df565b5b505b6110ec8285611836565b61113783827f000000000000000000000000000000000000000000000000000000000000000073ffffffffffffffffffffffffffffffffffffffff166118b59092919063ffffffff16565b61113f611770565b9392505050565b5f7fffffffffffffffffffffffffffffffffffffffffffffffffffffffffffffffff9050919050565b5f806111796108bf565b90505f810361118b57829150506111ad565b6111936106cc565b818461119f9190612a50565b6111a99190612abe565b9150505b919050565b5f6111c46111bf83610a6a565b6107fa565b9050919050565b8342111561121057836040517f6279130200000000000000000000000000000000000000000000000000000000815260040161120791906122f4565b60405180910390fd5b5f7f6e71edae12b1b97f4d1f60370fef10105fa2faae0126114a169c64845d6126c988888861123e8c611934565b8960405160200161125496959493929190612e59565b6040516020818303038152906040528051906020012090505f61127682611987565b90505f611285828787876119a0565b90508973ffffffffffffffffffffffffffffffffffffffff168173ffffffffffffffffffffffffffffffffffffffff16146112f957808a6040517f4b800e460000000000000000000000000000000000000000000000000000000081526004016112f0929190612eb8565b60405180910390fd5b6113048a8a8a6113df565b50505050505050505050565b5f61131a82610a6a565b9050919050565b5f60015f8473ffffffffffffffffffffffffffffffffffffffff1673ffffffffffffffffffffffffffffffffffffffff1681526020019081526020015f205f8373ffffffffffffffffffffffffffffffffffffffff1673ffffffffffffffffffffffffffffffffffffffff1681526020019081526020015f2054905092915050565b5f6113ad8261116f565b9050919050565b7f000000000000000000000000000000000000000000000000000000000000000081565b5f33905090565b6113ec83838360016119ce565b505050565b5f6113fc8484611321565b90507fffffffffffffffffffffffffffffffffffffffffffffffffffffffffffffffff811461147d578181101561146e578281836040517ffb8f41b200000000000000000000000000000000000000000000000000000000815260040161146593929190612edf565b60405180910390fd5b61147c84848484035f6119ce565b5b50505050565b5f73ffffffffffffffffffffffffffffffffffffffff168373ffffffffffffffffffffffffffffffffffffffff16036114f3575f6040517f96c6fd1e0000000000000000000000000000000000000000000000000000000081526004016114ea919061259f565b60405180910390fd5b5f73ffffffffffffffffffffffffffffffffffffffff168273ffffffffffffffffffffffffffffffffffffffff1603611563575f6040517fec442f0500000000000000000000000000000000000000000000000000000000815260040161155a919061259f565b60405180910390fd5b61156e838383611b9d565b505050565b5f7f000000000000000000000000000000000000000000000000000000000000000073ffffffffffffffffffffffffffffffffffffffff163073ffffffffffffffffffffffffffffffffffffffff161480156115ee57507f000000000000000000000000000000000000000000000000000000000000000046145b1561161b577f00000000000000000000000000000000000000000000000000000000000000009050611626565b611623611db6565b90505b90565b600260085403611665576040517f3ee5aeb500000000000000000000000000000000000000000000000000000000815260040160405180910390fd5b6002600881905550565b6116eb848573ffffffffffffffffffffffffffffffffffffffff166323b872dd8686866040516024016116a493929190612f14565b604051602081830303815290604052915060e01b6020820180517bffffffffffffffffffffffffffffffffffffffffffffffffffffffff8381831617835250505050611e4b565b50505050565b5f73ffffffffffffffffffffffffffffffffffffffff168273ffffffffffffffffffffffffffffffffffffffff1603611761575f6040517fec442f05000000000000000000000000000000000000000000000000000000008152600401611758919061259f565b60405180910390fd5b61176c5f8383611b9d565b5050565b6001600881905550565b5f60075f8373ffffffffffffffffffffffffffffffffffffffff1673ffffffffffffffffffffffffffffffffffffffff1681526020019081526020015f20549050919050565b60606117f660057f0000000000000000000000000000000000000000000000000000000000000000611ee690919063ffffffff16565b905090565b606061183160067f0000000000000000000000000000000000000000000000000000000000000000611ee690919063ffffffff16565b905090565b5f73ffffffffffffffffffffffffffffffffffffffff168273ffffffffffffffffffffffffffffffffffffffff16036118a6575f6040517f96c6fd1e00000000000000000000000000000000000000000000000000000000815260040161189d919061259f565b60405180910390fd5b6118b1825f83611b9d565b5050565b61192f838473ffffffffffffffffffffffffffffffffffffffff1663a9059cbb85856040516024016118e8929190612f49565b604051602081830303815290604052915060e01b6020820180517bffffffffffffffffffffffffffffffffffffffffffffffffffffffff8381831617835250505050611e4b565b505050565b5f60075f8373ffffffffffffffffffffffffffffffffffffffff1673ffffffffffffffffffffffffffffffffffffffff1681526020019081526020015f205f815480929190600101919050559050919050565b5f611999611993611573565b83611f93565b9050919050565b5f805f806119b088888888611fd3565b9250925092506119c082826120ba565b829350505050949350505050565b5f73ffffffffffffffffffffffffffffffffffffffff168473ffffffffffffffffffffffffffffffffffffffff1603611a3e575f6040517fe602df05000000000000000000000000000000000000000000000000000000008152600401611a35919061259f565b60405180910390fd5b5f73ffffffffffffffffffffffffffffffffffffffff168373ffffffffffffffffffffffffffffffffffffffff1603611aae575f6040517f94280d62000000000000000000000000000000000000000000000000000000008152600401611aa5919061259f565b60405180910390fd5b8160015f8673ffffffffffffffffffffffffffffffffffffffff1673ffffffffffffffffffffffffffffffffffffffff1681526020019081526020015f205f8573ffffffffffffffffffffffffffffffffffffffff1673ffffffffffffffffffffffffffffffffffffffff1681526020019081526020015f20819055508015611b97578273ffffffffffffffffffffffffffffffffffffffff168473ffffffffffffffffffffffffffffffffffffffff167f8c5be1e5ebec7d5bd14f71427d1e84f3dd0314c0f7b2291e5b200ac8c7c3b92584604051611b8e91906122f4565b60405180910390a35b50505050565b5f73ffffffffffffffffffffffffffffffffffffffff168373ffffffffffffffffffffffffffffffffffffffff1603611bed578060025f828254611be19190612aee565b92505081905550611cbb565b5f805f8573ffffffffffffffffffffffffffffffffffffffff1673ffffffffffffffffffffffffffffffffffffffff1681526020019081526020015f2054905081811015611c76578381836040517fe450d38c000000000000000000000000000000000000000000000000000000008152600401611c6d93929190612edf565b60405180910390fd5b8181035f808673ffffffffffffffffffffffffffffffffffffffff1673ffffffffffffffffffffffffffffffffffffffff1681526020019081526020015f2081905550505b5f73ffffffffffffffffffffffffffffffffffffffff168273ffffffffffffffffffffffffffffffffffffffff1603611d02578060025f8282540392505081905550611d4c565b805f808473ffffffffffffffffffffffffffffffffffffffff1673ffffffffffffffffffffffffffffffffffffffff1681526020019081526020015f205f82825401925050819055505b8173ffffffffffffffffffffffffffffffffffffffff168373ffffffffffffffffffffffffffffffffffffffff167fddf252ad1be2c89b69c2b068fc378daa952ba7f163c4a11628f55a4df523b3ef83604051611da991906122f4565b60405180910390a3505050565b5f7f8b73c3c69bb8fe3d512ecc4cf759cc79239f7b179b0ffacaa9a75d522b39400f7f00000000000000000000000000000000000000000000000000000000000000007f00000000000000000000000000000000000000000000000000000000000000004630604051602001611e30959493929190612f70565b60405160208183030381529060405280519060200120905090565b5f8060205f8451602086015f885af180611e6a576040513d5f823e3d81fd5b3d92505f519150505f8214611e83576001811415611e9e565b5f8473ffffffffffffffffffffffffffffffffffffffff163b145b15611ee057836040517f5274afe7000000000000000000000000000000000000000000000000000000008152600401611ed7919061259f565b60405180910390fd5b50505050565b606060ff5f1b8314611f0257611efb8361221c565b9050611f8d565b818054611f0e906129f3565b80601f0160208091040260200160405190810160405280929190818152602001828054611f3a906129f3565b8015611f855780601f10611f5c57610100808354040283529160200191611f85565b820191905f5260205f20905b815481529060010190602001808311611f6857829003601f168201915b505050505090505b92915050565b5f6040517f190100000000000000000000000000000000000000000000000000000000000081528360028201528260228201526042812091505092915050565b5f805f7f7fffffffffffffffffffffffffffffff5d576e7357a4501ddfe92f46681b20a0845f1c111561200f575f6003859250925092506120b0565b5f6001888888886040515f81526020016040526040516120329493929190612fc1565b6020604051602081039080840390855afa158015612052573d5f803e3d5ffd5b5050506020604051035190505f73ffffffffffffffffffffffffffffffffffffffff168173ffffffffffffffffffffffffffffffffffffffff16036120a3575f60015f801b935093509350506120b0565b805f805f1b935093509350505b9450945094915050565b5f60038111156120cd576120cc613004565b5b8260038111156120e0576120df613004565b5b031561221857600160038111156120fa576120f9613004565b5b82600381111561210d5761210c613004565b5b03612144576040517ff645eedf00000000000000000000000000000000000000000000000000000000815260040160405180910390fd5b6002600381111561215857612157613004565b5b82600381111561216b5761216a613004565b5b036121af57805f1c6040517ffce698f70000000000000000000000000000000000000000000000000000000081526004016121a691906122f4565b60405180910390fd5b6003808111156121c2576121c1613004565b5b8260038111156121d5576121d4613004565b5b0361221757806040517fd78bce0c00000000000000000000000000000000000000000000000000000000815260040161220e9190612577565b60405180910390fd5b5b5050565b60605f6122288361228e565b90505f602067ffffffffffffffff81111561224657612245612c24565b5b6040519080825280601f01601f1916602001820160405280156122785781602001600182028036833780820191505090505b5090508181528360208201528092505050919050565b5f8060ff835f1c169050601f8111156122d3576040517fb3512b0c00000000000000000000000000000000000000000000000000000000815260040160405180910390fd5b80915050919050565b5f819050919050565b6122ee816122dc565b82525050565b5f6020820190506123075f8301846122e5565b92915050565b5f81519050919050565b5f82825260208201905092915050565b5f5b83811015612344578082015181840152602081019050612329565b5f8484015250505050565b5f601f19601f8301169050919050565b5f6123698261230d565b6123738185612317565b9350612383818560208601612327565b61238c8161234f565b840191505092915050565b5f6020820190508181035f8301526123af818461235f565b905092915050565b5f80fd5b6123c4816122dc565b81146123ce575f80fd5b50565b5f813590506123df816123bb565b92915050565b5f602082840312156123fa576123f96123b7565b5b5f612407848285016123d1565b91505092915050565b5f73ffffffffffffffffffffffffffffffffffffffff82169050919050565b5f61243982612410565b9050919050565b6124498161242f565b8114612453575f80fd5b50565b5f8135905061246481612440565b92915050565b5f80604083850312156124805761247f6123b7565b5b5f61248d85828601612456565b925050602061249e858286016123d1565b9150509250929050565b5f8115159050919050565b6124bc816124a8565b82525050565b5f6020820190506124d55f8301846124b3565b92915050565b5f805f606084860312156124f2576124f16123b7565b5b5f6124ff86828701612456565b935050602061251086828701612456565b9250506040612521868287016123d1565b9150509250925092565b5f60ff82169050919050565b6125408161252b565b82525050565b5f6020820190506125595f830184612537565b92915050565b5f819050919050565b6125718161255f565b82525050565b5f60208201905061258a5f830184612568565b92915050565b6125998161242f565b82525050565b5f6020820190506125b25f830184612590565b92915050565b5f602082840312156125cd576125cc6123b7565b5b5f6125da84828501612456565b91505092915050565b5f80604083850312156125f9576125f86123b7565b5b5f612606858286016123d1565b925050602061261785828601612456565b9150509250929050565b5f7fff0000000000000000000000000000000000000000000000000000000000000082169050919050565b61265581612621565b82525050565b5f81519050919050565b5f82825260208201905092915050565b5f819050602082019050919050565b61268d816122dc565b82525050565b5f61269e8383612684565b60208301905092915050565b5f602082019050919050565b5f6126c08261265b565b6126ca8185612665565b93506126d583612675565b805f5b838110156127055781516126ec8882612693565b97506126f7836126aa565b9250506001810190506126d8565b5085935050505092915050565b5f60e0820190506127255f83018a61264c565b8181036020830152612737818961235f565b9050818103604083015261274b818861235f565b905061275a60608301876122e5565b6127676080830186612590565b61277460a0830185612568565b81810360c083015261278681846126b6565b905098975050505050505050565b5f805f606084860312156127ab576127aa6123b7565b5b5f6127b8868287016123d1565b93505060206127c986828701612456565b92505060406127da86828701612456565b9150509250925092565b6127ed8161252b565b81146127f7575f80fd5b50565b5f81359050612808816127e4565b92915050565b6128178161255f565b8114612821575f80fd5b50565b5f813590506128328161280e565b92915050565b5f805f805f805f60e0888a031215612853576128526123b7565b5b5f6128608a828b01612456565b97505060206128718a828b01612456565b96505060406128828a828b016123d1565b95505060606128938a828b016123d1565b94505060806128a48a828b016127fa565b93505060a06128b58a828b01612824565b92505060c06128c68a828b01612824565b91505092959891949750929550565b5f80604083850312156128eb576128ea6123b7565b5b5f6128f885828601612456565b925050602061290985828601612456565b9150509250929050565b5f819050919050565b5f61293661293161292c84612410565b612913565b612410565b9050919050565b5f6129478261291c565b9050919050565b5f6129588261293d565b9050919050565b6129688161294e565b82525050565b5f6020820190506129815f83018461295f565b92915050565b5f81519050612995816123bb565b92915050565b5f602082840312156129b0576129af6123b7565b5b5f6129bd84828501612987565b91505092915050565b7f4e487b71000000000000000000000000000000000000000000000000000000005f52602260045260245ffd5b5f6002820490506001821680612a0a57607f821691505b602082108103612a1d57612a1c6129c6565b5b50919050565b7f4e487b71000000000000000000000000000000000000000000000000000000005f52601160045260245ffd5b5f612a5a826122dc565b9150612a65836122dc565b9250828202612a73816122dc565b91508282048414831517612a8a57612a89612a23565b5b5092915050565b7f4e487b71000000000000000000000000000000000000000000000000000000005f52601260045260245ffd5b5f612ac8826122dc565b9150612ad3836122dc565b925082612ae357612ae2612a91565b5b828204905092915050565b5f612af8826122dc565b9150612b03836122dc565b9250828201905080821115612b1b57612b1a612a23565b5b92915050565b5f612b2b826122dc565b9150612b36836122dc565b9250828203905081811115612b4e57612b4d612a23565b5b92915050565b7f7a65726f206465706f73697400000000000000000000000000000000000000005f82015250565b5f612b88600c83612317565b9150612b9382612b54565b602082019050919050565b5f6020820190508181035f830152612bb581612b7c565b9050919050565b7f7a65726f207368617265730000000000000000000000000000000000000000005f82015250565b5f612bf0600b83612317565b9150612bfb82612bbc565b602082019050919050565b5f6020820190508181035f830152612c1d81612be4565b9050919050565b7f4e487b71000000000000000000000000000000000000000000000000000000005f52604160045260245ffd5b7f7a65726f206d696e7400000000000000000000000000000000000000000000005f82015250565b5f612c85600983612317565b9150612c9082612c51565b602082019050919050565b5f6020820190508181035f830152612cb281612c79565b9050919050565b7f7a65726f207769746864726177000000000000000000000000000000000000005f82015250565b5f612ced600d83612317565b9150612cf882612cb9565b602082019050919050565b5f6020820190508181035f830152612d1a81612ce1565b9050919050565b7f696e73756666696369656e7420616c6c6f77616e6365000000000000000000005f82015250565b5f612d55601683612317565b9150612d6082612d21565b602082019050919050565b5f6020820190508181035f830152612d8281612d49565b9050919050565b7f7a65726f2072656465656d0000000000000000000000000000000000000000005f82015250565b5f612dbd600b83612317565b9150612dc882612d89565b602082019050919050565b5f6020820190508181035f830152612dea81612db1565b9050919050565b7f7a65726f206173736574730000000000000000000000000000000000000000005f82015250565b5f612e25600b83612317565b9150612e3082612df1565b602082019050919050565b5f6020820190508181035f830152612e5281612e19565b9050919050565b5f60c082019050612e6c5f830189612568565b612e796020830188612590565b612e866040830187612590565b612e9360608301866122e5565b612ea060808301856122e5565b612ead60a08301846122e5565b979650505050505050565b5f604082019050612ecb5f830185612590565b612ed86020830184612590565b9392505050565b5f606082019050612ef25f830186612590565b612eff60208301856122e5565b612f0c60408301846122e5565b949350505050565b5f606082019050612f275f830186612590565b612f346020830185612590565b612f4160408301846122e5565b949350505050565b5f604082019050612f5c5f830185612590565b612f6960208301846122e5565b9392505050565b5f60a082019050612f835f830188612568565b612f906020830187612568565b612f9d6040830186612568565b612faa60608301856122e5565b612fb76080830184612590565b9695505050505050565b5f608082019050612fd45f830187612568565b612fe16020830186612537565b612fee6040830185612568565b612ffb6060830184612568565b95945050505050565b7f4e487b71000000000000000000000000000000000000000000000000000000005f52602160045260245ffdfea264697066735822122074d4da6250d085c781a967192187cf52a8f35ea13102b0126ed7683e73d5dad564736f6c63430008140033","linkReferences":{}},"methodIdentifiers":{"DOMAIN_SEPARATOR()":"3644e515","_asset()":"fcea5e29","allowance(address,address)":"dd62ed3e","approve(address,uint256)":"095ea7b3","asset()":"38d52e0f","balanceOf(address)":"70a08231","convertToAssets(uint256)":"07a2d13a","convertToShares(uint256)":"c6e6f592","decimals()":"313ce567","deposit(uint256,address)":"6e553f65","eip712Domain()":"84b0196e","maxDeposit(address)":"402d267d","maxMint(address)":"c63d75b6","maxRedeem(address)":"d905777e","maxWithdraw(address)":"ce96cb77","mint(uint256,address)":"94bf804d","name()":"06fdde03","nonces(address)":"7ecebe00","permit(address,address,uint256,uint256,uint8,bytes32,bytes32)":"d505accf","previewDeposit(uint256)":"ef8b30f7","previewMint(uint256)":"b3d7f6b9","previewRedeem(uint256)":"4cdad506","previewWithdraw(uint256)":"0a28a477","redeem(uint256,address,address)":"ba087652","symbol()":"95d89b41","totalAssets()":"01e1d114","totalSupply()":"18160ddd","transfer(address,uint256)":"a9059cbb","transferFrom(address,address,uint256)":"23b872dd","withdraw(uint256,address,address)":"b460af94"},"id":53}