{"abi":[{"type":"constructor","inputs":[{"name":"name_","type":"string","internalType":"string"},{"name":"symbol_","type":"string","internalType":"string"},{"name":"asset_","type":"address","internalType":"address"}],"stateMutability":"nonpayable"},{"type":"function","name":"allowance","inputs":[{"name":"owner","type":"address","internalType":"address"},{"name":"spender","type":"address","internalType":"address"}],"outputs":[{"name":"","type":"uint256","internalType":"uint256"}],"stateMutability":"view"},{"type":"function","name":"approve","inputs":[{"name":"spender","type":"address","internalType":"address"},{"name":"value","type":"uint256","internalType":"uint256"}],"outputs":[{"name":"","type":"bool","internalType":"bool"}],"stateMutability":"nonpayable"},{"type":"function","name":"asset","inputs":[],"outputs":[{"name":"","type":"address","internalType":"address"}],"stateMutability":"view"},{"type":"function","name":"balanceOf","inputs":[{"name":"account","type":"address","internalType":"address"}],"outputs":[{"name":"","type":"uint256","internalType":"uint256"}],"stateMutability":"view"},{"type":"function","name":"convertToAssets","inputs":[{"name":"shares","type":"uint256","internalType":"uint256"}],"outputs":[{"name":"","type":"uint256","internalType":"uint256"}],"stateMutability":"view"},{"type":"function","name":"convertToShares","inputs":[{"name":"assets","type":"uint256","internalType":"uint256"}],"outputs":[{"name":"","type":"uint256","internalType":"uint256"}],"stateMutability":"view"},{"type":"function","name":"decimals","inputs":[],"outputs":[{"name":"","type":"uint8","internalType":"uint8"}],"stateMutability":"view"},{"type":"function","name":"deposit","inputs":[{"name":"assets","type":"uint256","internalType":"uint256"},{"name":"receiver","type":"address","internalType":"address"}],"outputs":[{"name":"","type":"uint256","internalType":"uint256"}],"stateMutability":"nonpayable"},{"type":"function","name":"maxDeposit","inputs":[{"name":"","type":"address","internalType":"address"}],"outputs":[{"name":"","type":"uint256","internalType":"uint256"}],"stateMutability":"view"},{"type":"function","name":"maxMint","inputs":[{"name":"","type":"address","internalType":"address"}],"outputs":[{"name":"","type":"uint256","internalType":"uint256"}],"stateMutability":"view"},{"type":"function","name":"maxRedeem","inputs":[{"name":"owner","type":"address","internalType":"address"}],"outputs":[{"name":"","type":"uint256","internalType":"uint256"}],"stateMutability":"view"},{"type":"function","name":"maxWithdraw","inputs":[{"name":"owner","type":"address","internalType":"address"}],"outputs":[{"name":"","type":"uint256","internalType":"uint256"}],"stateMutability":"view"},{"type":"function","name":"mint","inputs":[{"name":"shares","type":"uint256","internalType":"uint256"},{"name":"receiver","type":"address","internalType":"address"}],"outputs":[{"name":"","type":"uint256","internalType":"uint256"}],"stateMutability":"nonpayable"},{"type":"function","name":"name","inputs":[],"outputs":[{"name":"","type":"string","internalType":"string"}],"stateMutability":"view"},{"type":"function","name":"previewDeposit","inputs":[{"name":"assets","type":"uint256","internalType":"uint256"}],"outputs":[{"name":"","type":"uint256","internalType":"uint256"}],"stateMutability":"view"},{"type":"function","name":"previewMint","inputs":[{"name":"shares","type":"uint256","internalType":"uint256"}],"outputs":[{"name":"","type":"uint256","internalType":"uint256"}],"stateMutability":"view"},{"type":"function","name":"previewRedeem","inputs":[{"name":"shares","type":"uint256","internalType":"uint256"}],"outputs":[{"name":"","type":"uint256","internalType":"uint256"}],"stateMutability":"view"},{"type":"function","name":"previewWithdraw","inputs":[{"name":"assets","type":"uint256","internalType":"uint256"}],"outputs":[{"name":"","type":"uint256","internalType":"uint256"}],"stateMutability":"view"},{"type":"function","name":"redeem","inputs":[{"name":"shares","type":"uint256","internalType":"uint256"},{"name":"receiver","type":"address","internalType":"address"},{"name":"owner","type":"address","internalType":"address"}],"outputs":[{"name":"","type":"uint256","internalType":"uint256"}],"stateMutability":"nonpayable"},{"type":"function","name":"symbol","inputs":[],"outputs":[{"name":"","type":"string","internalType":"string"}],"stateMutability":"view"},{"type":"function","name":"totalAssets","inputs":[],"outputs":[{"name":"","type":"uint256","internalType":"uint256"}],"stateMutability":"view"},{"type":"function","name":"totalSupply","inputs":[],"outputs":[{"name":"","type":"uint256","internalType":"uint256"}],"stateMutability":"view"},{"type":"function","name":"transfer","inputs":[{"name":"to","type":"address","internalType":"address"},{"name":"value","type":"uint256","internalType":"uint256"}],"outputs":[{"name":"","type":"bool","internalType":"bool"}],"stateMutability":"nonpayable"},{"type":"function","name":"transferFrom","inputs":[{"name":"from","type":"address","internalType":"address"},{"name":"to","type":"address","internalType":"address"},{"name":"value","type":"uint256","internalType":"uint256"}],"outputs":[{"name":"","type":"bool","internalType":"bool"}],"stateMutability":"nonpayable"},{"type":"function","name":"withdraw","inputs":[{"name":"assets","type":"uint256","internalType":"uint256"},{"name":"receiver","type":"address","internalType":"address"},{"name":"owner","type":"address","internalType":"address"}],"outputs":[{"name":"","type":"uint256","internalType":"uint256"}],"stateMutability":"nonpayable"},{"type":"event","name":"Approval","inputs":[{"name":"owner","type":"address","indexed":true,"internalType":"address"},{"name":"spender","type":"address","indexed":true,"internalType":"address"},{"name":"value","type":"uint256","indexed":false,"internalType":"uint256"}],"anonymous":false},{"type":"event","name":"Deposit","inputs":[{"name":"sender","type":"address","indexed":true,"internalType":"address"},{"name":"owner","type":"address","indexed":true,"internalType":"address"},{"name":"assets","type":"uint256","indexed":false,"internalType":"uint256"},{"name":"shares","type":"uint256","indexed":false,"internalType":"uint256"}],"anonymous":false},{"type":"event","name":"Transfer","inputs":[{"name":"from","type":"address","indexed":true,"internalType":"address"},{"name":"to","type":"address","indexed":true,"internalType":"address"},{"name":"value","type":"uint256","indexed":false,"internalType":"uint256"}],"anonymous":false},{"type":"event","name":"Withdraw","inputs":[{"name":"sender","type":"address","indexed":true,"internalType":"address"},{"name":"receiver","type":"address","indexed":true,"internalType":"address"},{"name":"owner","type":"address","indexed":true,"internalType":"address"},{"name":"assets","type":"uint256","indexed":false,"internalType":"uint256"},{"name":"shares","type":"uint256","indexed":false,"internalType":"uint256"}],"anonymous":false},{"type":"error","name":"ERC20InsufficientAllowance","inputs":[{"name":"spender","type":"address","internalType":"address"},{"name":"allowance","type":"uint256","internalType":"uint256"},{"name":"needed","type":"uint256","internalType":"uint256"}]},{"type":"error","name":"ERC20InsufficientBalance","inputs":[{"name":"sender","type":"address","internalType":"address"},{"name":"balance","type":"uint256","internalType":"uint256"},{"name":"needed","type":"uint256","internalType":"uint256"}]},{"type":"error","name":"ERC20InvalidApprover","inputs":[{"name":"approver","type":"address","internalType":"address"}]},{"type":"error","name":"ERC20InvalidReceiver","inputs":[{"name":"receiver","type":"address","internalType":"address"}]},{"type":"error","name":"ERC20InvalidSender","inputs":[{"name":"sender","type":"address","internalType":"address"}]},{"type":"error","name":"ERC20InvalidSpender","inputs":[{"name":"spender","type":"address","internalType":"address"}]},{"type":"error","name":"ERC4626ExceededMaxDeposit","inputs":[{"name":"receiver","type":"address","internalType":"address"},{"name":"assets","type":"uint256","internalType":"uint256"},{"name":"max","type":"uint256","internalType":"uint256"}]},{"type":"error","name":"ERC4626ExceededMaxMint","inputs":[{"name":"receiver","type":"address","internalType":"address"},{"name":"shares","type":"uint256","internalType":"uint256"},{"name":"max","type":"uint256","internalType":"uint256"}]},{"type":"error","name":"ERC4626ExceededMaxRedeem","inputs":[{"name":"owner","type":"address","internalType":"address"},{"name":"shares","type":"uint256","internalType":"uint256"},{"name":"max","type":"uint256","internalType":"uint256"}]},{"type":"error","name":"ERC4626ExceededMaxWithdraw","inputs":[{"name":"owner","type":"address","internalType":"address"},{"name":"assets","type":"uint256","internalType":"uint256"},{"name":"max","type":"uint256","internalType":"uint256"}]},{"type":"error","name":"SafeERC20FailedOperation","inputs":[{"name":"token","type":"address","internalType":"address"}]}],"bytecode":{"object":"0x60c060405234801562000010575f80fd5b50604051620029353803806200293583398181016040528101906200003691906200043d565b80838381600390816200004a91906200070b565b5080600490816200005c91906200070b565b5050505f8062000072836200014460201b60201c565b91509150816200008457601262000086565b805b60ff1660a08160ff16815250508273ffffffffffffffffffffffffffffffffffffffff1660808173ffffffffffffffffffffffffffffffffffffffff16815250505050505f73ffffffffffffffffffffffffffffffffffffffff168173ffffffffffffffffffffffffffffffffffffffff16036200013b576040517f08c379a000000000000000000000000000000000000000000000000000000000815260040162000132906200084d565b60405180910390fd5b5050506200092e565b5f805f808473ffffffffffffffffffffffffffffffffffffffff1660405160240160405160208183030381529060405263313ce56760e01b6020820180517bffffffffffffffffffffffffffffffffffffffffffffffffffffffff8381831617835250505050604051620001b99190620008b7565b5f60405180830381855afa9150503d805f8114620001f3576040519150601f19603f3d011682016040523d82523d5f602084013e620001f8565b606091505b50915091508180156200020d57506020815110155b1562000249575f818060200190518101906200022a9190620008fe565b905060ff8016811162000247576001819450945050505062000252565b505b5f809350935050505b915091565b5f604051905090565b5f80fd5b5f80fd5b5f80fd5b5f80fd5b5f601f19601f8301169050919050565b7f4e487b71000000000000000000000000000000000000000000000000000000005f52604160045260245ffd5b620002b88262000270565b810181811067ffffffffffffffff82111715620002da57620002d962000280565b5b80604052505050565b5f620002ee62000257565b9050620002fc8282620002ad565b919050565b5f67ffffffffffffffff8211156200031e576200031d62000280565b5b620003298262000270565b9050602081019050919050565b5f5b838110156200035557808201518184015260208101905062000338565b5f8484015250505050565b5f62000376620003708462000301565b620002e3565b9050828152602081018484840111156200039557620003946200026c565b5b620003a284828562000336565b509392505050565b5f82601f830112620003c157620003c062000268565b5b8151620003d384826020860162000360565b91505092915050565b5f73ffffffffffffffffffffffffffffffffffffffff82169050919050565b5f6200040782620003dc565b9050919050565b6200041981620003fb565b811462000424575f80fd5b50565b5f8151905062000437816200040e565b92915050565b5f805f6060848603121562000457576200045662000260565b5b5f84015167ffffffffffffffff81111562000477576200047662000264565b5b6200048586828701620003aa565b935050602084015167ffffffffffffffff811115620004a957620004a862000264565b5b620004b786828701620003aa565b9250506040620004ca8682870162000427565b9150509250925092565b5f81519050919050565b7f4e487b71000000000000000000000000000000000000000000000000000000005f52602260045260245ffd5b5f60028204905060018216806200052357607f821691505b602082108103620005395762000538620004de565b5b50919050565b5f819050815f5260205f209050919050565b5f6020601f8301049050919050565b5f82821b905092915050565b5f600883026200059d7fffffffffffffffffffffffffffffffffffffffffffffffffffffffffffffffff8262000560565b620005a9868362000560565b95508019841693508086168417925050509392505050565b5f819050919050565b5f819050919050565b5f620005f3620005ed620005e784620005c1565b620005ca565b620005c1565b9050919050565b5f819050919050565b6200060e83620005d3565b620006266200061d82620005fa565b8484546200056c565b825550505050565b5f90565b6200063c6200062e565b6200064981848462000603565b505050565b5b818110156200067057620006645f8262000632565b6001810190506200064f565b5050565b601f821115620006bf5762000689816200053f565b620006948462000551565b81016020851015620006a4578190505b620006bc620006b38562000551565b8301826200064e565b50505b505050565b5f82821c905092915050565b5f620006e15f1984600802620006c4565b1980831691505092915050565b5f620006fb8383620006d0565b9150826002028217905092915050565b6200071682620004d4565b67ffffffffffffffff81111562000732576200073162000280565b5b6200073e82546200050b565b6200074b82828562000674565b5f60209050601f83116001811462000781575f84156200076c578287015190505b620007788582620006ee565b865550620007e7565b601f19841662000791866200053f565b5f5b82811015620007ba5784890151825560018201915060208501945060208101905062000793565b86831015620007da5784890151620007d6601f891682620006d0565b8355505b6001600288020188555050505b505050505050565b5f82825260208201905092915050565b7f7a65726f206173736574000000000000000000000000000000000000000000005f82015250565b5f62000835600a83620007ef565b91506200084282620007ff565b602082019050919050565b5f6020820190508181035f830152620008668162000827565b9050919050565b5f81519050919050565b5f81905092915050565b5f6200088d826200086d565b62000899818562000877565b9350620008ab81856020860162000336565b80840191505092915050565b5f620008c4828462000881565b915081905092915050565b620008da81620005c1565b8114620008e5575f80fd5b50565b5f81519050620008f881620008cf565b92915050565b5f6020828403121562000916576200091562000260565b5b5f6200092584828501620008e8565b91505092915050565b60805160a051611fd0620009655f395f61077001525f81816105bc015281816107a101528181610e600152610f4c0152611fd05ff3fe608060405234801561000f575f80fd5b5060043610610171575f3560e01c806370a08231116100dc578063ba08765211610095578063ce96cb771161006f578063ce96cb77146104f9578063d905777e14610529578063dd62ed3e14610559578063ef8b30f71461058957610171565b8063ba08765214610469578063c63d75b614610499578063c6e6f592146104c957610171565b806370a082311461035b57806394bf804d1461038b57806395d89b41146103bb578063a9059cbb146103d9578063b3d7f6b914610409578063b460af941461043957610171565b806323b872dd1161012e57806323b872dd1461025f578063313ce5671461028f57806338d52e0f146102ad578063402d267d146102cb5780634cdad506146102fb5780636e553f651461032b57610171565b806301e1d1141461017557806306fdde031461019357806307a2d13a146101b1578063095ea7b3146101e15780630a28a4771461021157806318160ddd14610241575b5f80fd5b61017d6105b9565b60405161018a9190611825565b60405180910390f35b61019b610657565b6040516101a891906118c8565b60405180910390f35b6101cb60048036038101906101c69190611916565b6106e7565b6040516101d89190611825565b60405180910390f35b6101fb60048036038101906101f6919061199b565b6106f9565b60405161020891906119f3565b60405180910390f35b61022b60048036038101906102269190611916565b61071b565b6040516102389190611825565b60405180910390f35b61024961072e565b6040516102569190611825565b60405180910390f35b61027960048036038101906102749190611a0c565b610737565b60405161028691906119f3565b60405180910390f35b610297610765565b6040516102a49190611a77565b60405180910390f35b6102b561079e565b6040516102c29190611a9f565b60405180910390f35b6102e560048036038101906102e09190611ab8565b6107c5565b6040516102f29190611825565b60405180910390f35b61031560048036038101906103109190611916565b6107ee565b6040516103229190611825565b60405180910390f35b61034560048036038101906103409190611ae3565b610800565b6040516103529190611825565b60405180910390f35b61037560048036038101906103709190611ab8565b610880565b6040516103829190611825565b60405180910390f35b6103a560048036038101906103a09190611ae3565b6108c5565b6040516103b29190611825565b60405180910390f35b6103c3610945565b6040516103d091906118c8565b60405180910390f35b6103f360048036038101906103ee919061199b565b6109d5565b60405161040091906119f3565b60405180910390f35b610423600480360381019061041e9190611916565b6109f7565b6040516104309190611825565b60405180910390f35b610453600480360381019061044e9190611b21565b610a0a565b6040516104609190611825565b60405180910390f35b610483600480360381019061047e9190611b21565b610a8c565b6040516104909190611825565b60405180910390f35b6104b360048036038101906104ae9190611ab8565b610b0e565b6040516104c09190611825565b60405180910390f35b6104e360048036038101906104de9190611916565b610b37565b6040516104f09190611825565b60405180910390f35b610513600480360381019061050e9190611ab8565b610b49565b6040516105209190611825565b60405180910390f35b610543600480360381019061053e9190611ab8565b610b63565b6040516105509190611825565b60405180910390f35b610573600480360381019061056e9190611b71565b610b74565b6040516105809190611825565b60405180910390f35b6105a3600480360381019061059e9190611916565b610bf6565b6040516105b09190611825565b60405180910390f35b5f7f000000000000000000000000000000000000000000000000000000000000000073ffffffffffffffffffffffffffffffffffffffff166370a08231306040518263ffffffff1660e01b81526004016106139190611a9f565b602060405180830381865afa15801561062e573d5f803e3d5ffd5b505050506040513d601f19601f820116820180604052508101906106529190611bc3565b905090565b60606003805461066690611c1b565b80601f016020809104026020016040519081016040528092919081815260200182805461069290611c1b565b80156106dd5780601f106106b4576101008083540402835291602001916106dd565b820191905f5260205f20905b8154815290600101906020018083116106c057829003601f168201915b5050505050905090565b5f6106f2825f610c08565b9050919050565b5f80610703610c60565b9050610710818585610c67565b600191505092915050565b5f610727826001610c79565b9050919050565b5f600254905090565b5f80610741610c60565b905061074e858285610cd1565b610759858585610d63565b60019150509392505050565b5f61076e610e53565b7f00000000000000000000000000000000000000000000000000000000000000006107999190611c78565b905090565b5f7f0000000000000000000000000000000000000000000000000000000000000000905090565b5f7fffffffffffffffffffffffffffffffffffffffffffffffffffffffffffffffff9050919050565b5f6107f9825f610c08565b9050919050565b5f8061080b836107c5565b905080841115610856578284826040517f79012fb200000000000000000000000000000000000000000000000000000000815260040161084d93929190611cac565b60405180910390fd5b5f61086085610bf6565b905061087561086d610c60565b858784610e5b565b809250505092915050565b5f805f8373ffffffffffffffffffffffffffffffffffffffff1673ffffffffffffffffffffffffffffffffffffffff1681526020019081526020015f20549050919050565b5f806108d083610b0e565b90508084111561091b578284826040517f284ff66700000000000000000000000000000000000000000000000000000000815260040161091293929190611cac565b60405180910390fd5b5f610925856109f7565b905061093a610932610c60565b858388610e5b565b809250505092915050565b60606004805461095490611c1b565b80601f016020809104026020016040519081016040528092919081815260200182805461098090611c1b565b80156109cb5780601f106109a2576101008083540402835291602001916109cb565b820191905f5260205f20905b8154815290600101906020018083116109ae57829003601f168201915b5050505050905090565b5f806109df610c60565b90506109ec818585610d63565b600191505092915050565b5f610a03826001610c08565b9050919050565b5f80610a1583610b49565b905080851115610a60578285826040517ffe9cceec000000000000000000000000000000000000000000000000000000008152600401610a5793929190611cac565b60405180910390fd5b5f610a6a8661071b565b9050610a80610a77610c60565b86868985610efe565b80925050509392505050565b5f80610a9783610b63565b905080851115610ae2578285826040517fb94abeec000000000000000000000000000000000000000000000000000000008152600401610ad993929190611cac565b60405180910390fd5b5f610aec866107ee565b9050610b02610af9610c60565b8686848a610efe565b80925050509392505050565b5f7fffffffffffffffffffffffffffffffffffffffffffffffffffffffffffffffff9050919050565b5f610b42825f610c79565b9050919050565b5f610b5c610b5683610880565b5f610c08565b9050919050565b5f610b6d82610880565b9050919050565b5f60015f8473ffffffffffffffffffffffffffffffffffffffff1673ffffffffffffffffffffffffffffffffffffffff1681526020019081526020015f205f8373ffffffffffffffffffffffffffffffffffffffff1673ffffffffffffffffffffffffffffffffffffffff1681526020019081526020015f2054905092915050565b5f610c01825f610c79565b9050919050565b5f610c586001610c166105b9565b610c209190611ce1565b610c28610e53565b600a610c349190611e43565b610c3c61072e565b610c469190611ce1565b8486610ff7909392919063ffffffff16565b905092915050565b5f33905090565b610c748383836001611044565b505050565b5f610cc9610c85610e53565b600a610c919190611e43565b610c9961072e565b610ca39190611ce1565b6001610cad6105b9565b610cb79190611ce1565b8486610ff7909392919063ffffffff16565b905092915050565b5f610cdc8484610b74565b90507fffffffffffffffffffffffffffffffffffffffffffffffffffffffffffffffff8114610d5d5781811015610d4e578281836040517ffb8f41b2000000000000000000000000000000000000000000000000000000008152600401610d4593929190611cac565b60405180910390fd5b610d5c84848484035f611044565b5b50505050565b5f73ffffffffffffffffffffffffffffffffffffffff168373ffffffffffffffffffffffffffffffffffffffff1603610dd3575f6040517f96c6fd1e000000000000000000000000000000000000000000000000000000008152600401610dca9190611a9f565b60405180910390fd5b5f73ffffffffffffffffffffffffffffffffffffffff168273ffffffffffffffffffffffffffffffffffffffff1603610e43575f6040517fec442f05000000000000000000000000000000000000000000000000000000008152600401610e3a9190611a9f565b60405180910390fd5b610e4e838383611213565b505050565b5f6006905090565b610e877f000000000000000000000000000000000000000000000000000000000000000085308561142c565b610e9183826114ae565b8273ffffffffffffffffffffffffffffffffffffffff168473ffffffffffffffffffffffffffffffffffffffff167fdcbc1c05240f31ff3ad067ef1ee35ce4997762752e3a095284754544f4c709d78484604051610ef0929190611e8d565b60405180910390a350505050565b8273ffffffffffffffffffffffffffffffffffffffff168573ffffffffffffffffffffffffffffffffffffffff1614610f3d57610f3c838683610cd1565b5b610f47838261152d565b610f727f000000000000000000000000000000000000000000000000000000000000000085846115ac565b8273ffffffffffffffffffffffffffffffffffffffff168473ffffffffffffffffffffffffffffffffffffffff168673ffffffffffffffffffffffffffffffffffffffff167ffbde797d201c681b91056529119e0b02407c7bb96a4a2c75c01fc9667232c8db8585604051610fe8929190611e8d565b60405180910390a45050505050565b5f6110256110048361162b565b801561102057505f848061101b5761101a611eb4565b5b868809115b611658565b611030868686611663565b61103a9190611ce1565b9050949350505050565b5f73ffffffffffffffffffffffffffffffffffffffff168473ffffffffffffffffffffffffffffffffffffffff16036110b4575f6040517fe602df050000000000000000000000000000000000000000000000000000000081526004016110ab9190611a9f565b60405180910390fd5b5f73ffffffffffffffffffffffffffffffffffffffff168373ffffffffffffffffffffffffffffffffffffffff1603611124575f6040517f94280d6200000000000000000000000000000000000000000000000000000000815260040161111b9190611a9f565b60405180910390fd5b8160015f8673ffffffffffffffffffffffffffffffffffffffff1673ffffffffffffffffffffffffffffffffffffffff1681526020019081526020015f205f8573ffffffffffffffffffffffffffffffffffffffff1673ffffffffffffffffffffffffffffffffffffffff1681526020019081526020015f2081905550801561120d578273ffffffffffffffffffffffffffffffffffffffff168473ffffffffffffffffffffffffffffffffffffffff167f8c5be1e5ebec7d5bd14f71427d1e84f3dd0314c0f7b2291e5b200ac8c7c3b925846040516112049190611825565b60405180910390a35b50505050565b5f73ffffffffffffffffffffffffffffffffffffffff168373ffffffffffffffffffffffffffffffffffffffff1603611263578060025f8282546112579190611ce1565b92505081905550611331565b5f805f8573ffffffffffffffffffffffffffffffffffffffff1673ffffffffffffffffffffffffffffffffffffffff1681526020019081526020015f20549050818110156112ec578381836040517fe450d38c0000000000000000000000000000000000000000000000000000000081526004016112e393929190611cac565b60405180910390fd5b8181035f808673ffffffffffffffffffffffffffffffffffffffff1673ffffffffffffffffffffffffffffffffffffffff1681526020019081526020015f2081905550505b5f73ffffffffffffffffffffffffffffffffffffffff168273ffffffffffffffffffffffffffffffffffffffff1603611378578060025f82825403925050819055506113c2565b805f808473ffffffffffffffffffffffffffffffffffffffff1673ffffffffffffffffffffffffffffffffffffffff1681526020019081526020015f205f82825401925050819055505b8173ffffffffffffffffffffffffffffffffffffffff168373ffffffffffffffffffffffffffffffffffffffff167fddf252ad1be2c89b69c2b068fc378daa952ba7f163c4a11628f55a4df523b3ef8360405161141f9190611825565b60405180910390a3505050565b6114a8848573ffffffffffffffffffffffffffffffffffffffff166323b872dd86868660405160240161146193929190611ee1565b604051602081830303815290604052915060e01b6020820180517bffffffffffffffffffffffffffffffffffffffffffffffffffffffff8381831617835250505050611748565b50505050565b5f73ffffffffffffffffffffffffffffffffffffffff168273ffffffffffffffffffffffffffffffffffffffff160361151e575f6040517fec442f050000000000000000000000000000000000000000000000000000000081526004016115159190611a9f565b60405180910390fd5b6115295f8383611213565b5050565b5f73ffffffffffffffffffffffffffffffffffffffff168273ffffffffffffffffffffffffffffffffffffffff160361159d575f6040517f96c6fd1e0000000000000000000000000000000000000000000000000000000081526004016115949190611a9f565b60405180910390fd5b6115a8825f83611213565b5050565b611626838473ffffffffffffffffffffffffffffffffffffffff1663a9059cbb85856040516024016115df929190611f16565b604051602081830303815290604052915060e01b6020820180517bffffffffffffffffffffffffffffffffffffffffffffffffffffffff8381831617835250505050611748565b505050565b5f6001600283600381111561164357611642611f3d565b5b61164d9190611f6a565b60ff16149050919050565b5f8115159050919050565b5f8083850290505f8019858709828110838203039150505f810361169b5783828161169157611690611eb4565b5b0492505050611741565b8084116116ba576116b96116b45f8614601260116117e3565b6117fc565b5b5f8486880990508281118203915080830392505f855f038616905080860495508084049350600181825f0304019050808302841793505f600287600302189050808702600203810290508087026002038102905080870260020381029050808702600203810290508087026002038102905080870260020381029050808502955050505050505b9392505050565b5f8060205f8451602086015f885af180611767576040513d5f823e3d81fd5b3d92505f519150505f821461178057600181141561179b565b5f8473ffffffffffffffffffffffffffffffffffffffff163b145b156117dd57836040517f5274afe70000000000000000000000000000000000000000000000000000000081526004016117d49190611a9f565b60405180910390fd5b50505050565b5f6117ed84611658565b82841802821890509392505050565b634e487b715f52806020526024601cfd5b5f819050919050565b61181f8161180d565b82525050565b5f6020820190506118385f830184611816565b92915050565b5f81519050919050565b5f82825260208201905092915050565b5f5b8381101561187557808201518184015260208101905061185a565b5f8484015250505050565b5f601f19601f8301169050919050565b5f61189a8261183e565b6118a48185611848565b93506118b4818560208601611858565b6118bd81611880565b840191505092915050565b5f6020820190508181035f8301526118e08184611890565b905092915050565b5f80fd5b6118f58161180d565b81146118ff575f80fd5b50565b5f81359050611910816118ec565b92915050565b5f6020828403121561192b5761192a6118e8565b5b5f61193884828501611902565b91505092915050565b5f73ffffffffffffffffffffffffffffffffffffffff82169050919050565b5f61196a82611941565b9050919050565b61197a81611960565b8114611984575f80fd5b50565b5f8135905061199581611971565b92915050565b5f80604083850312156119b1576119b06118e8565b5b5f6119be85828601611987565b92505060206119cf85828601611902565b9150509250929050565b5f8115159050919050565b6119ed816119d9565b82525050565b5f602082019050611a065f8301846119e4565b92915050565b5f805f60608486031215611a2357611a226118e8565b5b5f611a3086828701611987565b9350506020611a4186828701611987565b9250506040611a5286828701611902565b9150509250925092565b5f60ff82169050919050565b611a7181611a5c565b82525050565b5f602082019050611a8a5f830184611a68565b92915050565b611a9981611960565b82525050565b5f602082019050611ab25f830184611a90565b92915050565b5f60208284031215611acd57611acc6118e8565b5b5f611ada84828501611987565b91505092915050565b5f8060408385031215611af957611af86118e8565b5b5f611b0685828601611902565b9250506020611b1785828601611987565b9150509250929050565b5f805f60608486031215611b3857611b376118e8565b5b5f611b4586828701611902565b9350506020611b5686828701611987565b9250506040611b6786828701611987565b9150509250925092565b5f8060408385031215611b8757611b866118e8565b5b5f611b9485828601611987565b9250506020611ba585828601611987565b9150509250929050565b5f81519050611bbd816118ec565b92915050565b5f60208284031215611bd857611bd76118e8565b5b5f611be584828501611baf565b91505092915050565b7f4e487b71000000000000000000000000000000000000000000000000000000005f52602260045260245ffd5b5f6002820490506001821680611c3257607f821691505b602082108103611c4557611c44611bee565b5b50919050565b7f4e487b71000000000000000000000000000000000000000000000000000000005f52601160045260245ffd5b5f611c8282611a5c565b9150611c8d83611a5c565b9250828201905060ff811115611ca657611ca5611c4b565b5b92915050565b5f606082019050611cbf5f830186611a90565b611ccc6020830185611816565b611cd96040830184611816565b949350505050565b5f611ceb8261180d565b9150611cf68361180d565b9250828201905080821115611d0e57611d0d611c4b565b5b92915050565b5f8160011c9050919050565b5f808291508390505b6001851115611d6957808604811115611d4557611d44611c4b565b5b6001851615611d545780820291505b8081029050611d6285611d14565b9450611d29565b94509492505050565b5f82611d815760019050611e3c565b81611d8e575f9050611e3c565b8160018114611da45760028114611dae57611ddd565b6001915050611e3c565b60ff841115611dc057611dbf611c4b565b5b8360020a915084821115611dd757611dd6611c4b565b5b50611e3c565b5060208310610133831016604e8410600b8410161715611e125782820a905083811115611e0d57611e0c611c4b565b5b611e3c565b611e1f8484846001611d20565b92509050818404811115611e3657611e35611c4b565b5b81810290505b9392505050565b5f611e4d8261180d565b9150611e5883611a5c565b9250611e857fffffffffffffffffffffffffffffffffffffffffffffffffffffffffffffffff8484611d72565b905092915050565b5f604082019050611ea05f830185611816565b611ead6020830184611816565b9392505050565b7f4e487b71000000000000000000000000000000000000000000000000000000005f52601260045260245ffd5b5f606082019050611ef45f830186611a90565b611f016020830185611a90565b611f0e6040830184611816565b949350505050565b5f604082019050611f295f830185611a90565b611f366020830184611816565b9392505050565b7f4e487b71000000000000000000000000000000000000000000000000000000005f52602160045260245ffd5b5f611f7482611a5c565b9150611f7f83611a5c565b925082611f8f57611f8e611eb4565b5b82820690509291505056fea2646970667358221220f960ed3410e38c98756f5b83fe2e917dcc3c2458c206ab47995c420a987bf15d64736f6c63430008140033","linkReferences":{}},"methodIdentifiers":{"allowance(address,address)":"dd62ed3e","approve(address,uint256)":"095ea7b3","asset()":"38d52e0f","balanceOf(address)":"70a08231","convertToAssets(uint256)":"07a2d13a","convertToShares(uint256)":"c6e6f592","decimals()":"313ce567","deposit(uint256,address)":"6e553f65","maxDeposit(address)":"402d267d","maxMint(address)":"c63d75b6","maxRedeem(address)":"d905777e","maxWithdraw(address)":"ce96cb77","mint(uint256,address)":"94bf804d","name()":"06fdde03","previewDeposit(uint256)":"ef8b30f7","previewMint(uint256)":"b3d7f6b9","previewRedeem(uint256)":"4cdad506","previewWithdraw(uint256)":"0a28a477","redeem(uint256,address,address)":"ba087652","symbol()":"95d89b41","totalAssets()":"01e1d114","totalSupply()":"18160ddd","transfer(address,uint256)":"a9059cbb","transferFrom(address,address,uint256)":"23b872dd","withdraw(uint256,address,address)":"b460af94"},"id":42}