{"abi":[{"type":"constructor","inputs":[{"name":"_stakingToken","type":"address","internalType":"address"},{"name":"_rewardsToken","type":"address","internalType":"address"}],"stateMutability":"nonpayable"},{"type":"function","name":"claim","inputs":[],"outputs":[],"stateMutability":"nonpayable"},{"type":"function","name":"earned","inputs":[{"name":"account","type":"address","internalType":"address"}],"outputs":[{"name":"","type":"uint256","internalType":"uint256"}],"stateMutability":"view"},{"type":"function","name":"exit","inputs":[],"outputs":[],"stateMutability":"nonpayable"},{"type":"function","name":"lastUpdateTime","inputs":[],"outputs":[{"name":"","type":"uint256","internalType":"uint256"}],"stateMutability":"view"},{"type":"function","name":"notifyRewardAmount","inputs":[{"name":"amount","type":"uint256","internalType":"uint256"},{"name":"duration","type":"uint256","internalType":"uint256"}],"outputs":[],"stateMutability":"nonpayable"},{"type":"function","name":"owner","inputs":[],"outputs":[{"name":"","type":"address","internalType":"address"}],"stateMutability":"view"},{"type":"function","name":"periodFinish","inputs":[],"outputs":[{"name":"","type":"uint256","internalType":"uint256"}],"stateMutability":"view"},{"type":"function","name":"renounceOwnership","inputs":[],"outputs":[],"stateMutability":"nonpayable"},{"type":"function","name":"rewardPerToken","inputs":[],"outputs":[{"name":"","type":"uint256","internalType":"uint256"}],"stateMutability":"view"},{"type":"function","name":"rewardPerTokenStored","inputs":[],"outputs":[{"name":"","type":"uint256","internalType":"uint256"}],"stateMutability":"view"},{"type":"function","name":"rewardRatePerSecond","inputs":[],"outputs":[{"name":"","type":"uint256","internalType":"uint256"}],"stateMutability":"view"},{"type":"function","name":"rewards","inputs":[{"name":"","type":"address","internalType":"address"}],"outputs":[{"name":"","type":"uint256","internalType":"uint256"}],"stateMutability":"view"},{"type":"function","name":"rewardsToken","inputs":[],"outputs":[{"name":"","type":"address","internalType":"contract IERC20"}],"stateMutability":"view"},{"type":"function","name":"stake","inputs":[{"name":"amount","type":"uint256","internalType":"uint256"}],"outputs":[],"stateMutability":"nonpayable"},{"type":"function","name":"staked","inputs":[{"name":"","type":"address","internalType":"address"}],"outputs":[{"name":"","type":"uint256","internalType":"uint256"}],"stateMutability":"view"},{"type":"function","name":"stakingToken","inputs":[],"outputs":[{"name":"","type":"address","internalType":"contract IERC20"}],"stateMutability":"view"},{"type":"function","name":"totalStaked","inputs":[],"outputs":[{"name":"","type":"uint256","internalType":"uint256"}],"stateMutability":"view"},{"type":"function","name":"transferOwnership","inputs":[{"name":"newOwner","type":"address","internalType":"address"}],"outputs":[],"stateMutability":"nonpayable"},{"type":"function","name":"userRewardPerTokenPaid","inputs":[{"name":"","type":"address","internalType":"address"}],"outputs":[{"name":"","type":"uint256","internalType":"uint256"}],"stateMutability":"view"},{"type":"function","name":"withdraw","inputs":[{"name":"amount","type":"uint256","internalType":"uint256"}],"outputs":[],"stateMutability":"nonpayable"},{"type":"event","name":"OwnershipTransferred","inputs":[{"name":"previousOwner","type":"address","indexed":true,"internalType":"address"},{"name":"newOwner","type":"address","indexed":true,"internalType":"address"}],"anonymous":false},{"type":"event","name":"RewardAdded","inputs":[{"name":"reward","type":"uint256","indexed":false,"internalType":"uint256"},{"name":"duration","type":"uint256","indexed":false,"internalType":"uint256"}],"anonymous":false},{"type":"event","name":"RewardPaid","inputs":[{"name":"user","type":"address","indexed":true,"internalType":"address"},{"name":"reward","type":"uint256","indexed":false,"internalType":"uint256"}],"anonymous":false},{"type":"event","name":"Staked","inputs":[{"name":"user","type":"address","indexed":true,"internalType":"address"},{"name":"amount","type":"uint256","indexed":false,"internalType":"uint256"}],"anonymous":false},{"type":"event","name":"Withdrawn","inputs":[{"name":"user","type":"address","indexed":true,"internalType":"address"},{"name":"amount","type":"uint256","indexed":false,"internalType":"uint256"}],"anonymous":false},{"type":"error","name":"OwnableInvalidOwner","inputs":[{"name":"owner","type":"address","internalType":"address"}]},{"type":"error","name":"OwnableUnauthorizedAccount","inputs":[{"name":"account","type":"address","internalType":"address"}]},{"type":"error","name":"ReentrancyGuardReentrantCall","inputs":[]},{"type":"error","name":"SafeERC20FailedOperation","inputs":[{"name":"token","type":"address","internalType":"address"}]}],"bytecode":{"object":"0x60c0604052670de0b6b3a76400006002553480156200001c575f80fd5b5060405162001e9638038062001e96833981810160405281019062000042919062000312565b3360015f819055505f73ffffffffffffffffffffffffffffffffffffffff168173ffffffffffffffffffffffffffffffffffffffff1603620000bd575f6040517f1e4fbdf7000000000000000000000000000000000000000000000000000000008152600401620000b4919062000368565b60405180910390fd5b620000ce81620001ea60201b60201c565b505f73ffffffffffffffffffffffffffffffffffffffff168273ffffffffffffffffffffffffffffffffffffffff16141580156200013857505f73ffffffffffffffffffffffffffffffffffffffff168173ffffffffffffffffffffffffffffffffffffffff1614155b6200017a576040517f08c379a00000000000000000000000000000000000000000000000000000000081526004016200017190620003e1565b60405180910390fd5b8173ffffffffffffffffffffffffffffffffffffffff1660808173ffffffffffffffffffffffffffffffffffffffff16815250508073ffffffffffffffffffffffffffffffffffffffff1660a08173ffffffffffffffffffffffffffffffffffffffff1681525050505062000401565b5f60015f9054906101000a900473ffffffffffffffffffffffffffffffffffffffff1690508160015f6101000a81548173ffffffffffffffffffffffffffffffffffffffff021916908373ffffffffffffffffffffffffffffffffffffffff1602179055508173ffffffffffffffffffffffffffffffffffffffff168173ffffffffffffffffffffffffffffffffffffffff167f8be0079c531659141344cd1fd0a4f28419497f9722a3daafe3b4186f6b6457e060405160405180910390a35050565b5f80fd5b5f73ffffffffffffffffffffffffffffffffffffffff82169050919050565b5f620002dc82620002b1565b9050919050565b620002ee81620002d0565b8114620002f9575f80fd5b50565b5f815190506200030c81620002e3565b92915050565b5f80604083850312156200032b576200032a620002ad565b5b5f6200033a85828601620002fc565b92505060206200034d85828601620002fc565b9150509250929050565b6200036281620002d0565b82525050565b5f6020820190506200037d5f83018462000357565b92915050565b5f82825260208201905092915050565b7f7a65726f206164647265737300000000000000000000000000000000000000005f82015250565b5f620003c9600c8362000383565b9150620003d68262000393565b602082019050919050565b5f6020820190508181035f830152620003fa81620003bb565b9050919050565b60805160a051611a42620004545f395f818161053b015281816105e5015281816109a901528181610cc10152610ec901525f818161086901528181610a6201528181610ba20152610da40152611a425ff3fe608060405234801561000f575f80fd5b5060043610610129575f3560e01c80638da5cb5b116100ab578063d1af0c7d1161006f578063d1af0c7d14610309578063df136d6514610327578063e9fad8ee14610345578063ebe2b12b1461034f578063f2fde38b1461036d57610129565b80638da5cb5b1461026357806398807d8414610281578063a694fc3a146102b1578063c8f33c91146102cd578063cd3daf9d146102eb57610129565b80635d773b2c116100f25780635d773b2c146101cf578063715018a6146101ed57806372f702f3146101f7578063817b1cd2146102155780638b8763471461023357610129565b80628cc2621461012d5780630700037d1461015d578063246132f91461018d5780632e1a7d4d146101a95780634e71d92d146101c5575b5f80fd5b61014760048036038101906101429190611476565b610389565b60405161015491906114b9565b60405180910390f35b61017760048036038101906101729190611476565b610489565b60405161018491906114b9565b60405180910390f35b6101a760048036038101906101a291906114fc565b61049e565b005b6101c360048036038101906101be919061153a565b610724565b005b6101cd610906565b005b6101d7610a47565b6040516101e491906114b9565b60405180910390f35b6101f5610a4d565b005b6101ff610a60565b60405161020c91906115c0565b60405180910390f35b61021d610a84565b60405161022a91906114b9565b60405180910390f35b61024d60048036038101906102489190611476565b610a8a565b60405161025a91906114b9565b60405180910390f35b61026b610a9f565b60405161027891906115e8565b60405180910390f35b61029b60048036038101906102969190611476565b610ac7565b6040516102a891906114b9565b60405180910390f35b6102cb60048036038101906102c6919061153a565b610adc565b005b6102d5610c40565b6040516102e291906114b9565b60405180910390f35b6102f3610c46565b60405161030091906114b9565b60405180910390f35b610311610cbf565b60405161031e91906115c0565b60405180910390f35b61032f610ce3565b60405161033c91906114b9565b60405180910390f35b61034d610ce9565b005b610357610f68565b60405161036491906114b9565b60405180910390f35b61038760048036038101906103829190611476565b610f6e565b005b5f80610393610c46565b905060095f8473ffffffffffffffffffffffffffffffffffffffff1673ffffffffffffffffffffffffffffffffffffffff1681526020019081526020015f2054670de0b6b3a764000060085f8673ffffffffffffffffffffffffffffffffffffffff1673ffffffffffffffffffffffffffffffffffffffff1681526020019081526020015f205483610425919061162e565b60075f8773ffffffffffffffffffffffffffffffffffffffff1673ffffffffffffffffffffffffffffffffffffffff1681526020019081526020015f205461046d9190611661565b61047791906116cf565b61048191906116ff565b915050919050565b6009602052805f5260405f205f915090505481565b6104a6610ff2565b5f82116104e8576040517f08c379a00000000000000000000000000000000000000000000000000000000081526004016104df9061178c565b60405180910390fd5b5f811161052a576040517f08c379a0000000000000000000000000000000000000000000000000000000008152600401610521906117f4565b60405180910390fd5b6105335f611079565b6105803330847f000000000000000000000000000000000000000000000000000000000000000073ffffffffffffffffffffffffffffffffffffffff16611165909392919063ffffffff16565b60035442106105a057808261059591906116cf565b6002819055506105e2565b5f426003546105af919061162e565b90505f600254826105c09190611661565b90508284826105cf91906116ff565b6105d991906116cf565b60028190555050505b5f7f000000000000000000000000000000000000000000000000000000000000000073ffffffffffffffffffffffffffffffffffffffff166370a08231306040518263ffffffff1660e01b815260040161063c91906115e8565b602060405180830381865afa158015610657573d5f803e3d5ffd5b505050506040513d601f19601f8201168201806040525081019061067b9190611826565b9050818161068991906116cf565b60025411156106cd576040517f08c379a00000000000000000000000000000000000000000000000000000000081526004016106c49061189b565b60405180910390fd5b4260048190555081426106e091906116ff565b6003819055507f6c07ee05dcf262f13abf9d87b846ee789d2f90fe991d495acd7d7fc109ee1f5583836040516107179291906118b9565b60405180910390a1505050565b61072c6111e7565b5f811161076e576040517f08c379a00000000000000000000000000000000000000000000000000000000081526004016107659061192a565b60405180910390fd5b8060075f3373ffffffffffffffffffffffffffffffffffffffff1673ffffffffffffffffffffffffffffffffffffffff1681526020019081526020015f205410156107ee576040517f08c379a00000000000000000000000000000000000000000000000000000000081526004016107e590611992565b60405180910390fd5b6107f733611079565b8060065f828254610808919061162e565b925050819055508060075f3373ffffffffffffffffffffffffffffffffffffffff1673ffffffffffffffffffffffffffffffffffffffff1681526020019081526020015f205f82825461085b919061162e565b925050819055506108ad33827f000000000000000000000000000000000000000000000000000000000000000073ffffffffffffffffffffffffffffffffffffffff1661122b9092919063ffffffff16565b3373ffffffffffffffffffffffffffffffffffffffff167f7084f5476618d8e60b11ef0d7d3f06914655adb8793e28ff7f018d4c76d505d5826040516108f391906114b9565b60405180910390a26109036112aa565b50565b61090e6111e7565b61091733611079565b5f60095f3373ffffffffffffffffffffffffffffffffffffffff1673ffffffffffffffffffffffffffffffffffffffff1681526020019081526020015f205490505f811115610a3c575f60095f3373ffffffffffffffffffffffffffffffffffffffff1673ffffffffffffffffffffffffffffffffffffffff1681526020019081526020015f20819055506109ed33827f000000000000000000000000000000000000000000000000000000000000000073ffffffffffffffffffffffffffffffffffffffff1661122b9092919063ffffffff16565b3373ffffffffffffffffffffffffffffffffffffffff167fe2403640ba68fed3a2f88b7557551d1993f84b99bb10ff833f0cf8db0c5e048682604051610a3391906114b9565b60405180910390a25b50610a456112aa565b565b60025481565b610a55610ff2565b610a5e5f6112b3565b565b7f000000000000000000000000000000000000000000000000000000000000000081565b60065481565b6008602052805f5260405f205f915090505481565b5f60015f9054906101000a900473ffffffffffffffffffffffffffffffffffffffff16905090565b6007602052805f5260405f205f915090505481565b610ae46111e7565b5f8111610b26576040517f08c379a0000000000000000000000000000000000000000000000000000000008152600401610b1d9061192a565b60405180910390fd5b610b2f33611079565b8060065f828254610b4091906116ff565b925050819055508060075f3373ffffffffffffffffffffffffffffffffffffffff1673ffffffffffffffffffffffffffffffffffffffff1681526020019081526020015f205f828254610b9391906116ff565b92505081905550610be73330837f000000000000000000000000000000000000000000000000000000000000000073ffffffffffffffffffffffffffffffffffffffff16611165909392919063ffffffff16565b3373ffffffffffffffffffffffffffffffffffffffff167f9e71bc8eea02a63969f509818f2dafb9254532904319f9dbda79b67bd34a5f3d82604051610c2d91906114b9565b60405180910390a2610c3d6112aa565b50565b60045481565b5f8060065403610c5a576005549050610cbc565b5f6003544211610c6a5742610c6e565b6003545b9050600654670de0b6b3a764000060025460045484610c8d919061162e565b610c979190611661565b610ca19190611661565b610cab91906116cf565b600554610cb891906116ff565b9150505b90565b7f000000000000000000000000000000000000000000000000000000000000000081565b60055481565b610cf16111e7565b610cfa33611079565b5f60075f3373ffffffffffffffffffffffffffffffffffffffff1673ffffffffffffffffffffffffffffffffffffffff1681526020019081526020015f205490505f811115610e37578060065f828254610d54919061162e565b925050819055505f60075f3373ffffffffffffffffffffffffffffffffffffffff1673ffffffffffffffffffffffffffffffffffffffff1681526020019081526020015f2081905550610de833827f000000000000000000000000000000000000000000000000000000000000000073ffffffffffffffffffffffffffffffffffffffff1661122b9092919063ffffffff16565b3373ffffffffffffffffffffffffffffffffffffffff167f7084f5476618d8e60b11ef0d7d3f06914655adb8793e28ff7f018d4c76d505d582604051610e2e91906114b9565b60405180910390a25b5f60095f3373ffffffffffffffffffffffffffffffffffffffff1673ffffffffffffffffffffffffffffffffffffffff1681526020019081526020015f205490505f811115610f5c575f60095f3373ffffffffffffffffffffffffffffffffffffffff1673ffffffffffffffffffffffffffffffffffffffff1681526020019081526020015f2081905550610f0d33827f000000000000000000000000000000000000000000000000000000000000000073ffffffffffffffffffffffffffffffffffffffff1661122b9092919063ffffffff16565b3373ffffffffffffffffffffffffffffffffffffffff167fe2403640ba68fed3a2f88b7557551d1993f84b99bb10ff833f0cf8db0c5e048682604051610f5391906114b9565b60405180910390a25b5050610f666112aa565b565b60035481565b610f76610ff2565b5f73ffffffffffffffffffffffffffffffffffffffff168173ffffffffffffffffffffffffffffffffffffffff1603610fe6575f6040517f1e4fbdf7000000000000000000000000000000000000000000000000000000008152600401610fdd91906115e8565b60405180910390fd5b610fef816112b3565b50565b610ffa611376565b73ffffffffffffffffffffffffffffffffffffffff16611018610a9f565b73ffffffffffffffffffffffffffffffffffffffff16146110775761103b611376565b6040517f118cdaa700000000000000000000000000000000000000000000000000000000815260040161106e91906115e8565b60405180910390fd5b565b611081610c46565b6005819055506003544211611096574261109a565b6003545b6004819055505f73ffffffffffffffffffffffffffffffffffffffff168173ffffffffffffffffffffffffffffffffffffffff1614611162576110dc81610389565b60095f8373ffffffffffffffffffffffffffffffffffffffff1673ffffffffffffffffffffffffffffffffffffffff1681526020019081526020015f208190555060055460085f8373ffffffffffffffffffffffffffffffffffffffff1673ffffffffffffffffffffffffffffffffffffffff1681526020019081526020015f20819055505b50565b6111e1848573ffffffffffffffffffffffffffffffffffffffff166323b872dd86868660405160240161119a939291906119b0565b604051602081830303815290604052915060e01b6020820180517bffffffffffffffffffffffffffffffffffffffffffffffffffffffff838183161783525050505061137d565b50505050565b60025f5403611222576040517f3ee5aeb500000000000000000000000000000000000000000000000000000000815260040160405180910390fd5b60025f81905550565b6112a5838473ffffffffffffffffffffffffffffffffffffffff1663a9059cbb858560405160240161125e9291906119e5565b604051602081830303815290604052915060e01b6020820180517bffffffffffffffffffffffffffffffffffffffffffffffffffffffff838183161783525050505061137d565b505050565b60015f81905550565b5f60015f9054906101000a900473ffffffffffffffffffffffffffffffffffffffff1690508160015f6101000a81548173ffffffffffffffffffffffffffffffffffffffff021916908373ffffffffffffffffffffffffffffffffffffffff1602179055508173ffffffffffffffffffffffffffffffffffffffff168173ffffffffffffffffffffffffffffffffffffffff167f8be0079c531659141344cd1fd0a4f28419497f9722a3daafe3b4186f6b6457e060405160405180910390a35050565b5f33905090565b5f8060205f8451602086015f885af18061139c576040513d5f823e3d81fd5b3d92505f519150505f82146113b55760018114156113d0565b5f8473ffffffffffffffffffffffffffffffffffffffff163b145b1561141257836040517f5274afe700000000000000000000000000000000000000000000000000000000815260040161140991906115e8565b60405180910390fd5b50505050565b5f80fd5b5f73ffffffffffffffffffffffffffffffffffffffff82169050919050565b5f6114458261141c565b9050919050565b6114558161143b565b811461145f575f80fd5b50565b5f813590506114708161144c565b92915050565b5f6020828403121561148b5761148a611418565b5b5f61149884828501611462565b91505092915050565b5f819050919050565b6114b3816114a1565b82525050565b5f6020820190506114cc5f8301846114aa565b92915050565b6114db816114a1565b81146114e5575f80fd5b50565b5f813590506114f6816114d2565b92915050565b5f806040838503121561151257611511611418565b5b5f61151f858286016114e8565b9250506020611530858286016114e8565b9150509250929050565b5f6020828403121561154f5761154e611418565b5b5f61155c848285016114e8565b91505092915050565b5f819050919050565b5f61158861158361157e8461141c565b611565565b61141c565b9050919050565b5f6115998261156e565b9050919050565b5f6115aa8261158f565b9050919050565b6115ba816115a0565b82525050565b5f6020820190506115d35f8301846115b1565b92915050565b6115e28161143b565b82525050565b5f6020820190506115fb5f8301846115d9565b92915050565b7f4e487b71000000000000000000000000000000000000000000000000000000005f52601160045260245ffd5b5f611638826114a1565b9150611643836114a1565b925082820390508181111561165b5761165a611601565b5b92915050565b5f61166b826114a1565b9150611676836114a1565b9250828202611684816114a1565b9150828204841483151761169b5761169a611601565b5b5092915050565b7f4e487b71000000000000000000000000000000000000000000000000000000005f52601260045260245ffd5b5f6116d9826114a1565b91506116e4836114a1565b9250826116f4576116f36116a2565b5b828204905092915050565b5f611709826114a1565b9150611714836114a1565b925082820190508082111561172c5761172b611601565b5b92915050565b5f82825260208201905092915050565b7f7a65726f207265776172640000000000000000000000000000000000000000005f82015250565b5f611776600b83611732565b915061178182611742565b602082019050919050565b5f6020820190508181035f8301526117a38161176a565b9050919050565b7f7a65726f206475726174696f6e000000000000000000000000000000000000005f82015250565b5f6117de600d83611732565b91506117e9826117aa565b602082019050919050565b5f6020820190508181035f83015261180b816117d2565b9050919050565b5f81519050611820816114d2565b92915050565b5f6020828403121561183b5761183a611418565b5b5f61184884828501611812565b91505092915050565b7f72657761726420746f6f206869676800000000000000000000000000000000005f82015250565b5f611885600f83611732565b915061189082611851565b602082019050919050565b5f6020820190508181035f8301526118b281611879565b9050919050565b5f6040820190506118cc5f8301856114aa565b6118d960208301846114aa565b9392505050565b7f7a65726f20616d6f756e740000000000000000000000000000000000000000005f82015250565b5f611914600b83611732565b915061191f826118e0565b602082019050919050565b5f6020820190508181035f83015261194181611908565b9050919050565b7f696e73756666696369656e74207374616b6500000000000000000000000000005f82015250565b5f61197c601283611732565b915061198782611948565b602082019050919050565b5f6020820190508181035f8301526119a981611970565b9050919050565b5f6060820190506119c35f8301866115d9565b6119d060208301856115d9565b6119dd60408301846114aa565b949350505050565b5f6040820190506119f85f8301856115d9565b611a0560208301846114aa565b939250505056fea2646970667358221220cb91a8205623c8efd58bf250f49f53d6bf1efc056d207655426e99c57ebd214964736f6c63430008140033","linkReferences":{}},"methodIdentifiers":{"claim()":"4e71d92d","earned(address)":"008cc262","exit()":"e9fad8ee","lastUpdateTime()":"c8f33c91","notifyRewardAmount(uint256,uint256)":"246132f9","owner()":"8da5cb5b","periodFinish()":"ebe2b12b","renounceOwnership()":"715018a6","rewardPerToken()":"cd3daf9d","rewardPerTokenStored()":"df136d65","rewardRatePerSecond()":"5d773b2c","rewards(address)":"0700037d","rewardsToken()":"d1af0c7d","stake(uint256)":"a694fc3a","staked(address)":"98807d84","stakingToken()":"72f702f3","totalStaked()":"817b1cd2","transferOwnership(address)":"f2fde38b","userRewardPerTokenPaid(address)":"8b876347","withdraw(uint256)":"2e1a7d4d"},"id":41}