{"abi":[{"type":"constructor","inputs":[{"name":"_stakingToken","type":"address","internalType":"address"},{"name":"_rewardsToken","type":"address","internalType":"address"}],"stateMutability":"nonpayable"},{"type":"function","name":"claim","inputs":[],"outputs":[],"stateMutability":"nonpayable"},{"type":"function","name":"earned","inputs":[{"name":"account","type":"address","internalType":"address"}],"outputs":[{"name":"","type":"uint256","internalType":"uint256"}],"stateMutability":"view"},{"type":"function","name":"exit","inputs":[],"outputs":[],"stateMutability":"nonpayable"},{"type":"function","name":"lastUpdateTime","inputs":[],"outputs":[{"name":"","type":"uint256","internalType":"uint256"}],"stateMutability":"view"},{"type":"function","name":"notifyRewardAmount","inputs":[{"name":"amount","type":"uint256","internalType":"uint256"},{"name":"duration","type":"uint256","internalType":"uint256"}],"outputs":[],"stateMutability":"nonpayable"},{"type":"function","name":"periodFinish","inputs":[],"outputs":[{"name":"","type":"uint256","internalType":"uint256"}],"stateMutability":"view"},{"type":"function","name":"rewardPerToken","inputs":[],"outputs":[{"name":"","type":"uint256","internalType":"uint256"}],"stateMutability":"view"},{"type":"function","name":"rewardPerTokenStored","inputs":[],"outputs":[{"name":"","type":"uint256","internalType":"uint256"}],"stateMutability":"view"},{"type":"function","name":"rewardRatePerSecond","inputs":[],"outputs":[{"name":"","type":"uint256","internalType":"uint256"}],"stateMutability":"view"},{"type":"function","name":"rewards","inputs":[{"name":"","type":"address","internalType":"address"}],"outputs":[{"name":"","type":"uint256","internalType":"uint256"}],"stateMutability":"view"},{"type":"function","name":"rewardsToken","inputs":[],"outputs":[{"name":"","type":"address","internalType":"contract IERC20"}],"stateMutability":"view"},{"type":"function","name":"stake","inputs":[{"name":"amount","type":"uint256","internalType":"uint256"}],"outputs":[],"stateMutability":"nonpayable"},{"type":"function","name":"staked","inputs":[{"name":"","type":"address","internalType":"address"}],"outputs":[{"name":"","type":"uint256","internalType":"uint256"}],"stateMutability":"view"},{"type":"function","name":"stakingToken","inputs":[],"outputs":[{"name":"","type":"address","internalType":"contract IERC20"}],"stateMutability":"view"},{"type":"function","name":"totalStaked","inputs":[],"outputs":[{"name":"","type":"uint256","internalType":"uint256"}],"stateMutability":"view"},{"type":"function","name":"userRewardPerTokenPaid","inputs":[{"name":"","type":"address","internalType":"address"}],"outputs":[{"name":"","type":"uint256","internalType":"uint256"}],"stateMutability":"view"},{"type":"function","name":"withdraw","inputs":[{"name":"amount","type":"uint256","internalType":"uint256"}],"outputs":[],"stateMutability":"nonpayable"},{"type":"event","name":"RewardAdded","inputs":[{"name":"reward","type":"uint256","indexed":false,"internalType":"uint256"},{"name":"duration","type":"uint256","indexed":false,"internalType":"uint256"}],"anonymous":false},{"type":"event","name":"RewardPaid","inputs":[{"name":"user","type":"address","indexed":true,"internalType":"address"},{"name":"reward","type":"uint256","indexed":false,"internalType":"uint256"}],"anonymous":false},{"type":"event","name":"Staked","inputs":[{"name":"user","type":"address","indexed":true,"internalType":"address"},{"name":"amount","type":"uint256","indexed":false,"internalType":"uint256"}],"anonymous":false},{"type":"event","name":"Withdrawn","inputs":[{"name":"user","type":"address","indexed":true,"internalType":"address"},{"name":"amount","type":"uint256","indexed":false,"internalType":"uint256"}],"anonymous":false},{"type":"error","name":"ReentrancyGuardReentrantCall","inputs":[]},{"type":"error","name":"SafeERC20FailedOperation","inputs":[{"name":"token","type":"address","internalType":"address"}]}],"bytecode":{"object":"0x60c0604052670de0b6b3a76400006001553480156200001c575f80fd5b5060405162001913380380620019138339818101604052810190620000429190620001c9565b60015f819055505f73ffffffffffffffffffffffffffffffffffffffff168273ffffffffffffffffffffffffffffffffffffffff1614158015620000b257505f73ffffffffffffffffffffffffffffffffffffffff168173ffffffffffffffffffffffffffffffffffffffff1614155b620000f4576040517f08c379a0000000000000000000000000000000000000000000000000000000008152600401620000eb906200026c565b60405180910390fd5b8173ffffffffffffffffffffffffffffffffffffffff1660808173ffffffffffffffffffffffffffffffffffffffff16815250508073ffffffffffffffffffffffffffffffffffffffff1660a08173ffffffffffffffffffffffffffffffffffffffff168152505050506200028c565b5f80fd5b5f73ffffffffffffffffffffffffffffffffffffffff82169050919050565b5f620001938262000168565b9050919050565b620001a58162000187565b8114620001b0575f80fd5b50565b5f81519050620001c3816200019a565b92915050565b5f8060408385031215620001e257620001e162000164565b5b5f620001f185828601620001b3565b92505060206200020485828601620001b3565b9150509250929050565b5f82825260208201905092915050565b7f7a65726f206164647265737300000000000000000000000000000000000000005f82015250565b5f62000254600c836200020e565b915062000261826200021e565b602082019050919050565b5f6020820190508181035f830152620002858162000246565b9050919050565b60805160a051611634620002df5f395f8181610441015281816104eb015281816108af01528181610b8c0152610d9401525f818161076f0152818161095501528181610a6d0152610c6f01526116345ff3fe608060405234801561000f575f80fd5b5060043610610108575f3560e01c80638b876347116100a0578063cd3daf9d1161006f578063cd3daf9d146102a2578063d1af0c7d146102c0578063df136d65146102de578063e9fad8ee146102fc578063ebe2b12b1461030657610108565b80638b8763471461020857806398807d8414610238578063a694fc3a14610268578063c8f33c911461028457610108565b80634e71d92d116100dc5780634e71d92d146101a45780635d773b2c146101ae57806372f702f3146101cc578063817b1cd2146101ea57610108565b80628cc2621461010c5780630700037d1461013c578063246132f91461016c5780632e1a7d4d14610188575b5f80fd5b61012660048036038101906101219190611138565b610324565b604051610133919061117b565b60405180910390f35b61015660048036038101906101519190611138565b610424565b604051610163919061117b565b60405180910390f35b610186600480360381019061018191906111be565b610439565b005b6101a2600480360381019061019d91906111fc565b61062a565b005b6101ac61080c565b005b6101b661094d565b6040516101c3919061117b565b60405180910390f35b6101d4610953565b6040516101e19190611282565b60405180910390f35b6101f2610977565b6040516101ff919061117b565b60405180910390f35b610222600480360381019061021d9190611138565b61097d565b60405161022f919061117b565b60405180910390f35b610252600480360381019061024d9190611138565b610992565b60405161025f919061117b565b60405180910390f35b610282600480360381019061027d91906111fc565b6109a7565b005b61028c610b0b565b604051610299919061117b565b60405180910390f35b6102aa610b11565b6040516102b7919061117b565b60405180910390f35b6102c8610b8a565b6040516102d59190611282565b60405180910390f35b6102e6610bae565b6040516102f3919061117b565b60405180910390f35b610304610bb4565b005b61030e610e33565b60405161031b919061117b565b60405180910390f35b5f8061032e610b11565b905060085f8473ffffffffffffffffffffffffffffffffffffffff1673ffffffffffffffffffffffffffffffffffffffff1681526020019081526020015f2054670de0b6b3a764000060075f8673ffffffffffffffffffffffffffffffffffffffff1673ffffffffffffffffffffffffffffffffffffffff1681526020019081526020015f2054836103c091906112c8565b60065f8773ffffffffffffffffffffffffffffffffffffffff1673ffffffffffffffffffffffffffffffffffffffff1681526020019081526020015f205461040891906112fb565b6104129190611369565b61041c9190611399565b915050919050565b6008602052805f5260405f205f915090505481565b6104863330847f000000000000000000000000000000000000000000000000000000000000000073ffffffffffffffffffffffffffffffffffffffff16610e39909392919063ffffffff16565b60025442106104a657808261049b9190611369565b6001819055506104e8565b5f426002546104b591906112c8565b90505f600154826104c691906112fb565b90508284826104d59190611399565b6104df9190611369565b60018190555050505b5f7f000000000000000000000000000000000000000000000000000000000000000073ffffffffffffffffffffffffffffffffffffffff166370a08231306040518263ffffffff1660e01b815260040161054291906113db565b602060405180830381865afa15801561055d573d5f803e3d5ffd5b505050506040513d601f19601f820116820180604052508101906105819190611408565b9050818161058f9190611369565b60015411156105d3576040517f08c379a00000000000000000000000000000000000000000000000000000000081526004016105ca9061148d565b60405180910390fd5b4260038190555081426105e69190611399565b6002819055507f6c07ee05dcf262f13abf9d87b846ee789d2f90fe991d495acd7d7fc109ee1f55838360405161061d9291906114ab565b60405180910390a1505050565b610632610ebb565b5f8111610674576040517f08c379a000000000000000000000000000000000000000000000000000000000815260040161066b9061151c565b60405180910390fd5b8060065f3373ffffffffffffffffffffffffffffffffffffffff1673ffffffffffffffffffffffffffffffffffffffff1681526020019081526020015f205410156106f4576040517f08c379a00000000000000000000000000000000000000000000000000000000081526004016106eb90611584565b60405180910390fd5b6106fd33610eff565b8060055f82825461070e91906112c8565b925050819055508060065f3373ffffffffffffffffffffffffffffffffffffffff1673ffffffffffffffffffffffffffffffffffffffff1681526020019081526020015f205f82825461076191906112c8565b925050819055506107b333827f000000000000000000000000000000000000000000000000000000000000000073ffffffffffffffffffffffffffffffffffffffff16610fb79092919063ffffffff16565b3373ffffffffffffffffffffffffffffffffffffffff167f7084f5476618d8e60b11ef0d7d3f06914655adb8793e28ff7f018d4c76d505d5826040516107f9919061117b565b60405180910390a2610809611036565b50565b610814610ebb565b61081d33610eff565b5f60085f3373ffffffffffffffffffffffffffffffffffffffff1673ffffffffffffffffffffffffffffffffffffffff1681526020019081526020015f205490505f811115610942575f60085f3373ffffffffffffffffffffffffffffffffffffffff1673ffffffffffffffffffffffffffffffffffffffff1681526020019081526020015f20819055506108f333827f000000000000000000000000000000000000000000000000000000000000000073ffffffffffffffffffffffffffffffffffffffff16610fb79092919063ffffffff16565b3373ffffffffffffffffffffffffffffffffffffffff167fe2403640ba68fed3a2f88b7557551d1993f84b99bb10ff833f0cf8db0c5e048682604051610939919061117b565b60405180910390a25b5061094b611036565b565b60015481565b7f000000000000000000000000000000000000000000000000000000000000000081565b60055481565b6007602052805f5260405f205f915090505481565b6006602052805f5260405f205f915090505481565b6109af610ebb565b5f81116109f1576040517f08c379a00000000000000000000000000000000000000000000000000000000081526004016109e89061151c565b60405180910390fd5b6109fa33610eff565b8060055f828254610a0b9190611399565b925050819055508060065f3373ffffffffffffffffffffffffffffffffffffffff1673ffffffffffffffffffffffffffffffffffffffff1681526020019081526020015f205f828254610a5e9190611399565b92505081905550610ab23330837f000000000000000000000000000000000000000000000000000000000000000073ffffffffffffffffffffffffffffffffffffffff16610e39909392919063ffffffff16565b3373ffffffffffffffffffffffffffffffffffffffff167f9e71bc8eea02a63969f509818f2dafb9254532904319f9dbda79b67bd34a5f3d82604051610af8919061117b565b60405180910390a2610b08611036565b50565b60035481565b5f8060055403610b25576004549050610b87565b5f6002544211610b355742610b39565b6002545b9050600554670de0b6b3a764000060015460035484610b5891906112c8565b610b6291906112fb565b610b6c91906112fb565b610b769190611369565b600454610b839190611399565b9150505b90565b7f000000000000000000000000000000000000000000000000000000000000000081565b60045481565b610bbc610ebb565b610bc533610eff565b5f60065f3373ffffffffffffffffffffffffffffffffffffffff1673ffffffffffffffffffffffffffffffffffffffff1681526020019081526020015f205490505f811115610d02578060055f828254610c1f91906112c8565b925050819055505f60065f3373ffffffffffffffffffffffffffffffffffffffff1673ffffffffffffffffffffffffffffffffffffffff1681526020019081526020015f2081905550610cb333827f000000000000000000000000000000000000000000000000000000000000000073ffffffffffffffffffffffffffffffffffffffff16610fb79092919063ffffffff16565b3373ffffffffffffffffffffffffffffffffffffffff167f7084f5476618d8e60b11ef0d7d3f06914655adb8793e28ff7f018d4c76d505d582604051610cf9919061117b565b60405180910390a25b5f60085f3373ffffffffffffffffffffffffffffffffffffffff1673ffffffffffffffffffffffffffffffffffffffff1681526020019081526020015f205490505f811115610e27575f60085f3373ffffffffffffffffffffffffffffffffffffffff1673ffffffffffffffffffffffffffffffffffffffff1681526020019081526020015f2081905550610dd833827f000000000000000000000000000000000000000000000000000000000000000073ffffffffffffffffffffffffffffffffffffffff16610fb79092919063ffffffff16565b3373ffffffffffffffffffffffffffffffffffffffff167fe2403640ba68fed3a2f88b7557551d1993f84b99bb10ff833f0cf8db0c5e048682604051610e1e919061117b565b60405180910390a25b5050610e31611036565b565b60025481565b610eb5848573ffffffffffffffffffffffffffffffffffffffff166323b872dd868686604051602401610e6e939291906115a2565b604051602081830303815290604052915060e01b6020820180517bffffffffffffffffffffffffffffffffffffffffffffffffffffffff838183161783525050505061103f565b50505050565b60025f5403610ef6576040517f3ee5aeb500000000000000000000000000000000000000000000000000000000815260040160405180910390fd5b60025f81905550565b610f07610b11565b6004819055506002544211610f1c5742610f20565b6002545b600381905550610f2f81610324565b60085f8373ffffffffffffffffffffffffffffffffffffffff1673ffffffffffffffffffffffffffffffffffffffff1681526020019081526020015f208190555060045460075f8373ffffffffffffffffffffffffffffffffffffffff1673ffffffffffffffffffffffffffffffffffffffff1681526020019081526020015f208190555050565b611031838473ffffffffffffffffffffffffffffffffffffffff1663a9059cbb8585604051602401610fea9291906115d7565b604051602081830303815290604052915060e01b6020820180517bffffffffffffffffffffffffffffffffffffffffffffffffffffffff838183161783525050505061103f565b505050565b60015f81905550565b5f8060205f8451602086015f885af18061105e576040513d5f823e3d81fd5b3d92505f519150505f8214611077576001811415611092565b5f8473ffffffffffffffffffffffffffffffffffffffff163b145b156110d457836040517f5274afe70000000000000000000000000000000000000000000000000000000081526004016110cb91906113db565b60405180910390fd5b50505050565b5f80fd5b5f73ffffffffffffffffffffffffffffffffffffffff82169050919050565b5f611107826110de565b9050919050565b611117816110fd565b8114611121575f80fd5b50565b5f813590506111328161110e565b92915050565b5f6020828403121561114d5761114c6110da565b5b5f61115a84828501611124565b91505092915050565b5f819050919050565b61117581611163565b82525050565b5f60208201905061118e5f83018461116c565b92915050565b61119d81611163565b81146111a7575f80fd5b50565b5f813590506111b881611194565b92915050565b5f80604083850312156111d4576111d36110da565b5b5f6111e1858286016111aa565b92505060206111f2858286016111aa565b9150509250929050565b5f60208284031215611211576112106110da565b5b5f61121e848285016111aa565b91505092915050565b5f819050919050565b5f61124a611245611240846110de565b611227565b6110de565b9050919050565b5f61125b82611230565b9050919050565b5f61126c82611251565b9050919050565b61127c81611262565b82525050565b5f6020820190506112955f830184611273565b92915050565b7f4e487b71000000000000000000000000000000000000000000000000000000005f52601160045260245ffd5b5f6112d282611163565b91506112dd83611163565b92508282039050818111156112f5576112f461129b565b5b92915050565b5f61130582611163565b915061131083611163565b925082820261131e81611163565b915082820484148315176113355761133461129b565b5b5092915050565b7f4e487b71000000000000000000000000000000000000000000000000000000005f52601260045260245ffd5b5f61137382611163565b915061137e83611163565b92508261138e5761138d61133c565b5b828204905092915050565b5f6113a382611163565b91506113ae83611163565b92508282019050808211156113c6576113c561129b565b5b92915050565b6113d5816110fd565b82525050565b5f6020820190506113ee5f8301846113cc565b92915050565b5f8151905061140281611194565b92915050565b5f6020828403121561141d5761141c6110da565b5b5f61142a848285016113f4565b91505092915050565b5f82825260208201905092915050565b7f72657761726420746f6f206869676800000000000000000000000000000000005f82015250565b5f611477600f83611433565b915061148282611443565b602082019050919050565b5f6020820190508181035f8301526114a48161146b565b9050919050565b5f6040820190506114be5f83018561116c565b6114cb602083018461116c565b9392505050565b7f7a65726f20616d6f756e740000000000000000000000000000000000000000005f82015250565b5f611506600b83611433565b9150611511826114d2565b602082019050919050565b5f6020820190508181035f830152611533816114fa565b9050919050565b7f696e73756666696369656e74207374616b6500000000000000000000000000005f82015250565b5f61156e601283611433565b91506115798261153a565b602082019050919050565b5f6020820190508181035f83015261159b81611562565b9050919050565b5f6060820190506115b55f8301866113cc565b6115c260208301856113cc565b6115cf604083018461116c565b949350505050565b5f6040820190506115ea5f8301856113cc565b6115f7602083018461116c565b939250505056fea2646970667358221220e35b55c1c3eab3d006ddc0d238c750141dfe93a504faadb5f5dc21f5176269cc64736f6c63430008140033","linkReferences":{}},"methodIdentifiers":{"claim()":"4e71d92d","earned(address)":"008cc262","exit()":"e9fad8ee","lastUpdateTime()":"c8f33c91","notifyRewardAmount(uint256,uint256)":"246132f9","periodFinish()":"ebe2b12b","rewardPerToken()":"cd3daf9d","rewardPerTokenStored()":"df136d65","rewardRatePerSecond()":"5d773b2c","rewards(address)":"0700037d","rewardsToken()":"d1af0c7d","stake(uint256)":"a694fc3a","staked(address)":"98807d84","stakingToken()":"72f702f3","totalStaked()":"817b1cd2","userRewardPerTokenPaid(address)":"8b876347","withdraw(uint256)":"2e1a7d4d"},"id":30}